:020000041000EA
:4000000000400208230100100D00000085010010000000000000000000000000000000000000000000000000000000008101001000000000000000008101001081010010E9
:400040008101001081010010810100108101001081010010810100108101001081010010810100108101001081010010810100108101001081010010810100108101001060
:400080008101001081010010810100108101001081010010810100108101001081010010810100108101001081010010810100108101001081010010810100108101001020
:4000C00010B5064C2378002B07D1054B002B02D0044800E000BF0123237010BD3C0600080000000044330010084B10B5002B03D00749084800E000BF07480368002B00D1B3
:4001000010BD064B002BFBD09847F9E7000000004006000844330010E8000008000000007047FFF7FDFF72B60F4C104DAC4209DA21686268A368043B02DBC858D050FAE732
:400140000C34F3E70A490B4A0020521A02DD043A8850FCDC084809490860BFF34F8F00F007F900F01DF8FEE748330010603300103C0600084C0800080000000808ED00E03F
:40018000FEE7FEE700B504207146084202D0EFF3098001E0EFF30880043001F0BDFBFEE710B5034800F06AF9002001F06FFFFBE70000081010B5002001F02AF910BDC046A9
:4001C00070B56249E0239B00CB580F2213401A00D0329200525807210A40032A05D0042A06D0002A12D15A4814E05A4A106811E01A00C0329200554952581F210A40112ABF
:4002000006D0132A04D0FA20C00103E0524801E080200002002B36D14C4BB222D2009A5801211140B125ED005A59120F032422405B591B0F1C4207D0444C63591B0F032458
:400240002340012B02D102E0012300E00023002B01D0002901D1032A4BD13C4BB022D2009D58AD03AD0B3D495958C904C90C9C58240E01231C40013401F0BAFF6843210021
:4002800001F0B6FF35E0012B33D1304BC822D2009A5801251540C024E4001A59120F03210A401B591B0F194207D028490B591B0F03210B40012B02D102E0012300E000239F
:4002C000002B01D0002D01D1032A12D11F4DC022D200AB587F210B40A958090A1F263140AC58240C3440584301F082FF210001F07FFFE0239B00154AD3581B090322134012
:40030000D840144C6060164B1D692D0AFC32154001351969090E013101F06AFFA060290001F066FF0500E06020610E4BC0180E4901F05EFF20750D4BE818FA21890001F0EC
:4003400057FFA061C003E06170BDC0460000264000127A00C000000800366E0184050000000021403F420F0040420F00E703000010B5284801F036FF274CB022D200A3582E
:400380005B005B08A350E0218900635830208343635080235B04A350204A214BE250A02292010433E250FF221E4BE25001F008FFC0225200A35801218B43A35000F0D4FA3F
:4003C000FFF7FEFEB0235B055B78002B04D0B0235B055B78DBB200E02123212B03D1124B0022DA605A60114C22008021042000F0B5FD2000103000F049FE0D4B1A685123F1
:40040000D35C002B02D00B4800F0B6FE00F07EFC10BDC0468C3200100000264001000200840500008C050000E00023405806000848080008782300108023024AD358032022
:40044000184070470000214010B501F0F6FA084980228C58074B2340074C23438B508823034AD358DB06FAD501F0EBFA10BDC04600002140FCFF00000100FA0570B5050044
:40048000830504D0E821FF310F4801F017FA01F0D4FA0400FFF7D0FF032801D1FFF7D4FF0A4AB0239B00D55080215058084B03400848034353508823044AD358DB06FAD52D
:4004C000200001F0BEFA70BDAC23001000002140FCFF00000300FA05FEE7C046F0B50025002711E0BB00C658F3B2FF22964308E06A008A181478A419527822700135013B79
:40050000DBB2002BF4D10137002FEBD0F0BDC0460323064A1360064A136080225201054B1A60054A054B1A607047C04608203140102031409402364001001180000E1F41E2
:4005400010B50A00002101F0E8FE10BD10B501F0DBFE10BDF0B557464E464546E0B486B03C49A022D2008B58032083438B503A490B681A6885301B58D2181068374B1840C4
:4005800010600A68106884241259801802681202120A0260086805680259AA181068034080204000034313600B683E229A5C002A06D02848E02189004258753CA243425067
:4005C0003E229A5C002A06D02248E021890042583024A24342503E229B5C002B07D01D49E02292008B588020000603438B500021012000F03FFF0021022000F03BFF002151
:40060000032000F037FF0021042000F033FF0021002000F02FFF01A8114903000A0032CA32C312CA12C300F053FF002802D00420FFF752FF07490B4A8B58802000060343DE
:400640008B50094801F000F800280FD00420FFF743FFC0460000264048080008FF00FFFFC4230010087F0000400D0300AB4CAC4BE158AC4A0A40E250E158AB4A0A40E25030
:40068000E25880252D062A43E250043BE158A74A0A40E250E158A64A0A40802189010A43E250E258802109020A43E250A14A1168A14B0B40802149000B431360002001F0CB
:4006C00061FD9E4BE2581543E550E158012291430A43E2506421002001F036F9984B1B683F229A5C022A06D970229A5C03210A409449986842509A6874215B5AD218D168DC
:40070000914B0B408021C9010B43D3608C4B1B6873229A5C03200400944070229A5C7221595C15008D402900214302400A43802109060A438021C900986842509A68525853
:400740003F229A5C032A06D970229A5C02210A407E49986842509A6874215B5AD2189168794B0B408021C9010B439360744B1B6873229A5C0321914070229A5C7220185C8E
:40078000140084402143022002400A43802109060A438021C900986842509A6852583F229A5C062A06D970229A5C01210A406849986842509A6874215B5AD3185968624A66
:4007C0000A405A605E4B1B6873229A5C0321914070229A5C7220185C140084402143012002400A43802109060A438021C900986842509A6852583F229A5C132A0AD9712220
:40080000985C703A82401100032282400A405149986842509A6876215B5AD21811684E4B0B404E490B431360454B1B6873229A5C0324210091400A007021585C0231595C0F
:400840008840104371229A5C01219140944022000A400243802109060A438021C900986842509A6852583F229A5C332A03D900213B4A986881509A6874215B5AD218116801
:40088000314B0B40FE2109020B4313602C48016873239C46CA5C703B1C0094407027CA5D72268D5DAA40224380242406A24622438024E4008D682A518A6815597A25A846E1
:4008C000495B51180A6885352A40264D2A430A6001688A68914642468A5A4A441168F825A9431160016862468A5C180090400200C85D8E5DB040104371228A5C93401A0052
:4009000003001343524613438A6813518B681B5906B01CBC90469946A246F0BD0000264004050000FEFCFFFFFFFF00FFFFF0FFFFFF8FFFFF00002740FFFCFFFF0C0500008D
:4009400048080008080C0000FF00FFFF0C0C0000180C00004C0C0000FF0000FF004FC300CC0C0000003F420FF0B58BB09621002000F0EAFF00F0C0FF002814D100F0ACFF1B
:40098000C0235B006E4AD358DB0705D411006D4A8B585B005B088B5069496A4A8B588020000603438B50012001F08AFA664A516C664B0B40E82189010B435364536C1B0A8C
:4009C000FF2213403A2B07D15F4A516C604B0B40E82189010B435364FFF7BCFD5D4A5E4B1A6000240CE06200121953005B4AD318198B9A8AD88A00041043FFF7A1FD01340F
:400A00000B2CF0D900240AE0620012199300534AD3185A6E196ED86DFFF798FD0134112CF2D94F4D2900343128003830FFF756FD0F224C4B1A604C4B4C490B604C490A60C9
:400A40004C4A136001264C4B1E604C4B1E604C4A1368832149000B43136001AC22002B003C3383CB83C283CB83C283CB83C22100444800F053F924220021200001F04DFC91
:400A800001962100404800F049F924220021200001F043FC3D4BE36021003D4800F03EF922002B00603323CB23C223CB23C223CB23C22100374800F031F9242200212000DB
:400AC00001F02BFC862301932100334800F026F9324D22002B1D43CB43C243CB43C243CB43C221002E4800F019F922002B00283343CB43C243CB43C243CB43C221002948C8
:400B000000F00CF922002B004C3343CB43C243CB43C243CB43C22100234800F0FFF822002B00703323CB23C223CB23C223CB23C221001E4800F0F2F8FFF7EAFC0BB0F0BD3A
:400B4000000026400C05000000002740FF00FFFFFFC5FFDF0300FA05F0012140C4230010C42400100000634007010100000263400000644000026440047934400879344034
:400B8000007934400000324080003240008666068002324000033240800332404425001000043240800432400006324080063240214B984230D00ED8402831D004D80028A6
:400BC0001FD010282AD031E080282BD080235B00984229D02AE0194B984229D007D8A0231B0698420DD0164B984212D01EE0154B98420AD0144B984209D0144B984215D134
:400C000001E0002016E0124814E0124812E0124810E0A020C0030DE007480BE00F4809E00F4807E00F4805E0034803E00E4801E0A420C0037047C04606005200010000F083
:400C4000090000A0040000F0050000F0030000F0010052000200520003005200010050000200500005005200FF00520070B5124B1A683123D35C002B04D1C421FF310F48B5
:400C800000F01CFE0C4B1D682C00B423EB582A6A944663441B68002B0BDB094B1868FFF787FF6B6801229A6063689B68002BFBD100E0044870BDC04648080008082F00105C
:400CC000E80700080200500010B50D4B1861002805D002230370FD33437000234380094B1B6850229A5C002A08D051229B5C002B04D04F3A0449002000F0F8FA10BDC04662
:400D0000E8070008480800086101000810B502481430FFF7D9FF10BDE807000870B505000C0000285DD000295DD0FF230A689A4303D099212D4800F0C1FDFF2322699A4389
:400D400003D09A21294800F0B9FDA3685B0D03D09B21264800F0B2FD63685B0A03D09C21224800F0ABFDE3695B0F03D09D211F4800F0A4FD236A5B0F03D09E211B4800F0E2
:400D80009DFD1B4A11688B69EB1ADB0949691B01CB18216829607D211068415C6918E06808607E211068415C6918206908607F211068415C6918606908607C211068415CF8
:400DC0006918A06808606168A961116880228A5CAD18A2692A60E2691A60226A5A60002002E0044800E0034870BDC046482F00104808000801005A0070B504000D000A4B58
:400E00001A68B423D3581B181B68002B0ADA0B0C03D00649064800F051FD2D042D0C6560002000E0034870BD48080008D5020000C82F001001008A0070B505000C0003689B
:400E4000002B01DA002300E0084B002B0BD1EA60230C03D00649074800F030FD2404240CAC60002000E0014870BDC04601008A00BB020000C82F001070B505000C1E03D1B1
:400E80009921084800F01AFD074B1A68B423D3585B191B68002B03DAEB682360002000E0024870BD083000104808000801008A0070B504000D00234B1A683123D35C834266
:400EC00036D9002936D00B68DB0635D13123D35C984204D3C421FF311B4800F0EFFC194B1B681A6AB0215B5A5C431419174E34602B68DA080021686801F00FFA002120007C
:400F0000FFF77AFF3468002D03D111490E4800F0D5FC2A0000212000FFF78EFF00280DD10A4B18680021FFF767FF002808D108E0084806E0074804E0064802E0064800E03E
:400F4000054870BD48080008C82F0010000800089303000003018A0001018A0010B50400002A17D1002915D1124B1A683123D35C984204D3C421FF310F4800F09FFC0D4B8C
:400F80001B681A6AB0215B5A5C4314190B4B1C6000200EE0002A09D0002909D0074B59609A60191D2000FFF783FF02E0044800E0034810BD48080008C82F0010000800088B
:400FC00003018A00F0B583B00D001C4B1B68DC68236883422DD947097B01C01A012383401E00002903D100F028FD019001E000230193124B18680368002B01DA002300E0C3
:401000000F4B002B0ED16368BF00DF193B68334203D0B3433B60002400E00A4C0021FFF7EBFE00E0084C002D04D1019800F009FD00E0064C200003B0F0BDC0460008000867
:4010400001008A00020188000301880004018A000A4B1B68DA68136883420BD943095901401A0121814052689B009B580B4203D0034802E0034800E003487047000800084C
:401080000101880004018A0000018800034B1B68002B01D1014B18607047C0460C080008F0B5474680B404000F0090461E002D4B1B68002B03D1B5212B4800F0FFFB294B15
:4010C0001B682C2060431C18FF22150035402560330A13406360360CA660244B1A683123D35C9D4204D3C421FF31214800F0E6FB1E4B1A68B023D35A6B43116A8C46634479
:40110000236166683223D35C9E4204D3E021FF31174800F0D3FB154B1B681D6A80367601AD196561A668330C04D0FF214900104800F0C4FB330C03D00E490D4800F0BEFBB9
:401140003604330C1E43AE604346E36127620023A361069B002B02D000229B5EA38104BC9046F0BD0C0800084830001048080008C82F0010FF010000F0B58FB0041E03D10D
:401180005221294800F09AFB6368032B03D95421254800F093FBE36A002B03D15821224800F08CFB236B002B03D159211E4800F085FB07AA1300210061C961C321C921C30D
:4011C00002AD290023001433C1CBC1C141CB41C10821535E0CAE3380144B1B6836215B5E07998C466344B370089B0D930B9B0A980096A26AE16AFFF753FF2B69E868002256
:4012000000920021FFF74CFF216B300000F0E8FA0023F25E002A05DB1F231A401E3B9340034A13600FB0F0BD483000104808000800E100E0F8B505000F0016001C00002AFD
:4012400003D1FD21224800F039FB224B1B68002B03D1FE211E4800F031FB1E4B1B682C2128004843181879435918012213004D68AB401B044568AA4015000269002A20D0EF
:401280008F69002F1FD11268002A01DA002200E0114A002A19D132681204120C134333600369DE6001238B614C6204692B0C03D00A490B4800F002FB2A04120CA260002090
:4012C00004E0084802E0084800E00748F8BDC046483000100C08000801008A00BB020000C82F001004028A0007028A0070B504000D0016000F4B1B68002B04D1AF21490046
:401300000D4800F0DBFA0B4B1B682C2060431C18236A002B04D1B1214900074800F0CEFAE369B34204D9236AB6009D51002000E0024870BD0C080008483000100A028A00E8
:4013400070B582B0040000230193002804D1D221FF312D4800F0B2FA2369002B04D1E9214900294800F0AAFA6369002B04D1D421FF31254800F0A2FA236A002B04D1EA21C4
:401380004900214800F09AFA6269D5682B0C24D01B041360136820691C4B1A68B423D358C3181B68002B18DA01A9FFF765FD00280ED1019803681E0CFF221340E2699342FD
:4013C00007D29B00226AD358002B02D0984700E0002631002069FFF70FFD2D042D0C0FD063691D601B68636A002B03D098470023636203E0A36A002B00D098470023A3618C
:4014000063691B6802B070BD483000104808000810B50400084B1B68002B04D1B221FF31064800F04BFA044B1B682C2060431818FFF786FF10BDC0460C0800084830001096
:4014400010B50400094B1B689B6CC340DB0703D4BE21074800F032FA044B1B681B691034A402E3580F20184010BDC0464808000888300010134B1A683C23D35C83421DD9A1
:40148000042904D94B1EFF3B9BB2132B18D8FF290CD91F2319400C4A0300C0339B009950D03080000423835000200AE007231940D0308000044BC150002002E0034800E078
:4014C00002487047480800080000264001004A0070B5041E03D14A494A4800F0EFF9B023DB00494AD358002B00DA87E0474B22689A4203D94649434800F0E0F923689B0312
:401500009B0BE279002A02D08022520400E000221343B022D2003C498B50A2883D4B9A4204D98C218900374800F0C8F922893A4B9A4203D93949334800F0C0F9A388DB04F1
:40154000D90C23891B04364A13400B43354A2E498B50A37A0F2B04D98E218900294800F0ADF9E37A0F2B03D92F49264800F0A6F9A289284B9A4203D92C49224800F09EF9B2
:40158000A37A0F211940E27A1201FF2313400B43A289120226490A401343A27B1207C02189050A401343B122D20017498B50A379042B03D91F49134800F080F9228A164B80
:4015C0009A4204D9912189000E4800F077F90E4819494558194B1D40A3791B02E022D20013402B4343504558154B1D40238A1B040B4A13402B434350002000E0114870BD75
:401600001F020000C830001000002640FFFF030029020000FF1F0000FF010000310200000000FF0184050000390200003A02000000FF1F00430200008C050000FFF8FFFFB5
:40164000FFFF00FE03004A0070B505003149324A8B588020000603438B502C0003E0012000F020F9013CB223DB002A4AD3585B0701D4002CF3D12749B122D2008858274B04
:4016800003408020800503438B50002D01D0002C0CD02049B022D2008B588020000603438B5003E0012000F0FDF8013CB223DB00184AD358DB0701D4002CF3D1002D01D0DC
:4016C000002C08D01349B122D2008B58C020800503438B5013E00F4BB121C90058580F4A02408020800502435A5008395A58520052085A5008495A58520052085A50002D66
:4017000003D0002C03D0002002E0002000E0044870BDC046000026408C050000FFFFFFCF02004A0070B505000C001A4B1B6828229A5C012A15D1820807211000884327D153
:401740009200AD1AED00FF20A8401B6820339A181168AC4023004B40184004004C40146016E03A229B5EDBB2994203D176210A4800F0A4F8074B1B681B68072215408022B1
:40178000120615438022920194466444A400E55070BDC046480800085031001070B504000D000B4B9A680B4B9A420CD1002904D13821FF31084800F081F81034054BA400F8
:4017C000E058E55003E01034A400044BE05870BD00ED00E0000000085031001000000010F0B5474680B482B0061E01914AD04368032B03D93221264800F060F80023F05EF0
:40180000002804DBB178FFF78DFF002400E0214C0023F15E7368002912DB88081E4FC0308000C55903221140C900FC3290468A4095439A01434613408B402B43C35116E0F8
:4018400089B20F220A40083A92080632920013481018476803221140C900FF252A008A4097439A012B0013408B403B4343600B4B9A680B4B9A4206D10023F05E0199FFF742
:401880008DFF00E0034C200002B004BC9046F0BD503100100100560000E100E000ED00E00000000810B5034B1B78584300F0BCF810BDC046D400000801BEFEE770B50D0070
:4018C000044C18220100200000F02FFDA5610020FFF7F2FF00060008054B802212069A649B6C002B01DB002000E002487047C0460000274003004600054B80221201985844
:401900005B68FF221A4202D08023DB021843704700002640FEE7C04610B50A4B0268DA6142681A6282685A62C2689A620269DA6242691A6382695A63C2699A63FFF7EAFF83
:4019400010BDC04600060008F0B5474680B4002801D0192300E064238B429B415B42304D2C682268A826A45BA41822680327BA433B401A4322602C682268A45BA2181668BA
:40198000284CA046264016602C682668AA229446A25A96193268BA43134333602A6813686546525BD3181A68444614401C60002805D010291BD921291BD8012024E0184BE3
:4019C0001B6855229A5C914215D956229A5C914213D957229A5C914211D958229A5C91420FD959229B5C99420DD804200CE000200AE0022008E0002006E0012004E002202F
:401A000002E0032000E00520054A1268526813680F218B430343136004BC9046F0BDC04648080008FFFCFFFF0230800803D001300238FCD1C046C0467047EFF3108072B62B
:401A4000704780F31088704710B5B0235B059B899BB2002B04D0B0235B059B899BB201E080235B0080225200934215D1184C23681968683A9B58C9180B680F208343963A35
:401A800013430B6021680C689C23CB58E318196881430A431A6019E00D4C2368196898229B58C918B02040050A4BC2580A4B13400A681343C022920013430B602268116867
:401AC0009C23D358CB18054A82581A6010BDC0464808000848180000FFFCFFFF4418000030B5B0235B059B899BB2002B04D0B0235B059B899BB201E080235B008022520097
:401B0000934215D1184C23681968683A9B58C9180B680F208343953A13430B6021680C689C23CB58E318196881430A431A6019E00D4D2B68196898229B58C918B0246405F4
:401B4000C12040012258094B13400A681343C022920013430B602A6811689C23D358CB1822581A6030BDC04648080008FFFCFFFFB0235B059B899BB2002B04D0B0235B053F
:401B80009B899BB201E080235B008022520093420DD1104B1B681A6898215B58D21811680D4B0B40C021C9010B43136011E0094B1B68196898229B58C918084BB02252059D
:401BC000D258074B13400A681343C022920013430B60704748080008FF8FFFFF18180000FFFCFFFF30B5B0235B059B899BB2002B04D0B0235B059B899BB201E080235B004A
:401C00008022520093420DD1134B1B681A6898215B58D2181168114B0B408021C9010B43136018E00C4D2B68196898229B58C918B02464050A4822580A4B13400A6813438C
:401C4000C022920013430B602A6811689C23D358CB1822581A6030BD48080008FF8FFFFF4C180000FFFCFFFF10B5B0235B059B899BB2002B04D0B0235B059B899BB201E048
:401C800080235B0080225200934217D10020FFF7D7FBB0235B055B78002B04D0B0235B055B78DBB200E02123222B03D8002803D1013004E0012002E0002000E0012010BDA7
:401CC00030B585B004000D00022807D9042805D0032803D02A492B48FFF7F0FD6B1EDBB2012B07D9042D05D0082D03D026492548FFF7E4FDA400254BE458042D13D0012D72
:401D00001CD112E0A3682B420BD1E3681A6802925B6801930393290002A8236898471B4B5C61646902E0002000E00020002C24D0174B9842E6D1012DE4D11EE0022D01D1FE
:401D400004E01C006369002BFBD104E00F4B5C69002C00D0246900200DE0A3682B4209D1E3681A6802925B6801930393290002A8236898472469002CEFD105B030BDC04609
:401D8000B209000094310010B309000010080008FF004200F8B50700012803D93D493E48FFF78CFDB0235B055B78002B04D0B0235B055B78DBB200E021239DB2B0235B05F4
:401DC0009B899BB2002B04D0B0235B059E89B6B201E0802676000020FFF732FB002814D180235B009E4212D1222D12D82B4B1B685C682B4821582B4B19403B0680225204B9
:401E000013400B432350002404E0274C02E0264C00E0254C80235B009E4201D1222D03D880235B009E4232D01C4B1A683123D35C002B04D1C421FF311C48FFF73FFD174B3B
:401E40001B681D6A80235B009E4203D1002F05D0174A06E0002F03D0164A02E0164A00E0164A01212800FEF7E7FF00280FD10B4B1A68B423D3585B191B68002BF7DBEB6829
:401E80001B0E1B06A0221206934200D100242000F8BDC0464C0A0000943100104808000818F00000FFFFFFFE04004200082F0010010100300300000C010000300100000CC7
:401EC000F8B50500012804D9822109012948FFF7F5FCFFF7C9FE002849D0FFF7AEFD0700002D11D10021244B244AD150E823DB00B0225205D65CF6B20120FFF74BFF041EE5
:401F000019D1FFF7A1FD16E0B02252051C4BD0581A4B194958501B49565CF6B21A481A581F218A4314390A431A500320FFF7BAFCFFF758FE0024002C15D11049124A8B587A
:401F40001F20834306401E438E50002D02D1FFF70FFE08E00720FFF7A5FCFFF7C1FD0020FFF718FF04003800FFF76BFD00E0074C2000F8BD94310010307F000000002640C1
:401F800010180000410700001CFF00000300420010B5041E03D115491548FFF78FFC154B1A68D168F222D2018A5822601B68F022D201D9688A5862600F4AD9688A58A26029
:401FC0000E4AD9688A58E2600D4AD9688A5822610C4AD9688A5862610B4AD9688A58A261DA680A4BD358E36110BDC046A10A000094310010480800080478000008780000C3
:402000000C78000010780000147800001878000010B5041E03D114491448FFF74FFC144B1B68F022D201D96860688850114AD968A0688850104AD968E06888500F4AD9684A
:40204000206988500E4AD968606988500D4AD968A06988500C4AD968E0698850DA682168F223DB01D15010BDC90A0000943100104808000804780000087800000C7800006A
:4020800010780000147800001878000070B50500012804D9A62189003548FFF70FFC354B5B68002B05D001210120FFF709FE040000E00024002C53D1FFF7BFFC06002D4B74
:4020C0005B68002B03D004210120FFF7F9FD2A4B1B6843229A5C002A08D09A68E023D358DB0603D523481830FFF752FFB0235B059B899BB2002B04D0B0235B059B899BB26E
:4021000001E080235B0080225200934203D1280000F02AF909E0194A116904230B431361012D01D030BF00E020BF134B1B6843229A5C002A08D09A68E023D358DB0603D565
:402140000C481830FFF764FF3000FFF77AFC094B5B68002B09D008210120FFF7B1FD04E002210120FFF7ACFD054C200070BDC04694310010100800084808000800ED00E040
:40218000FF004200042805D10B4A116804230B4313600FE0094B1A681168A023D358CB180006C022920410401860034A136804218B4313607047C04610E000E048080008BE
:4021C0000749C02252008B589B009B088020C00503438B508B588020000603438B50704700002640014B18607047C04648080008002243088B4274D303098B425FD3030A7B
:402200008B4244D3030B8B4228D3030C8B420DD3FF22090212BA030C8B4202D31212090265D0030B8B4219D300E0090AC30B8B4201D3CB03C01A5241830B8B4201D38B03FA
:40224000C01A5241430B8B4201D34B03C01A5241030B8B4201D30B03C01A5241C30A8B4201D3CB02C01A5241830A8B4201D38B02C01A5241430A8B4201D34B02C01A5241A5
:40228000030A8B4201D30B02C01A5241CDD2C3098B4201D3CB01C01A524183098B4201D38B01C01A524143098B4201D34B01C01A524103098B4201D30B01C01A5241C308F4
:4022C0008B4201D3CB00C01A524183088B4201D38B00C01A524143088B4201D34B00C01A5241411A00D20146524110467047FFE701B5002000F006F802BDC0460029F7D0CA
:4023000076E770477047C046002310B59A4203D0CC5CC4540133F9E710BD03008218934202D019700133FAE77047030030B5002A0DD00C7801335D1E013A2C700131002C24
:40234000F5D19A189A4202D01C700133FAE730BDF8B5C046F8BC08BC9E467047F8B5C046F8BC08BC9E46704701B40248844601BC604700BF350300080300000001000000ED
:40238000010000000000000005036000040000000100000000000000010000000604600008000000C8070008B501001073797374656D5F70736F63365F636D30706C75738D
:4023C0002E630000F4010000140004010A00090508000000630100000020344074008020344074000022344074008022344074000024344074008024344074000026344064
:402400007400802634407400002834407400802834407400002A34407400802A3440740000213440D82500109000000000233440682600109000000000253440F826001098
:4024400090000000002734408827001090000000002934401828001090000000002B3440A82800109000000000603440382900107C00000080603440B42900107C000000D8
:4024800000613440302A00107C00000080613440AC2A00107C00000000623440282B00107C00000080623440A42B00107C00000000633440202C00107C000000806334403E
:4024C0009C2C00107C00000000643440182D00107C00000080643440942D00107C00000000653440102E00107C000000806534408C2E00107C000000DF04E301022034409B
:402500001100000010000000000200000A660A000000000000000000000000000000000000000000030000000000000000000000CC0000BA00000000000000000000000075
:402540001313000000001D1DFE0000000000000000000000000000000000000000000000000000000004040000000000030000000000000000000000CC0000000000000026
:4025800000000000000000001313000000000000070000000000000000000000866600000000000000000000000000001414140000000000C0000000800000000080000006
:4025C0000B0000A60000000000000000000000000000000000000000000000000000000000000000FFFFFFFFFFFFFFFFFFFFFFFFFFFFFFFFFFFFFFFFFF000000FFFFFFFF43
:40260000FFFFFFFFFFFFFFFFFFFFFFF5FFFFFFFFFF0000000000000000000000000000000000000000000000000F0000FFFFFFFFFFFFFFFFFFFFFFFF11111111111111112A
:4026400011111111111111111111111111111111111111111111111111111D11111111111111111111111111000000000000000000000000FFFFFFFFFFFFFFFFFFFFFFFFB2
:40268000FFFFFFFFFFFFFFFFFF000000FFFFFFFFFFFFFFFFFFFFFFFFFFFFFFFFFFFFFFFFFF000000000000000000000000000000000000000000000000000000FFFFFFFF3C
:4026C000FFFFFFFFFFFFFFFF1111111111111111111111111111111111111111111111111111111111111111111111111111111111111111111111110000000100000000B1
:4027000000000000FFFFFFFFFFFFFFFFFFFFFFFFFFFFFFFFFFFFFFFFFF000000FFFFFFFFFFFFFFFFFFFFFFFFFFFFFFFFFFFFFFFFFF00000000000000000000001F000000A4
:40274000000000000000000000000000FFFFFFFFFFFFFFFFFFFFFFFF11111111111111111111111111111111111111111111111111111111111111111111111111111111BD
:402780001111111111111111000000000000000000000000FFFFFFFFFFFFFFFFFFFFFFFFFFFFFFFFFFFFFFFFFF000000FFFFFFFFFFFFFFFFFFFFFFFFFFFFFFFFFFFFFFFFBA
:4027C000FF000000000000000000000000000000000000000000000000000000FFFFFFFFFFFFFFFFFFFFFFFF1111111111111111111111111111111111111111111111114E
:40280000111111111111111111111111111111111111111111111111000000000000000000000000FFFFFFFFFFFFFFFFFFFFFFFFFFFFFFFFFFFFFFFFFF000000FFFFFFFF19
:40284000FFFFFFFFFFFFFFFFFFFFFFFFFFFFFFFFFF000000000000000000000000000000000000000000000000000000FFFFFFFFFFFFFFFFFFFFFFFF1111111111111111ED
:4028800011111111111111111111111111111111111111111111111111111111111111111111111111111111000000000000000000000000FFFFFFFFFFFFFFFFFFFFFFFF7C
:4028C000FFFFFFFFFFFFFFFFFF000000FFFFFFFFFFFFFFFFFFFFFFFFFFFFFFFFFFFFFFFFFF000000000000000000000000000000000000000000000000000000FFFFFFFFFA
:40290000FFFFFFFFFFFFFFFF11111111111111111111111111111111111111111111111111111111111111111111111111111111111111111111111100000000000000006F
:402940001F1F1F1F1F1F1F1F1F1F1F1F1F1F1F1F1F1F1F1F1F1F1F1F1F1F1F1F1F1F1F1F000000000000000000000000000000000000000000020000FFFFFFFFFFFFFFFF7D
:40298000FFFFFFFF11111111111111111111111111111111111111111111111111111111111111111111111111111111111111111111111100000000000000001F1F1F1F6F
:4029C0001F1F1F1F1F1F1F1F1F1F1F1F1F1F1F1F1F1F1F1F1F1F1F1F1F1F1F1F000000000000000000000000000000000000000000000000FFFFFFFFFFFFFFFFFFFFFFFF7F
:402A000011111111111111111111111111111111111111111111111111111111111111111111111111111111111111111111111100000000000000001F1F1F1F1F1F1F1F6E
:402A40001F1F1F1F1F1F1F1F1F1F1F1F1F1F1F1F1F1F1F1F1F1F1F1F00000000000000001F000000000000000000000000000000FFFFFFFFEFFFFFFFFFFFFFFF1111111127
:402A8000111111111111111111111111111111111111111111111111111111111111111111111111111111111111111100000000000000001F1F1F1F1F1F1F1F1F1F1F1FB6
:402AC0001F1F1F1F1F1F1F1F1F1F1F1F0A1F1F1F1F1F1F1F000000000000000000000000000000000000000000000000FFFFFFFFFFFFFFFFFFFFFFFF111111111111111103
:402B00001111111111111111111110111111111111111111111111111111111111111111111111111111111100000000000000001F1F1F1F1F1F1F1F1F1F1F1F1F1F1F1FFE
:402B40001F1F1F1F1F1F1F1F1F1F1F1F1F1F1F1F000000000000000000000000000000000000000000000000FFFFFFFFFFFFFFFFFFFFFFFF111111111111111111111111A5
:402B800011111111111111111111111111111111111111111111111111111111111111111111111100000000000000001F1F1F1F1F1F1F1F1F1F1F1F1F1F1F1F1F1F1F1F45
:402BC0001F1F1F1F1F1F1F1F1F1F1F1F000000000000000000000000000000000000000000000000FFFFFFFFFFFFFFFFFFFFFFFF111111111111111111111111111111115D
:402C0000111111111111111111111111111111111111111111111111111111111111111100000000000000001F1F1F1F1F1F1F1F1F1F1F1F1F1F1F1F1F1F1F1F1F1F1F1F8C
:402C40001F1F1F1F1F1F1F1F000000000000000000000000000000000000000000000000FFFFFFFFFFFFFFFFFFFFFFFF111111111111111111111111111111111111111114
:402C80001111111111111111111111111111111111111111111111111111111100000000000000001F1F1F1F1F1F1F1F1F1F1F1F1F1F1F1F1F1F1F1F1F1F1F1F1F1F1F1FD4
:402CC0001F1F1F1F000000000000000000000000000000000000000000000000FFFFFFFFFFFFFFFFFFFFFFFF11111111111111111111111111111F111111111111111111BE
:402D000011111111111111111111111111111111111111111111111100000000000000001F1F1F1F1F1F1F1F1F1F1F1F1F1F1F1F1F1F1F1F1F1F1F1F1F1F1F1F1F1F1F1F1B
:402D400000000000000000000A000000000000000000000000000000FFFFFFFFFFFFFFFFFFFFFFFF1111111111111111111111111111111111111111111111111111111179
:402D8000111111111111111111111111111111111111111100000000000000001F1F1F1F1F1F1F1F1F1F1F1F1F1F1F1F1F1F1F1F1F1F1F1F1F1F1F1F1F1F1F1F00000000DF
:402DC0000000000000000000000000000000000000000000FFFFFFFFFFFFFFFFFFFFFFFF1111111111111111111111111111111111111111111111111111111111111111BF
:402E00001111111111111111111111111111111100000000000000001F1F1F1F1F1F1F1F1F1F1F1F1F1F1F1F1F1F1F1F1F1F1F1F1F1F1F1F1F1F1F1F0000000000000000A2
:402E400000000000000000000000000000000000FFFFFFFFFFFFFFFFFFFFFFFF111111111111111111111111111111111111111111111111111111111111111111111111FA
:402E800011111111111111111111111100000000000000001F1F1F1F1F1F1F1F1F1F1F1F1F1F1F1F1F1F1F1F1F1F1F1F1F1F1F1F1F1F1F1F00000000000000000000000066
:402EC000000000000000000000000000FFFFFFFFFFFFFFFFFFFFFFFF1111111111111111111111111111111111111111111111111111111111111111111111111111111136
:402F0000111111111111111147656E6572617465645F536F757263655C50536F43365C70646C5C647269766572732F7065726970686572616C2F6970632F63795F69706360
:402F40005F6472762E68000047656E6572617465645F536F757263655C50536F43365C70646C5C647269766572735C7065726970686572616C5C6770696F5C63795F6770D2
:402F8000696F2E630000000047656E6572617465645F536F757263655C50536F43365C70646C5C647269766572735C7065726970686572616C5C6770696F5C63795F67706A
:402FC000696F2E680000000047656E6572617465645F536F757263655C50536F43365C70646C5C647269766572735C7065726970686572616C5C6970635C63795F69706333
:403000005F6472762E68000047656E6572617465645F536F757263655C50536F43365C70646C5C647269766572735C7065726970686572616C5C6970635C63795F6970631F
:403040005F6472762E63000047656E6572617465645F536F757263655C50536F43365C70646C5C647269766572735C7065726970686572616C5C6970635C63795F697063E4
:403080005F706970652E630047656E6572617465645F536F757263655C50536F43365C70646C5C647269766572735C7065726970686572616C5C70726F745C63795F707213
:4030C0006F742E630000000047656E6572617465645F536F757263655C50536F43365C70646C5C647269766572735C7065726970686572616C5C737973636C6B5C63795F0B
:40310000737973636C6B2E630000000047656E6572617465645F536F757263655C50536F43365C70646C5C647269766572735C7065726970686572616C5C737973636C6BAB
:403140005C63795F737973636C6B2E680000000047656E6572617465645F536F757263655C50536F43365C70646C5C647269766572735C7065726970686572616C5C73797C
:4031800073696E745C63795F737973696E742E630000000047656E6572617465645F536F757263655C50536F43365C70646C5C647269766572735C70657269706865726126
:4031C0006C5C737973706D5C63795F737973706D2E6300000000204000002440000000400000000000002340000030400000314000009F4000002240000010400202020286
:40320000020202020210101D800017007500FF030602063604102000000000007FC0000000040000000000000019324B647D00804000080B100000000000FF012002001FE3
:4032400000800004FF081018001000140018001C4044484C50000000081000000800000004000000041000000012000004210000002100000016000040114002C4130013B8
:403280008013A013200000001C0000000000214000002540000001400000344000002440000031400000324000001F4100002340000011400101010101010101011010107D
:4032C000800019005500F0000501053B04101C01010000000FC000000004000001010101011D3A57789600082000101208000000001F00000010000F002000023F06080ED7
:4033000000080009000A000B24282C3034000000100000009000000088000000080000008000000004F0000000F00000400200002005A000D00100018001A00120000000DC
:4033400010000000000000000000001000000008C000000068330010C0000008400500003C060008100200000048E80100127A0000093D0000093D0000093D0004000000BE
:40338000A00F00000000D007E9000010C10000100000000010B50004400B27D0144B1A68146AB023D15ACA00531AE3181B68002BF4DA3E220F4B1A600F4A104B1A60104BEA
:4033C0000621A322D20099500E4A98509B58084B1A68106AB023D15ACA00531AC31800225A60084B064AD358002BFADA10BDC04648080008040126401E1F000008012640A9
:40340000000026401C05000010B54378FF2B20D100F02AFA04000F4B1A683123D35C042B04D8C421FF310C4800F006FA094B1A68116AB023D35A9B00CB18DB685A68116842
:4034400001230B4313601368DB07FCD4200000F0EBF910BD48080008082F0010F0B585B001900291544B1A683123D35C002B04D1C421FF31514800F0DFF94F4B1B681E6A1D
:40348000B4229A58971950229B5C002B77D000F003FA050003283CD1474B1A683123D35C062B04D8C421FF31444800F0C5F9424B1968B023CB5A5A00D21853000A6A9446B1
:4034C0006344B4228A58D3181B68002B23DB002000F0DAF93A4B98421FD03A4B1A6900230021012000F0B8F9002803D0364C17E0013400E00024002000F0C6F9304B9842C6
:4035000002D0324B9C42F3D9304B9C4207D92E4C06E0002404E02C4C02E02B4C00E00024002C46D100F0A0F90390294B294AD358002B13DA234A0121300000F06DF9002856
:403540000ED10298FFF726FF019B002B0AD03B68002BFCDB00F078F9040004E01A4C02E0194C00E01C4C032D05D10121002000F083F90028F9D1039800F056F919E000F0CA
:4035800073F905000F4A0121300000F045F9002809D1019B002B08D03B68002BFCDB00F053F9040002E0084C00E00B4C280000F03BF9200005B0F0BD48080008082F001061
:4035C00001018800E807000805005200EF4902001C0500000000264001005000F0B54F464646C0B4824B1A685468B0235B055B78002B04D0B0235B055B78DBB200E02123E0
:40360000212B67D1B023D15ACB005B1A116A8C46634419680029F5DADD6802212943D960B023D15ACB005B1A116A8C466344D968C9073ED5D9680904090C8C46842711689F
:40364000D559A84641440968090A0904FF26360431400D0088261168894691598846C14449460968090A0906294365462943D9601168D359C9180A685E4B98461A4090251C
:403680002D012A430A605A4B99461A6813689C46925962441368414619400B002B4313604B461A681568D15969180B689359EB181B684F4B1A68B021555AEB005B1B156A2E
:4036C000AC46634400255D60156A515ACA00531AEB185B68484A116904230B431361012801D030BF00E020BF414B1A68B023D15ACB005B1A116A8C46634419680029F3DAD4
:40370000B02149054978002904D0B02149054978C9B200E02121212932D1D968C90722D510688421525880180468324A1440DB681B0C1B02FF2109020B40234303602C4B02
:4037400019688823C8580B689C46604403681A400D6AB023CC5AE1000B1BEB18DB681B0E1B021A430260224B1A68106AB023D15ACA00531AC318DA6802218A43DA6028E090
:4037800086235B00E358002B23D11C4807681C4BA321C9005E581B4A904615681A4A0260062058503E21424611600631174A9950164B134AD358002BFADA154A86235B00BE
:4037C000E2500E4B1F60A323DB000D4AD6500D4B1D60074B1A68106AB023D15ACA00531AC31800225A600CBC90469946F0BDC04648080008FF00FFFF00ED00E008012640D1
:4038000000002640040126401E1F00001C050000AAAAAAAA0000000001B40248844601BC604700BF390E001001B40248844601BC604700BF431A001001B40248844601BC8F
:40384000604700BFBD18001001B40248844601BC604700BF6D0C001001B40248844601BC604700BF3512001001B40248844601BC604700BF3B1A001001B40248844601BC6E
:40388000604700BFC50F001001B40248844601BC604700BF5110001001B40248844601BC604700BF3904001000000000000000000000000000000000000000000000000028
:4038C00000000000000000000000000000000000000000000000000000000000000000000000000000000000000000000000000000000000000000000000000000000000C8
:403900000000000000000000000000000000000000000000000000000000000000000000000000000000000000000000000000000000000000000000000000000000000087
:403940000000000000000000000000000000000000000000000000000000000000000000000000000000000000000000000000000000000000000000000000000000000047
:403980000000000000000000000000000000000000000000000000000000000000000000000000000000000000000000000000000000000000000000000000000000000007
:4039C00000000000000000000000000000000000000000000000000000000000000000000000000000000000000000000000000000000000000000000000000000000000C7
:020000041008E2
:4000000000780408EB0208100D0000005103081051030810510308105103081000000000000000000000000000000000614208104D0308100000000001430810654308103B
:400040004D0308104D0308104D0308104D0308104D0308104D0308104D0308104D0308104D0308104D0308104D0308104D0308104D0308104D0308104D0308104D03081000
:400080004D0308104D0308104D0308104D0308104D0308104D0308104D0308104D0308104D0308104D0308104D0308104D0308104D0308104D0308104D0308104D030810C0
:4000C0004D0308104D0308104D0308104D0308104D0308104D0308104D0308104D0308104D0308104D0308104D0308104D0308104D0308104D0308104D0308104D03081080
:400100004D0308104D0308104D0308104D0308104D0308104D0308104D0308104D0308104D0308104D0308104D0308104D0308104D0308104D0308104D0308104D0308103F
:400140004D0308104D0308104D0308104D0308104D0308104D0308104D0308104D0308104D0308104D0308104D0308104D0308104D0308104D0308104D0308104D030810FF
:400180004D0308104D0308104D0308104D0308104D0308104D0308104D0308104D0308104D0308104D0308104D0308104D0308104D0308104D0308104D0308104D030810BF
:4001C0004D0308104D0308104D0308104D0308104D0308104D0308104D0308104D0308104D0308104D0308104D0308104D0308104D0308104D0308104D0308104D0308107F
:400200004D0308104D0308104D0308104D0308104D0308104D0308104D0308104D0308104D0308104D0308104D0308104D0308104D0308104D0308104D0308104D0308103E
:400240004D0308104D0308104D0308104D0308104D0308104D0308104D0308104D0308104D0308104D0308104D0308104D0308104D0308104D0308104D0308104D030810FE
:400280004D0308104D0308104D03081010B5054C237833B9044B13B10448AFF300800123237010BD044A0208000000008C7B0910084B10B51BB108490848AFF300800848F5
:4002C000036803B910BD074B002BFBD0BDE81040184700BF00000000084A02088C7B0910D0430208000000007047FFF7FDFF72B6104C114DAC4209DA21686268A368043B1D
:40030000A2BFC858D050FAE70C34F3E70B490C4A00209142BCBF41F8040BFAE709480A490860BFF34F8F00F0B7F900F091F900F03FF8FEE7907B0910A87B0910044A020866
:40034000F82004080040020808ED00E0FEE7FEE700B504207146084202D0EFF3098001E0EFF30880043002F0ADFAFEE70C4B5A6910225A615B690B4BB3F90030002B09DB50
:400380005A0903F01F03012101FA03F36032064941F82230054A137883F0010313707047000032401CDA081000E100E0CCB1030800B583B062B607F0CBF9142001F042FAD6
:4003C000012001F047FA012000F07AF9274B1A78274B1A700022274B1A701E22264B1A608222264B1A602422254B1A600122254B1A706322244B1A601622244B1A60244C02
:400400002449204602F0F0F9B4F90030002B08DB5A0903F01F000121814060321E4840F82210002B08DB590903F01F03012202FA03F3194A42F8213000240194012500956D
:40044000234680221549164803F0F6F80194009523464FF4FA621349134803F0EDF803F01DF99721114802F01DFAFEE7B0D80810E08203083DD1030824D1030828A2030810
:4004800038D10308CCB1030834D1030828D103081CDA08106D03081000E100E050D80810BD0D08105CD80810790B08106CD8081008B5012001F0BAFF08BD00BF704700BF4D
:4004C0005C4AD2F8803303F00F0303F1D00152F8212002F00702032A04D0042A05D092B9554914E0554A116811E003F1C002514951F8222002F01F02112A06D0132A04D08F
:400500004FF4FA4103E04E4901E04FF400418BBB484BD3F8902502F00100D3F88825C2F30172D3F8883513F0405F07D0414BD3F88835C3F30173012B02D102E0012300E04E
:40054000002303B108B9032A46D13A48D0F88025C2F31103D0F88425C2F30C02D0F88005C0F300600130B1FBF2F202FB03F2B2FBF0F131E0012B2FD12E4BD3F8402602F039
:400580000100D3F80026C2F30172D3F8003613F0405F07D0274BD3F80036C3F30173012B02D102E0012300E0002303B108B9032A12D12048D0F8002602F07F02D0F80036B6
:4005C000C3F30423D0F80006C0F3044002FB01F2B2FBF3F2B2FBF0F1164BD3F88033C3F3011321FA03F215494A601648D0F89030C3F3072301330069000E0130B2FBF0F059
:400600008860B2FBF3F3CB600B6103F5742202F23F220D48A0FB0202C2F387420A7503F2E7330A4AA2FB03239B098B61DB03CB61704700BF0000264000127A008C420208D4
:4006400000366E010000214083DE1B43D34D621008B50D4802F020FAFFF730FFFFF730FF00221146042001F0A9FC084801F03CFD074B1B6893F8513013B1064801F0A4FD89
:4006800001F06AFB08BD00BFA4DD0810204A0208B41D040878D8081008B502F06EF9074AD2F8883043F47003C2F88830BFF34F8FBFF36F8F02F065F908BD00BF00ED00E028
:4006C00010B5044607F012F8022006F029FF002006F068FF6FF07F4006F05AFFAF2340F207120121084606F023FA022006F018FF1E23AA2219465F2007F02EFC002006F0CF
:4007000051FF6FF07F4006F043FF404806F054FF022006F081FF052287213D4807F0E4F9012C19D13B4806F047FF282211463A4807F0DAF9394806F03FFF4B2228213848D4
:4007400007F0D2F96E222821364807F0CDF991222821354807F0C8F9022C19D12D4806F02BFF4B2228212E4807F0BEF92B4806F023FF28221146284807F0B6F96E222821D0
:40078000284807F0B1F991222821274807F0ACF9032C19D11F4806F00FFF6E222821214807F0A2F91D4806F007FF282211461A4807F09AF94B222821194807F095F991228C
:4007C0002821194807F090F9042C19D1134806F0F3FE28221146104807F086F94B2228210F4807F081F96E2228210E4807F07CF9084806F0E1FE912228210B4807F074F913
:400800000121022000F0C4FA10BD00BF440C0910B4D80810DCF60810BCD80810FCE00810D4D80810F0D8081008D9081010B582B006F05CFF022006F073FE002006F0B2FE6F
:400840006FF07F4006F0A4FEAF2340F207120121084606F06DF97823A02246215F2006F067F9134806F0A8FE022006F0D5FE114806F0A2FE02AC002344F8043D0E4B1A6846
:400880000E4920460CF066FB50228221204607F02BF90B4806F090FE0F223C21094807F023F90121022000F073FA02B010BD00BFFCE00810DC32091038D1030828D9081098
:4008C000DCF608102CD9081010B582B006F00EFF022006F025FE002006F064FE6FF07F4006F056FEAF2340F207120121084606F01FF978235A2246211E2006F019F97823E2
:40090000E1224621962006F013F91D4806F054FE022006F081FE1B4806F04EFE002301930093194C194B1A68214601A80CF012FB174B1A68214668460CF00CFB50223C2133
:40094000684607F0D1F85022A52101A807F0CCF8104806F031FE82220A210F4807F0C4F8822287210D4807F0BFF80F221E210C4807F0BAF80121022000F00AFA02B010BDA4
:40098000FCE00810DC32091028D9081028A2030824D10308DCF6081040D9081050D9081060D908102DE9F0412DED028BADF5007D06460F46904608EE103ADDED888A06F0EB
:4009C00095FE022006F0ACFD002006F0EBFD6FF07F4006F0DDFD5A4B1B78002B45D104E0590003AA42F8231001337C2BF8DD0024254637E006EB8503D3ED006A38EEC87A86
:400A0000DFED505A37EE657A76EEC76ADFED4E7A66EEA76A38EE086A36EE256AC6EE865A77EEE55A2B1D06EB8303D3ED006A36EEC77A27EE277AC7EE066A77EEE67A03AB8F
:400A400053F82400013453F82420FDEEE77A17EE903A0732FDEEE57A17EE901A073007F07BFA02357B2CC5DD0DE04B23C8221946184607F071FA354806F09EFD37224B219C
:400A8000334807F031F8782340F201120721084606F04EF82D4806F08FFD022006F0BCFD0023029300938DF804302A4C3A46214602A80CF04FFA4246214668460CF04AFA14
:400AC0008222BE21244807F00FF882222821234807F00AF8224806F06FFD9B22412102A807F002F81F4B1B689F4203D81E4B1B689F420DD21D4806F05FFD1D4C91221921D0
:400B0000204606F0F1FF91225A21204606F0ECFF134806F051FD9B22B421684606F0E4FF9B22C821134806F0DFFF0121022000F02FF90DF5007DBDEC028BBDE8F08100BF81
:400B40003C73030800409C4500001643DCF608107CD9081028D9081090D9081044D90810FCE0081028A2030824D10308DC32091098D908109CD9081030B583B06F4BB3F997
:400B80000030002B0DDB5A0903F01F03012101FA03F320326A4941F82230BFF34F8FBFF36F8F0125674B1B78674A1478A3421AD1664B1B78022B04D101356DB2052D00D181
:400BC0000125012B03D1013D6DB205B904252846FFF776FD5D4B1B78042B01D1594B1D7000225A4B1A70574B1A78594B1B789A4218D1564B1B78022B03D156490A68053249
:400C00000A60012B03D1534A1368053B1360FFF70DFE4E4B1B78042B01D14A4B1C7000224A4B1A70474B1A784B4B1B789A4228D1464B1B78022B0BD1484A12781AB1484829
:400C40000168053101601AB946490A6805320A60012B0BD1414B1B781BB141490A68053A0A601BB93F4A1368053B1360FFF72CFE364B1B78042B01D1324B1C700022334BFE
:400C80001A70304B1A78384B1B789A421ED1374B1B68374A92ED007A364AD2ED007A364A12680092BCEEC77A17EE102AFCEEE77A17EE901A3148FFF775FE244B1B78042BC1
:400CC00004D10022214B1A701E4B1C701D4B1A782B4B1B789A421ED12A4B1B68244A92ED007A244AD2ED007A274A12680092BCEEC77A17EE102AFCEEE77A17EE901A234832
:400D0000FFF750FE114B1B78042B04D100220F4B1A700C4B1C70094BB3F90030002B08DB590903F01F03012202FA03F3044A42F821304FF4FA6002F0F5FD33E714DA08104F
:400D400000E100E0E0820308B0D808103DD10308ADD8081038D10308ACD80810CCB1030824D1030828A20308AFD8081078C10308D0B103082CD1030880C1030884C10308CF
:400D8000AED8081084920308D4B103082CA20308F8B506460F4600F0CBFE0546064C3B4632460146204600F061FD41F2B062294620460CF0A1F8F8BDA04B020808B5234BEF
:400DC000B3F90030002B0DDB5A0903F01F03012101FA03F320321E4941F82230BFF34F8FBFF36F8F03F0DEFB04F066F803F0F4FFE8B903F0F5FB012003F028FE10B102224E
:400E0000144B1A70002003F021FE10B10122114B1A70022003F01AFE10B104220D4B1A7003F038FF04F048F8642002F07BFD074BB3F90030002BD9DB590903F01F030122E4
:400E400002FA03F3024A42F82130CFE714DA081000E100E03DD103082DE9F04180460E4617460A4C08256560702000F06FFD404600F06CFDA5606560722000F067FD394613
:400E8000304600F0C7FDA560BDE8F0810006324000B583B002AB03F8011D01221946FFF7DBFF03B05DF804FBF8B507460E46094C08256560702000F049FD384600F046FD62
:400EC000A5606560732000F041FD304600F06EFDA560F8BD0006324038B50425084B5D60084C402363601023636000F0FFFC0822054B5A6065602023636000F0E1FC38BD22
:400F000000003240800232400006324010B5434C6F22002120460CF015F8631C236704F14E03636704F12203A36700F0C9FC03E000F0D0FC032868D800F0AEFD0028F7D1D7
:400F400000F0CEFC00217220FFF7AEFF00F00F0002285CD14021FFF79BFF00210F20FFF7A3FF10F0800F54D002210B20FFF790FF08222B490120FFF76FFFD1210720FFF77A
:400F800087FF02210820FFF783FFC2210920FFF77FFF03210420FFF77BFF01210320FFF777FF00210320FFF773FF0A2001F056FC002400E01C4601210520FFF769FF642057
:400FC00001F04CFC03210520FFF762FF322001F045FC0F210520FFF75BFF322001F03EFC00210F20FFF760FF10F0400F05D040210220FFF74DFF234603E0631C9BB2042C9C
:40100000D8D1032B07D9052010BD012010BD022010BD032010BD002010BD00BF50620208A0D9081010F1090F0EDB10F1040F0EDB05280FDD0A2810DD0F2811DD142811DDBB
:40104000282811DC5A2210E04FF496620DE04FF461720AE04FF4167207E04FF4A57204E0DC2202E0B42200E03C22034BA3F87C20A3F87E20704700BF506202082DE9F84F6E
:4010800006460D46047828B1CA4B984205D10127002403E00127FF2400E0002700F010FC4FF00008D0E1C8EBC80AC8EB0A1ADFF80C930AEB090B6F22002158460BF042FF9B
:4010C0000BF1010EBC4BC3F870E00AF148004844063058670AF1200AD14409F10209C3F878902022002397E10FB934780136032D00F29081DFE815F004006500C60027012F
:4011000000EB030C14F0400F01D0C02100E080218CF8001049B214F0100F02D04FF0300A01E04FF0200A4AEA01018CF8001014F0040F02D04FF00C0A01E04FF0080A4AEA7A
:4011400001018CF8001014F0010F02D04FF0030A01E04FF0020A4AEA01018CF800100EEB020C14F0800F01D0032100E002218CF8001049B214F0200F02D04FF00C0A01E055
:401180004FF0080A4AEA01018CF8001014F0080F02D04FF0300A01E04FF0200A4AEA01018CF80010013A92B214F0020F02D06FF03F0A01E06FF07F0A4AEA01018CF80010F9
:4011C00028E100EB030C14F0400F01D0802100E040218CF8001049B214F0100F02D04FF0200A01E04FF0100A4AEA01018CF8001014F0040F02D04FF0080A01E04FF0040A8D
:401200004AEA01018CF8001014F0010F02D04FF0020A01E04FF0010A4AEA01018CF800100EEB020C14F0800F01D0022100E001218CF8001049B214F0200F02D04FF0080A49
:4012400001E04FF0040A4AEA01018CF8001014F0080F02D04FF0200A01E04FF0100A4AEA01018CF80010013A92B214F0020F02D06FF07F0A01E04FF0400A4AEA01018CF8AA
:401280000010C7E000EB030C14F0400F01D0C02100E040218CF8001049B214F0100F02D04FF0300A01E04FF0100A4AEA01018CF8001014F0040F02D04FF00C0A01E04FF0D8
:4012C000040A4AEA01018CF8001014F0010F02D04FF0030A01E04FF0010A4AEA01018CF800100EEB020C14F0800F01D0032100E001218CF8001049B214F0200F02D04FF08B
:401300000C0A01E04FF0040A4AEA01018CF8001014F0080F02D04FF0300A01E04FF0100A4AEA01018CF80010013A92B214F0020F02D06FF03F0A01E04FF0400A4AEA010187
:401340008CF8001066E000EB030C14F0400F01D0802100E0C0218CF8001049B214F0100F02D04FF0200A01E04FF0300A4AEA01018CF8001014F0040F02D04FF0080A01E0E7
:401380004FF00C0A4AEA01018CF8001014F0010F02D04FF0020A01E04FF0030A4AEA01018CF800100EEB020C14F0800F08D0022107E000BFFFFF0F105062020840D10308B6
:4013C00003218CF8001049B214F0200F02D04FF0080A01E04FF00C0A4AEA01018CF8001014F0080F02D04FF0200A01E04FF0300A4AEA01018CF80010013A92B214F0020FD6
:4014000002D06FF07F0A01E06FF03F0A4AEA01018CF8001001339BB2202B7FF665AEC8F1AF031BB299101A4A134003D5013B63F003030133174A02FA83F31B7A09F8013078
:4014400008F101081FFA88F8B8F1AF0F7FF62BAE00240FE0C4EBC403C4EB03136F220E4919440A20FFF7F8FC07210220FFF710FD0134A4B2AF2CEDD9084BB3F87C4000F052
:4014800029FA8442E4D800F02BFABDE8F88F00BF03000080A0D9081040D10308506202082DE9F04706460D4600F00AFAD2210920FFF7EEFC0024C6E0C4EBC407C4EB0717AE
:4014C000DFF8008207EB08096F22002148460BF039FD09F1010C784BC3F870C007F1480EC6440EF1060EC3F874E02037B84408F10208C3F87880202000218EE0771C3278DB
:401500006E1C95F800900EEB010582EA090212F0400F04D019F0400F03D0802302E0402300E0C0232B705BB212F0100F05D019F0100F05D04FF0200A04E04FF0100A01E071
:401540004FF0300A4AEA03032B7012F0040F05D019F0040F05D04FF0080A04E04FF0040A01E04FF00C0A4AEA03032B7012F0010F05D019F0010F05D04FF0020A04E04FF072
:40158000010A01E04FF0030A4AEA03032B700CEB000512F0800F04D019F0800F03D0022302E0012300E003232B705BB212F0200F05D019F0200F05D04FF0080A04E04FF0F2
:4015C000040A01E04FF00C0A4AEA03032B7012F0080F05D019F0080F05D04FF0200A04E04FF0100A01E04FF0300A4AEA03032B70013880B212F0020F05D019F0020F04D0D9
:401600006FF07F0203E0402201E06FF03F0213432B70013189B235463E4620297FF66EAFC4F1AF031BB29910244A134003D5013B63F003030133224A02FA83F31B7A08F81A
:4016400001300134A4B2AF2C7FF636AF002421E0C4EBC405C4EB05151A4B1D446F2229460A20FFF7F9FB07210220FFF711FCC4F1AF0343F38D032B44002283F822206F22E0
:4016800029460A20FFF7E8FB07210220FFF700FC0134A4B2AF2CDBD9074BB3F87E4000F019F98442D2D800F01BF9C2210920FFF7EFFBBDE8F08700BF50620208030000802B
:4016C000A0D9081040D10308002307E01349086F5522C254496FCA5401339BB2202BF5D970B5002416E0A6080C4DAA6F04F003030B490B441B7A93556F2229460A20FFF7CA
:40170000ABFB07210220FFF7C3FBAB6F00229A550134A4B2AF2CE6D970BD00BF50620208A0D9081008B5002304E00021094AD1540133DBB2152BF8D900210420FFF7A8FB6F
:401740006F2204490A20FFF787FB07210220FFF79FFB08BD5062020838B50E4C1023A360142001F07BF800F0D9F808220A4B9A604023A3600425A5600A2001F06FF8656064
:401780000A2001F06BF8A5600A2001F067F8FFF7BDFB38BD800232400006324038B5FFF793FFFFF7BFFF1E2001F058F8234C40256560322001F052F8A56000210F20FFF704
:4017C00073FB10F0400F36D000210B20FFF760FB01210320FFF75CFB03210520FFF758FB01210520FFF754FB322001F037F880210420FFF74DFB00210520FFF749FB0121C2
:401800000720FFF745FB1E2001F028F800F094F8102363606560142001F020F80822084B5A60042363602025A5601E2001F016F86560002038BD042038BD00BF800232403A
:401840000006324010B50446FFF746FB2046FFF7E9FB10BD08B510B1FFF77EFF01E0FFF79DFF08B9012008BD002008BDF8B507460E4614461D4613B10120FFF7EBFF24B900
:4018800031463846FFF70CFE15E0631EDBB2012B11D800213846FFF7F1FB012C07D101213846FFF7EBFB02213046FFF7E7FB03213046FFF7E3FB15B10020FFF7CBFFF8BDDF
:4018C00008B50022024BC3F8082100F069F908BD00003840014BD3F808017047000038400122014B5A6070470000384010B5074C074A0849204600F00DFE236843F0004386
:4019000023600822044B9A6010BD00BF00006740901D040824DA0810000632400822044B9A60044A136843F000431360704700BF000632400000674008B50249024800F03B
:401940001DFF08BD901D04080000674008B50146154800F081FD144BD3F8C03F13F0040FF9D0114BD3F8042242F48032C3F80422D3F8042222F48032C3F80422D3F80422AE
:40198000D3F8042342F48032C3F80423D3F8042322F48032C3F80423D3F804230422C3F8C02FD3F8C03F08BD0000674008B50146174800F051FD164BD3F8C03F13F0040FF5
:4019C000F9D0134BD3F84003D3F8042242F48032C3F80422D3F8042222F48032C3F80422D3F80422D3F8042342F48032C3F80423D3F8042322F48032C3F80423D3F8042323
:401A00000422C3F8C02FD3F8C03FC0B208BD00BF0000674038B50C46054600B121B940F2E6511B4800F03EFF22462946194800F059FD184AD2F80832C3F30803D2F80822C8
:401A4000C2F3C032D342F4D1124BD3F8042242F48032C3F80422D3F8042222F48032C3F80422D3F80422D3F8042342F48032C3F80423D3F8042322F48032C3F80423D3F820
:401A800004230422C3F8C02FD3F8C03F204638BDACD9081000006740044B1B6913F0080F01D0012070470020704700BF8002324010B582B002AC012344F8043D00231A46DD
:401AC0001449154805F062FF214607F0F8FB08F057F860B14FF48472B021002008F035F94FF48472B021002008F05BF90BE0B0224FF48471002008F028F9B0224FF484712F
:401B0000002008F04EF90549002008F035F902B010BD00BFE078091014790910AC420208012901D1002070474FF0FF30704700BF00487047D062020808B5012001F0EEF9BD
:401B4000014B186008BD00BF8079020808B500231A4619460248006801F00CF908BD00BF8079020808B54FF0FF31024B186801F0FFFA08BD8079020808B502F02DF808BD08
:401B8000704700BF08B54FF40041034805F020F9024805F073FD08BD847902085871091008B5084B1B783BB9074A0021074800F0EBFE0122034B1A70044B01229A609A6125
:401BC00008BD00BF84F9020858DA0810000038401F4B98422DD00CD840282ED003D8E8B1102828D02FE0802829D0B0F5807F28D029E0184B984228D006D8B0F1204F0DD094
:401C0000154B984212D01EE0144B98420AD00133984209D0023B984215D101E0002070470F4870470F4870470F4870474FF4A0007047074870470D4870470D4870470D48A4
:401C40007047034870470C4870474FF4A400704706005200010000F0090000A0040000F0010052000200520003005200010050000200500005005200FF00520038B5124B8B
:401C80001B6893F83130012B04D840F2C3110F4800F008FE0C4B1D682A6AB5F8B03013442C46D5F8B420D358002B0BDB084B1868FFF78EFF6B6801229A6063689B68002B78
:401CC000FBD138BD034838BDB41D0408A4DA081088F90208020050001A4B186128B102230370FF23437000234380174B1B6893F850202AB300B583B0B3F93830ADF80030FB
:401D0000002301931149684600F06EFDBDF90030002B08DB590903F01F03012202FA03F30B4A42F82130084B1B6893F8513023B102220849012000F0F3FA03B05DF804FBF9
:401D4000704700BF88F90208B41D04084144020800E100E0F944020808B50248FFF7BCFF08BD00BF9CF902082DE9F04104460D46174698469DF81860072903D9D921354864
:401D800000F090FD37F00F0303D0DA21314800F089FDB8F1010F03D9DB212E4800F082FD36F01F0303D0DC212A4800F07BFD22680123AB4022EA030308F0010808FA05F89D
:401DC00043EA08032360244B1B6893F87D100B59A8000F22824023EA020207F00F0303FA00F717430F51072D04D94FF422711B4800F058FD36F01F0304D040F28921174871
:401E000000F050FD144B1B689A69A41AE4095B6924011919032D0DD81959ED001F22AA4021EA020206F01F0606FA05F515431D51BDE8F081043D4A68ED001F23AB4022EA02
:401E4000030306F01F0606FA05F51D434D60BDE8F08100BFE4DA0810B41D040824DB081038B50B4B1B68D3F8B4301B58002B0DDA0D4604460B0C1B0423B140F2D521054885
:401E800000F010FDA9B26160002038BD024838BDB41D040864DB081001008A0038B50368002B01DA002300E0094B73B90D460446C2600B0C1B0423B140F2BB21054800F001
:401EC000F1FCA9B2A160002038BD014838BD00BF01008A0064DB081038B504460D4619B99921084800F0DEFC074B1B68D3F8B4301B59002B03DAE3682B60002038BD03483F
:401F000038BD00BFA4DB0810B41D040801008A00254B1B6893F8313083423AD900293AD00B6813F01F0F38D170B50D4604461E4B1B6893F83130984204D340F2C3111B48A3
:401F400000F0B0FC184B1B68186AB3F8B03004FB0304174E34602A68D208002168680AF0F1FF00212046FFF77BFF346825B940F293310E4800F096FC2A4600212046FFF760
:401F80008DFF60B900210A4B1868FFF769FF40B970BD084870470748704706487047064870BD054870BD00BFB41D040864DB0810A0F9020803018A0001018A0010B504463C
:401FC0001346B2B9A9B9124B1B6893F83130984204D340F2C3110F4800F064FC0C4B1B681A6AB3F8B03004FB03240B4B1C60002010BD43B149B1084A51609360111D20464B
:40200000FFF786FF10BD054810BD044810BD00BFB41D040864DB0810A0F9020803018A002DE9F0411B4B1B68DC68236883422CD90D464609A0EB4610012303FA00F819B9CA
:4020400000F09BFC074600E00027124B18680368002B01DA002300E00F4B83B9626852F8263018EA030F05D023EA080342F82630002400E0094C0021FFF7F2FE00E0084C0F
:4020800025B9384600F07DFC00E0064C2046BDE8F08100BFA0F9020801008A00020188000301880004018A000B4B1B68DB681A6882420CD94109A0EB4110012202FA00F09E
:4020C0005B6853F82130184203D004487047044870470448704700BFA0F902080101880004018A0000018800024B1B680BB9014B18607047ACF902082DE9F8430446884620
:4021000091461D46089F2C4B1B681BB9B5212B4800F0C8FB284B1B682C2000FB04F01C18EEB21E50C5F3072363602D0CA560244B1B6893F831309E4204D340F2C31121489A
:4021400000F0B0FB1E4B1B68196AB3F8B02006FB02162661666893F832309E4204D340F2DF11184800F09EFB154B1B681D6A803605EB46156561A668330C1B0423B14FF409
:40218000FF71104800F08EFB330C1B0423B140F2FF110C4800F086FBB3B243EA0646AE60C4F81C90C4F820800023A36117B1B7F90030A381BDE8F883ACF90208E4DB08105C
:4021C000B41D040864DB0810F0B58FB0044618B95221274800F066FBA369072B03D95621234800F05FFBE36A1BB95821204800F059FB236B1BB959211D4800F053FB07ADBA
:4022000004F114060FCE0FC537682F6002AD26460FCE0FC533682B60164B1B68B3F93620079B1344ADF83030089B0D93A26AE16A0CAD00953B460A98FFF75EFF00210091CA
:40224000069B0A460598FFF757FF216B284600F0CBFABDF93030002B08DB590903F01F03012202FA03F3044A42F821300FB0F0BDE4DB0810B41D040800E100E0F8B5064672
:402280000F461D4614461AB9FD211F4800F00AFB1E4B1B681BB9FE211B4800F003FB1B4B1B682C2101FB063001FB07314B68012202FA03F31B04466802FA06F60269EAB160
:4022C0008F69EFB91268002A01DA002200E0104AC2B92288134323600369DC6001238B614D620469330C1B0423B140F2BB21094800F0D8FAB2B2A2600020F8BD0648F8BD00
:402300000648F8BD0548F8BDE4DB0810ACF9020801008A0064DB081004028A0007028A00F8B505460F4616460E4B1B6823B94FF4AF710D4800F0B6FA0A4B1B682C2404FB2D
:402340000534236A23B94FF4B171074800F0AAFAE369B34204D9236A43F826700020F8BD0248F8BDACF90208E4DB08100A028A0070B582B000230193044620B940F2D111C2
:40238000284800F08FFA236923B94FF4E971254800F088FA636923B940F2D311214800F081FA236A23B94FF4EA711E4800F07AFA6369DD682A0C20D012041A601B6820691A
:4023C000194B1B68D3F8B430C358002B15DA01A9FFF782FD60B9019803681E0CDBB2E269934206D2226A52F8233013B1984700E0002631462069FFF733FDADB275B16369DE
:40240000ADB21D601B68636A1BB198470023636202E0A36A03B198470023A36163691B6802B070BDE4DB0810B41D040810B50446074B1B6823B940F2B111064800F032FA34
:40244000034B1B682C2000FB0430FFF791FF10BDACF90208E4DB0810036813F4006F01D0802200E04022D0F80832C3F30803934203D0C0F84012012070470020704700BFBE
:4024800010B4D0F8003203F00F03072B06D900230DE0CC5CC0F84042013300E000239342F7D306E031F81340C0F8404201339342F8D35DF8044B704710B51446036813F4A4
:4024C000006F01D0802200E04022D0F80832C3F30803D31AA34200D81C462246FFF7D0FF204610BDF8B507460D461446D0F8006206F00F060BE0224629463846FFF7DCFF9C
:40250000072E01D9430000E003461D44241A002CF1D1F8BD002800F02481F8B50546002900F0218117460C460B78012B03D93F218F4800F0B7F96378012B07D9052B05D071
:40254000022B03D040218A4800F0ACF9A378032B03D94121864800F0A5F92378012B07D16368023B0E2B03D94321814800F09AF9A36933F00F0303D044217D4800F092F98B
:40258000A368043B0C2B03D94521794800F08AF9E368043B0C2B03D94621754800F082F96378022B07D0A268E3689A4203D047216F4800F077F9636A33F06D0303D04921F9
:4025C0006B4800F06FF9E36A33F0730303D04A21674800F067F9236B33F4206303D04B21634800F05FF96378A678052B07D8DFE803F0060305060603022600E00026A3682B
:40260000082B04D8E368082B03D9002302E0002300E0012313B14FF4006200E00022237F13B14FF4807300E000231A436368013B03F00F03134343F080732B60226A2B686C
:4026400013F4006F01D0802300E040239A4203D35821474800F026F9A26A2B6813F4006F01D0802300E040239A4203D35921404800F018F9237D0BB9012100E00021627882
:40268000052A01D1022300E000230B43E17C09B1102100E000210B43617C09B1202100E000210B432178012902D14FF0004100E000210B43B60006F00C063343A169090237
:4026C00001F470610B43120602F0407213432B62237C13B14FF4807200E00022A37C13B14FF4007300E000231A43A368013B03F00F031343C5F8003394F82030C5F8043332
:40270000237C13B14FF4807200E00022E368013B03F00F031343C5F8003294F82830C5F80432636A03F06D03C5F8C83FE36A03F07303C5F8883F236B03F40073C5F8003F35
:40274000236B03F40063C5F8403F0023C5F8C83E5FB118463B60BB61FB60FB61054B3B62F8BD054870470448F8BD0020F8BD00BF68DC0810EFCDAB000140AA00036823F00C
:402780000043036019B100220A60CA608A61036A002B04DB0023C0F8C83FC0F8883F704738B50D4B9A680D4B9A420FD10D46044621B940F237110A4800F074F804F1100377
:4027C000064A52F8230042F8235038BD1030054B53F8200038BD00BF00ED00E000400208A8DC08100000081048B338B504460D464368072B03D93221134800F053F8B4F92C
:4028000000306268002B08DB5201D2B203F1604303F5614383F8002305E003F00F035201D2B20A49CA540A4B9A680A4B9A4208D12946B4F90000FFF7B3FF002038BD06482E
:402840007047002038BD00BFA8DC081014ED00E000ED00E0004002080100560010B5044605E0084B186800F07FF8A4F50044B4F5004FF6D8044B186800FB04F000F074F8F7
:4028800010BD00BFA8420208A442020808B5034B1B7800FB03F000F067F808BDA042020801BEFEE738B50D46044C1822014620460AF074FBA5610020FFF7F2FF70490208C8
:4028C000FEE700BF08B50268254BDA6142681A6282685A62C2689A620269DA6242691A6382695A63C2699A631E4A916AD963D16A1964516A5964516B9964926BDA64F1EE2F
:40290000103A13F0900F27D0026A154B1A65426A5A65826A9A65C26ADA65026B1A66426B5A66826B9A66C26BDA66026C1A67426C5A67826C9A67C26CDA67026DC3F880206E
:40294000426DC3F88420826DC3F88820C26DC3F88C20026EC3F89020FFF7B2FF08BD00BF7049020800ED00E00230800803D001300238FCD100BF00BF7047EFF3108072B637
:40298000704780F31088704700287DD00346002A7CD070B45068000280B29568AD0405F480252843D468240404F4403404431069000600F0E0602043147F0CB1012400E025
:4029C000002420430C1DA4011851D06828B903EB81100024C0F808410CE0012805D1146803EB8110C0F8084104E003EB81100124C0F80841106938B9546903EB8110C0F88E
:402A00000C419469C0F81041146803EB8110C0F81441906CB0F1FF3F17D0946A04F00F04166B360206F470663443956B2D0405F470252543146C2403A4B22C430001C0B26E
:402A4000204303EB8114C4F82001506A00F00300D66A360106F030063043556B2D0205F440752843D46BA401E4B20443506C800000F00C00204303EB8113C3F82401126A8E
:402A8000C3F83821002003E0024870470148704770BC70470100B600014B1860704700BFB41D040800F1080343604FF0FF328260C360036100230360704700BF0023036152
:402AC000704700BF43684B609A688A609A68516099600861036801330360704730B40D68B5F1FF3F01D1026907E000F1080200E01A4653681C68A542FAD253684B60996063
:402B00008A605160086103680133036030BC704703694268816891608268416851605A68904201D182685A60002202611A68013A1A601868704700BF436A23B1036B18688D
:402B4000C0F1070070470020704700BF10B5044601F098FBA26BE36B9A4201D1012400E0002401F0B1FB204610BD00BF10B5044601F088FBA36B0BB9012400E0002401F08D
:402B8000A3FB204610BD00BF70B504461646856B026C3AB9036843BB406801F087F80023636029E06EB980680AF0A6F9A268236C1344A3606268934219D32368A360002025
:402BC0001AE0C0680AF098F9236C5B42E2681A44E26021688A4202D262681344E360022E07D145B1013D002006E0002004E0002002E0002000E000200135A56370BD00BFF3
:402C0000026C72B110B50346C4681444C4604068844201D31868D8600846D9680AF06CF910BD704738B5054601F02CFB95F8454064B20AE06B6A53B105F1240000F036FF67
:402C400008B100F0C1FF013C64B2002CF2DCFF2385F8453001F038FB01F014FB95F8444064B20AE02B6953B105F1100000F01EFF08B100F0A9FF013C64B2002CF2DCFF23EA
:402C800085F8443001F020FB38BD00BF38B540B94FF03F0383F31188BFF36F8FBFF34F8FFEE704460D4601F0EDFA2168E26B236C03FB021060600020A063A160013A02FBC2
:402CC0000313E360FF2384F8443084F845307DB92369ABB104F1100000F0E8FE80B14FF08052094B1A60BFF34F8FBFF36F8F07E004F11000FFF7D6FE04F12400FFF7D2FE9A
:402D000001F0E2FA012038BD04ED00E010B5029B0C4609B91B6000E01A60D8631C6401211846FFF7B3FF10BD40B94FF03F0383F31188BFF36F8FBFF34F8FFEE7F0B583B05E
:402D4000034611B101FB00F000E000201D4617460C46483001F0D8FB064638B100903B4600F1480221462846FFF7D0FF304603B0F0BD00BFF0B585B0019240B94FF03F0377
:402D800083F31188BFF36F8FBFF34F8FFEE7044619B9026C1AB9012202E0012200E0002242B94FF03F0383F31188BFF36F8FBFF34F8FFEE7022B03D1E26B012A02D102E07A
:402DC000012200E0002242B94FF03F0383F31188BFF36F8FBFF34F8FFEE71D460E4600F001FF18B9019B1BB9012302E0012300E0002343B94FF03F0383F31188BFF36F8FAD
:402E0000BFF34F8FFEE7002701F03CFAA26BE36B9A4201D3022D21D12A4631462046FFF7B3FE636A6BB104F1240000F03FFE88B14FF08052324B1A60BFF34F8FBFF36F8FFF
:402E400008E038B14FF080522D4B1A60BFF34F8FBFF36F8F01F038FA01204EE0019B1BB901F032FA002048E01FB902A800F062FE012701F029FA00F04FFC01F003FA94F834
:402E800044305BB2B3F1FF3F02D1002384F8443094F845305BB2B3F1FF3F02D1002384F8453001F011FA01A902A800F04DFEF0B92046FFF74BFEA0B1019904F1100000F039
:402EC000BDFD2046FFF7AEFE00F0B4FC00289BD14FF080520A4B1A60BFF34F8FBFF36F8F92E72046FFF79EFE00F0A4FC8CE72046FFF798FE00F09EFC002005B0F0BD00BF8B
:402F000004ED00E048B108B5002141600160C1600B460A46FFF72EFF08BD704710B5024600210120FFF700FF0446FFF7EBFF204610BD00BF2DE9F84340B94FF03F0383F3E5
:402F40001188BFF36F8FBFF34F8FFEE7044619B9006C18B9012002E0012000E0002040B94FF03F0383F31188BFF36F8FBFF34F8FFEE7022B03D1E06B012802D102E001201D
:402F800000E0002040B94FF03F0383F31188BFF36F8FBFF34F8FFEE71F469046894601F075FAEFF311864FF03F0383F31188BFF36F8FBFF34F8FA26BE36B9A4201D3022F74
:402FC0001ED194F845506DB23A4649462046FFF7DBFDB5F1FF3F0DD1636A9BB104F1240000F064FD80B1B8F1000F0FD00120C8F800000CE06B1C5BB284F84530012006E0F9
:40300000002004E0012002E0012000E0012086F31188BDE8F88300BFF0B585B0019240B94FF03F0383F31188BFF36F8FBFF34F8FFEE7044619B9036C1BB9012302E00123D2
:4030400000E0002343B94FF03F0383F31188BFF36F8FBFF34F8FFEE70E4600F0C3FD18B9019B1BB9012302E0012300E0002343B94FF03F0383F31188BFF36F8FBFF34F8F5E
:40308000FEE7002701F0FEF8A56BC5B131462046FFF7B6FD013DA563236963B104F1100000F004FD38B14FF08052304B1A60BFF34F8FBFF36F8F01F007F9012053E0019B25
:4030C0001BB901F001F900204DE01FB902A800F031FD012701F0F8F800F01EFB01F0D2F894F844305BB2B3F1FF3F02D1002384F8443094F845305BB2B3F1FF3F02D100239C
:4031000084F8453001F0E0F801A902A800F01CFDF0B92046FFF72AFDA0B1019904F1240000F08CFC2046FFF77DFD00F083FB0028A8D14FF080520D4B1A60BFF34F8FBFF3C6
:403140006F8F9FE72046FFF76DFD00F073FB99E72046FFF767FD00F06DFB2046FFF706FD00288FD0002005B0F0BD00BF04ED00E070B584B0019140B94FF03F0383F31188A3
:40318000BFF36F8FBFF34F8FFEE70446036C43B14FF03F0383F31188BFF36F8FBFF34F8FFEE700F01FFD18B9019B1BB9012302E0012300E0002343B94FF03F0383F3118882
:4031C000BFF36F8FBFF34F8FFEE700252E4601F059F8A36BCBB1013BA363236813B900F005FE6060236963B104F1100000F05EFC38B14FF08052414B1A60BFF34F8FBFF3C8
:403200006F8F01F061F8012076E0019B6BB945B14FF03F0383F31188BFF36F8FBFF34F8FFEE701F051F8002066E01EB902A800F081FC012601F048F800F06EFA01F022F81B
:4032400094F844305BB2B3F1FF3F02D1002384F8443094F845305BB2B3F1FF3F02D1002384F8453001F030F801A902A800F06CFC40BB2046FFF77AFCF0B123683BB901F0FF
:4032800001F8606800F0BEFC054601F01DF8019904F1240000F0D2FB2046FFF7C3FC00F0C9FA002893D14FF08052144B1A60BFF34F8FBFF36F8F8AE72046FFF7B3FC00F0F2
:4032C000B9FA84E72046FFF7ADFC00F0B3FA2046FFF74CFC00283FF47AAF65B100F0D2FF2046FFF729FC0146606800F029FD00F0EBFF002000E0002004B070BD04ED00E0BD
:4033000000230BE0074A52F8332032B9054A42F8331002EBC303586070470133092BF1D9704700BFB81D040870B504460D46164600F0A8FF94F844305BB2B3F1FF3F02D1B8
:40334000002384F8443094F845305BB2B3F1FF3F02D1002384F8453000F0B6FFA36B2BB93246294604F1240000F082FB2046FFF759FC70BD094B9B6A1B680BB9012300E0DD
:40338000002323B14FF0FF32044BDA627047034B9A6AD268D2685268DA627047ECF9020810B50446006B01F0DFF8204601F0DCF810BD00BF2DE9F04780460D461646994668
:4033C000DDF820A0099F0A9C9200A521206B09F0B9FD236B06F18042013A03EB820626F00706002306E0E95CE21882F83410EA5C12B101330F2BF6D9002384F84330BAF134
:40340000060F01D94FF0060AC4F82CA0C4F844A00025A564201DFFF751FB04F11800FFF74DFB2461CAF10703A36164622B4606E003F1120204EB8202002151600133042B13
:40344000F6D90023236684F864304A464146304600F0EEFE206007B13C60BDE8F08700BF70B5002407E004EB8402930010481844FFF718FB0134062CF5D90E4C04F1BC066E
:403480003046FFF70FFB04F1D0052846FFF70AFB04F11400FFF706FB04F1E400FFF702FB2046FFF7FFFAA662C4F8F85070BD00BF1CFA0208ECF9020838B5044600F0E2FE34
:4034C000264BD3F8FC200132C3F8FC20D3F800314BB9224BC3F80041D3F8FC30012B10D1FFF7BEFF0DE01D4BD3F804314BB91B4BD3F80031DA6AE36A9A4202D8174BC3F82B
:403500000041164AD2F808310133C2F80831E36AD2F80C21934202D9104AC2F80C310F4D05F1300003EB83039A00211D1044FFF7C9FA00F0C9FED5F804316BB1D5F80031CD
:40354000DA6AE36A9A4207D24FF08052044B1A60BFF34F8FBFF36F8F38BD00BFECF9020804ED00E038B517E000F08CFE0D4CD4F8F030DD68281DFFF7CBFAD4F8FC30013B5B
:40358000C4F8FC30D4F81031013BC4F8103100F09BFE2846FFF704FF024BD3F81031002BE2D138BDECF9020808B5FFF7DBFF064B1B6B012BF9D94FF08052044B1A60BFF3E4
:4035C0004F8FBFF36F8FF0E7ECF9020804ED00E070B504460E46174BD3F81451D3F800010430FFF795FAB4F1FF3F07D136B11148D0F800110431FFF765FA70BD2C440D4B79
:40360000D3F800315C60A54208D90A4BD3F8F800D3F800110431FFF761FA70BD054DA86AD5F800110431FFF759FAEB6A9C4200D2EC6270BDECF902082DE9F04385B006466A
:403640000F4615469846900000F05EFF60B18146682000F059FF044610B1C0F8309004E0484600F081FF00E000248CB10023039302940D9B01930C9B009343462A46394654
:403680003046FFF797FE2046FFF716FF012001E04FF0FF3005B0BDE8F08300BF00B583B0194B019300230093802218491848FFF7C3FF012801D100F0FFFB012814D14FF0B9
:4036C0003F0383F31188BFF36F8FBFF34F8F114B4FF0FF32DA620122C3F804210022C3F8142100F071FE0BE0B0F1FF3F08D14FF03F0383F31188BFF36F8FBFF34F8FFEE765
:4037000003B05DF804FB00BF08FB02085CDE0810A9350810ECF90208034AD2F818310133C2F81831704700BFECF90208014BD3F814017047ECF902082DE9F0413C4BD3F818
:403740001831002B65D13A4BD3F814410134C3F81441CCB99B6A1B6843B14FF03F0383F31188BFF36F8FBFF34F8FFEE7304B9A6AD3F8F8109962C3F8F820D3F820210132A0
:40378000C3F82021FFF7F6FD294BDB6A9C4203D2002645E0012600E00026254B9B6A1B680BB9012300E0002323B14FF0FF32204BDA6235E01E4B9B6ADB68DD686B689C42B6
:4037C00002D21B4AD3622BE005F104084046FFF79FF9AB6A1BB105F11800FFF799F9EB6A134AD2F80C21934202D9114AC2F80C310F4F07F1300003EB83039A0041461044A9
