:020000041008E2
:4000000000780408EB0208100D00000051030810510308105103081051030810000000000000000000000000000000004D0308104D030810000000004D0308104D030810DA
:400040004D0308104D0308104D0308104D0308104D0308104D0308104D0308104D0308104D0308104D0308104D0308104D0308104D0308104D0308104D0308104D03081000
:400080004D0308104D0308104D0308104D0308104D0308104D0308104D0308104D0308104D0308104D0308104D0308104D0308104D0308104D0308104D0308104D030810C0
:4000C0004D0308104D0308104D0308104D0308104D0308104D0308104D0308104D0308104D0308104D0308104D0308104D0308104D0308104D0308104D0308104D03081080
:400100004D0308104D0308104D0308104D0308104D0308104D0308104D0308104D0308104D0308104D0308104D0308104D0308104D0308104D0308104D0308104D0308103F
:400140004D0308104D0308104D0308104D0308104D0308104D0308104D0308104D0308104D0308104D0308104D0308104D0308104D0308104D0308104D0308104D030810FF
:400180004D0308104D0308104D0308104D0308104D0308104D0308104D0308104D0308104D0308104D0308104D0308104D0308104D0308104D0308104D0308104D030810BF
:4001C0004D0308104D0308104D0308104D0308104D0308104D0308104D0308104D0308104D0308104D0308104D0308104D0308104D0308104D0308104D0308104D0308107F
:400200004D0308104D0308104D0308104D0308104D0308104D0308104D0308104D0308104D0308104D0308104D0308104D0308104D0308104D0308104D0308104D0308103E
:400240004D0308104D0308104D0308104D0308104D0308104D0308104D0308104D0308104D0308104D0308104D0308104D0308104D0308104D0308104D0308104D030810FE
:400280004D0308104D0308104D03081010B5054C237833B9044B13B10448AFF300800123237010BD2449020800000000CC7E0810084B10B51BB108490848AFF30080084894
:4002C000036803B910BD074B002BFBD0BDE81040184700BF0000000028490208CC7E0810F4420208000000007047FFF7FDFF72B6104C114DAC4209DA21686268A368043B99
:40030000A2BFC858D050FAE70C34F3E70B490C4A00209142BCBF41F8040BFAE709480A490860BFF34F8F00F043F900F01DF900F043F8FEE7D07E0810E87E081024490208A7
:4003400064C902080040020808ED00E0FEE7FEE700B504207146084202D0EFF3098001E0EFF30880043001F053FCFEE7F8B506460F4600F071FF0546064C3B463246014617
:40038000204600F0E5FD41F2B0622946204606F09DFEF8BD4049020808B5002002F0B6F96FF07F4002F0AEF902F024FA01210846FFF7DCFF08BD00BF08B562B602F04AFAFD
:4003C000FFF7EAFFFEE700BF08B5012001F012FB08BD00BF704700BF5C4AD2F8803303F00F0303F1D00152F8212002F00702032A04D0042A05D092B9554914E0554A116838
:4004000011E003F1C002514951F8222002F01F02112A06D0132A04D04FF4FA4103E04E4901E04FF400418BBB484BD3F8902502F00100D3F88825C2F30172D3F8883513F0E7
:40044000405F07D0414BD3F88835C3F30173012B02D102E0012300E0002303B108B9032A46D13A48D0F88025C2F31103D0F88425C2F30C02D0F88005C0F300600130B1FBDE
:40048000F2F202FB03F2B2FBF0F131E0012B2FD12E4BD3F8402602F00100D3F80026C2F30172D3F8003613F0405F07D0274BD3F80036C3F30173012B02D102E0012300E0E9
:4004C000002303B108B9032A12D12048D0F8002602F07F02D0F80036C3F30423D0F80006C0F3044002FB01F2B2FBF3F2B2FBF0F1164BD3F88033C3F3011321FA03F21549C4
:400500004A601648D0F89030C3F3072301330069000E0130B2FBF0F08860B2FBF3F3CB600B6103F5742202F23F220D48A0FB0202C2F387420A7503F2E7330A4AA2FB0323D6
:400540009B098B61DB03CB61704700BF0000264000127A008C42020800366E010000214083DE1B43D34D621008B50D4801F0B4FCFFF730FFFFF730FF00221146042001F0BF
:4005800001F8084801F094F8074B1B6893F8513013B1064801F0FCF800F03EFF08BD00BF38740810FC5F0208F0C702086871081008B501F08AFB074AD2F8883043F4700361
:4005C000C2F88830BFF34F8FBFF36F8F01F081FB08BD00BF00ED00E02DE9F04180460E4617460A4C08256560702000F009FD404600F006FDA5606560722000F001FD3946BD
:40060000304600F061FDA560BDE8F0810006324000B583B002AB03F8011D01221946FFF7DBFF03B05DF804FBF8B507460E46094C08256560702000F0E3FC384600F0E0FC1E
:40064000A5606560732000F0DBFC304600F008FDA560F8BD0006324010B5434C6F220021204606F059FD631C236704F14E03636704F12203A36700F095FC03E000F09CFCD8
:40068000032868D800F062FD0028F7D100F09AFC00217220FFF7C8FF00F00F0002285CD14021FFF7B5FF00210F20FFF7BDFF10F0800F54D002210B20FFF7AAFF08222B49F9
:4006C0000120FFF789FFD1210720FFF7A1FF02210820FFF79DFFC2210920FFF799FF03210420FFF795FF01210320FFF791FF00210320FFF78DFF0A2001F060FA002400E059
:400700001C4601210520FFF783FF642001F056FA03210520FFF77CFF322001F04FFA0F210520FFF775FF322001F048FA00210F20FFF77AFF10F0400F05D040210220FFF7ED
:4007400067FF234603E0631C9BB2042CD8D1032B07D9052010BD012010BD022010BD032010BD002010BD00BF7C6102089C7108102DE9F84F06460D46047828B1CA4B98425D
:4007800005D10127002403E00127FF2400E0002700F008FC4FF00008D0E1C8EBC80AC8EB0A1ADFF80C930AEB090B6F220021584606F0B2FC0BF1010EBC4BC3F870E00AF10F
:4007C00048004844063058670AF1200AD14409F10209C3F878902022002397E10FB934780136032D00F29081DFE815F004006500C600270100EB030C14F0400F01D0C02151
:4008000000E080218CF8001049B214F0100F02D04FF0300A01E04FF0200A4AEA01018CF8001014F0040F02D04FF00C0A01E04FF0080A4AEA01018CF8001014F0010F02D006
:400840004FF0030A01E04FF0020A4AEA01018CF800100EEB020C14F0800F01D0032100E002218CF8001049B214F0200F02D04FF00C0A01E04FF0080A4AEA01018CF80010BF
:4008800014F0080F02D04FF0300A01E04FF0200A4AEA01018CF80010013A92B214F0020F02D06FF03F0A01E06FF07F0A4AEA01018CF8001028E100EB030C14F0400F01D0F6
:4008C000802100E040218CF8001049B214F0100F02D04FF0200A01E04FF0100A4AEA01018CF8001014F0040F02D04FF0080A01E04FF0040A4AEA01018CF8001014F0010FDF
:4009000002D04FF0020A01E04FF0010A4AEA01018CF800100EEB020C14F0800F01D0022100E001218CF8001049B214F0200F02D04FF0080A01E04FF0040A4AEA01018CF848
:40094000001014F0080F02D04FF0200A01E04FF0100A4AEA01018CF80010013A92B214F0020F02D06FF07F0A01E04FF0400A4AEA01018CF80010C7E000EB030C14F0400F97
:4009800001D0C02100E040218CF8001049B214F0100F02D04FF0300A01E04FF0100A4AEA01018CF8001014F0040F02D04FF00C0A01E04FF0040A4AEA01018CF8001014F009
:4009C000010F02D04FF0030A01E04FF0010A4AEA01018CF800100EEB020C14F0800F01D0032100E001218CF8001049B214F0200F02D04FF00C0A01E04FF0040A4AEA0101F6
:400A00008CF8001014F0080F02D04FF0300A01E04FF0100A4AEA01018CF80010013A92B214F0020F02D06FF03F0A01E04FF0400A4AEA01018CF8001066E000EB030C14F032
:400A4000400F01D0802100E0C0218CF8001049B214F0100F02D04FF0200A01E04FF0300A4AEA01018CF8001014F0040F02D04FF0080A01E04FF00C0A4AEA01018CF80010A9
:400A800014F0010F02D04FF0020A01E04FF0030A4AEA01018CF800100EEB020C14F0800F08D0022107E000BFFFFF0F107C610208787B020803218CF8001049B214F0200FEC
:400AC00002D04FF0080A01E04FF00C0A4AEA01018CF8001014F0080F02D04FF0200A01E04FF0300A4AEA01018CF80010013A92B214F0020F02D06FF07F0A01E06FF03F0A82
:400B00004AEA01018CF8001001339BB2202B7FF665AEC8F1AF031BB299101A4A134003D5013B63F003030133174A02FA83F31B7A09F8013008F101081FFA88F8B8F1AF0FC2
:400B40007FF62BAE00240FE0C4EBC403C4EB03136F220E4919440A20FFF73EFD07210220FFF756FD0134A4B2AF2CEDD9084BB3F87C4000F021FA8442E4D800F023FABDE881
:400B8000F88F00BF030000809C710810787B02087C6102082DE9F04706460D4600F002FAD2210920FFF734FD0024C6E0C4EBC407C4EB0717DFF8008207EB08096F22002129
:400BC000484606F0A9FA09F1010C784BC3F870C007F1480EC6440EF1060EC3F874E02037B84408F10208C3F87880202000218EE0771C32786E1C95F800900EEB010582EA78
:400C0000090212F0400F04D019F0400F03D0802302E0402300E0C0232B705BB212F0100F05D019F0100F05D04FF0200A04E04FF0100A01E04FF0300A4AEA03032B7012F03C
:400C4000040F05D019F0040F05D04FF0080A04E04FF0040A01E04FF00C0A4AEA03032B7012F0010F05D019F0010F05D04FF0020A04E04FF0010A01E04FF0030A4AEA030359
:400C80002B700CEB000512F0800F04D019F0800F03D0022302E0012300E003232B705BB212F0200F05D019F0200F05D04FF0080A04E04FF0040A01E04FF00C0A4AEA0303EF
:400CC0002B7012F0080F05D019F0080F05D04FF0200A04E04FF0100A01E04FF0300A4AEA03032B70013880B212F0020F05D019F0020F04D06FF07F0203E0402201E06FF0FB
:400D00003F0213432B70013189B235463E4620297FF66EAFC4F1AF031BB29910244A134003D5013B63F003030133224A02FA83F31B7A08F801300134A4B2AF2C7FF636AF97
:400D4000002421E0C4EBC405C4EB05151A4B1D446F2229460A20FFF73FFC07210220FFF757FCC4F1AF0343F38D032B44002283F822206F2229460A20FFF72EFC072102204A
:400D8000FFF746FC0134A4B2AF2CDBD9074BB3F87E4000F011F98442D2D800F013F9C2210920FFF735FCBDE8F08700BF7C610208030000809C710810787B0208002307E01C
:400DC0001349086F5522C254496FCA5401339BB2202BF5D970B5002416E0A6080C4DAA6F04F003030B490B441B7A93556F2229460A20FFF7F1FB07210220FFF709FCAB6F3F
:400E000000229A550134A4B2AF2CE6D970BD00BF7C6102089C71081008B5002304E00021094AD1540133DBB2152BF8D900210420FFF7EEFB6F2204490A20FFF7CDFB072143
:400E40000220FFF7E5FB08BD7C61020838B50E4C1023A360142000F0B1FE00F0B9F808220A4B9A604023A3600425A5600A2000F0A5FE65600A2000F0A1FEA5600A2000F076
:400E80009DFEFFF7E9FB38BD800232400006324038B5FFF793FFFFF7BFFF1E2000F08EFE234C40256560322000F088FEA56000210F20FFF7B9FB10F0400F36D000210B2078
:400EC000FFF7A6FB01210320FFF7A2FB03210520FFF79EFB01210520FFF79AFB322000F06DFE80210420FFF793FB00210520FFF78FFB01210720FFF78BFB1E2000F05EFECE
:400F000000F074F8102363606560142000F056FE0822084B5A60042363602025A5601E2000F04CFE6560002038BD042038BD00BF800232400006324008B510B1FFF786FF28
:400F400001E0FFF7A5FF08B9012008BD002008BDF8B507460E4614461D4613B10120FFF7EBFF24B931463846FFF714FE15E0631EDBB2012B11D800213846FFF7F9FB012CF2
:400F800007D101213846FFF7F3FB02213046FFF7EFFB03213046FFF7EBFB15B10020FFF7CBFFF8BD08B50022024BC3F8082100F057F908BD00003840014BD3F80801704727
:400FC000000038400122014B5A607047000038400822044B9A60044A136843F000431360704700BF000632400000674008B50249024800F073FD08BDCCC7020800006740AC
:4010000008B50146154800F00BFD144BD3F8C03F13F0040FF9D0114BD3F8042242F48032C3F80422D3F8042222F48032C3F80422D3F80422D3F8042342F48032C3F80423F2
:40104000D3F8042322F48032C3F80423D3F804230422C3F8C02FD3F8C03F08BD0000674008B50146174800F0DBFC164BD3F8C03F13F0040FF9D0134BD3F84003D3F804224B
:4010800042F48032C3F80422D3F8042222F48032C3F80422D3F80422D3F8042342F48032C3F80423D3F8042322F48032C3F80423D3F804230422C3F8C02FD3F8C03FC0B286
:4010C00008BD00BF0000674038B50C46054600B121B940F2E6511B4800F08AFD22462946194800F0E3FC184AD2F80832C3F30803D2F80822C2F3C032D342F4D1124BD3F8A2
:40110000042242F48032C3F80422D3F8042222F48032C3F80422D3F80422D3F8042342F48032C3F80423D3F8042322F48032C3F80423D3F804230422C3F8C02FD3F8C03F51
:40114000204638BDA871081000006740044B1B6913F0080F01D0012070470020704700BF8002324008B54FF48071034800F0C8FF024801F00BFB08BDFC610208147508101B
:40118000024A136801331360704700BFC8C7020810B52021002000F0DDFD002409E0204600F008FE20B90849204600F0F5FD02E00134042CF3D9042C03D9A421034800F0C8
:4011C00017FD00F09FFD10BD81110810E871081008B5FFF7DDFF08BD10B582B002AC012344F8043D00231A461449154801F04EFC214602F0FAFB03F023F860B14FF48472AF
:40120000B021002003F001F94FF48472B021002003F027F90BE0B0224FF48471002003F0F4F8B0224FF48471002003F01AF90549002003F001F902B010BD00BF587C0810EA
:401240008C7C0810AC420208012901D1002070474FF0FF30704700BF00487047FC62020808B5084B1B783BB9074A0021074800F0ABFD0122034B1A70044B01229A609A61E6
:4012800008BD00BFAC790208F0710810000038401F4B98422DD00CD840282ED003D8E8B1102828D02FE0802829D0B0F5807F28D029E0184B984228D006D8B0F1204F0DD006
:4012C000154B984212D01EE0144B98420AD00133984209D0023B984215D101E0002070470F4870470F4870470F4870474FF4A0007047074870470D4870470D4870470D48EE
:401300007047034870470C4870474FF4A400704706005200010000F0090000A0040000F0010052000200520003005200010050000200500005005200FF00520038B5124BD4
:401340001B6893F83130012B04D840F2C3110F4800F04EFC0C4B1D682A6AB5F8B03013442C46D5F8B420D358002B0BDB084B1868FFF78EFF6B6801229A6063689B68002B7D
:40138000FBD138BD034838BDF0C702083C720810B0790208020050001A4B186128B102230370FF23437000234380174B1B6893F850202AB300B583B0B3F93830ADF8003088
:4013C000002301931149684600F0BEFBBDF90030002B08DB590903F01F03012202FA03F30B4A42F82130084B1B6893F8513023B102220849012000F077FA03B05DF804FB71
:40140000704700BFB0790208F0C702086543020800E100E01D44020808B50248FFF7BCFF08BD00BFC479020838B50B4B1B68D3F8B4301B58002B0DDA0D4604460B0C1B0414
:4014400023B140F2D521054800F0D2FBA9B26160002038BD024838BDF0C702087C72081001008A0038B50368002B01DA002300E0094B73B90D460446C2600B0C1B0423B1FA
:4014800040F2BB21054800F0B3FBA9B2A160002038BD014838BD00BF01008A007C72081038B504460D4619B99921084800F0A0FB074B1B68D3F8B4301B59002B03DAE368F8
:4014C0002B60002038BD034838BD00BFBC720810F0C7020801008A00254B1B6893F8313083423AD900293AD00B6813F01F0F38D170B50D4604461E4B1B6893F831309842B0
:4015000004D340F2C3111B4800F072FB184B1B68186AB3F8B03004FB0304174E34602A68D2080021686805F0F7FD00212046FFF77BFF346825B940F293310E4800F058FBD6
:401540002A4600212046FFF78DFF60B900210A4B1868FFF769FF40B970BD084870470748704706487047064870BD054870BD00BFF0C702087C720810C879020803018A00F9
:4015800001018A0010B504461346B2B9A9B9124B1B6893F83130984204D340F2C3110F4800F026FB0C4B1B681A6AB3F8B03004FB03240B4B1C60002010BD43B149B1084A71
:4015C00051609360111D2046FFF786FF10BD054810BD044810BD00BFF0C702087C720810C879020803018A002DE9F0411B4B1B68DC68236883422CD90D464609A0EB46108D
:40160000012303FA00F819B900F05FFB074600E00027124B18680368002B01DA002300E00F4B83B9626852F8263018EA030F05D023EA080342F82630002400E0094C0021C5
:40164000FFF7F2FE00E0084C25B9384600F041FB00E0064C2046BDE8F08100BFC879020801008A00020188000301880004018A000B4B1B68DB681A6882420CD94109A0EBC3
:401680004110012202FA00F05B6853F82130184203D004487047044870470448704700BFC87902080101880004018A0000018800024B1B680BB9014B18607047D479020823
:4016C0002DE9F8430446884691461D46089F2C4B1B681BB9B5212B4800F08AFA284B1B682C2000FB04F01C18EEB21E50C5F3072363602D0CA560244B1B6893F831309E4201
:4017000004D340F2C311214800F072FA1E4B1B68196AB3F8B02006FB02162661666893F832309E4204D340F2DF11184800F060FA154B1B681D6A803605EB46156561A66800
:40174000330C1B0423B14FF4FF71104800F050FA330C1B0423B140F2FF110C4800F048FAB3B243EA0646AE60C4F81C90C4F820800023A36117B1B7F90030A381BDE8F88335
:40178000D4790208FC720810F0C702087C720810F0B58FB0044618B95221274800F028FAA369072B03D95621234800F021FAE36A1BB95821204800F01BFA236B1BB95921A8
:4017C0001D4800F015FA07AD04F114060FCE0FC537682F6002AD26460FCE0FC533682B60164B1B68B3F93620079B1344ADF83030089B0D93A26AE16A0CAD00953B460A9802
:40180000FFF75EFF00210091069B0A460598FFF757FF216B284600F097F9BDF93030002B08DB590903F01F03012202FA03F3044A42F821300FB0F0BDFC720810F0C7020813
:4018400000E100E0F8B506460F461D4614461AB9FD211F4800F0CCF91E4B1B681BB9FE211B4800F0C5F91B4B1B682C2101FB063001FB07314B68012202FA03F31B0446686E
:4018800002FA06F60269EAB18F69EFB91268002A01DA002200E0104AC2B92288134323600369DC6001238B614D620469330C1B0423B140F2BB21094800F09AF9B2B2A26063
:4018C0000020F8BD0648F8BD0648F8BD0548F8BDFC720810D479020801008A007C72081004028A0007028A00F8B505460F4616460E4B1B6823B94FF4AF710D4800F078F900
:401900000A4B1B682C2404FB0534236A23B94FF4B171074800F06CF9E369B34204D9236A43F826700020F8BD0248F8BDD4790208FC7208100A028A0070B582B00023019304
:40194000044620B940F2D111284800F051F9236923B94FF4E971254800F04AF9636923B940F2D311214800F043F9236A23B94FF4EA711E4800F03CF96369DD682A0C20D0C5
:4019800012041A601B682069194B1B68D3F8B430C358002B15DA01A9FFF782FD60B9019803681E0CDBB2E269934206D2226A52F8233013B1984700E0002631462069FFF70D
:4019C00033FDADB275B16369ADB21D601B68636A1BB198470023636202E0A36A03B198470023A36163691B6802B070BDFC720810F0C7020810B50446074B1B6823B940F297
:401A0000B111064800F0F4F8034B1B682C2000FB0430FFF791FF10BDD4790208FC720810036813F4006F01D0802200E04022D0F80832C3F30803934203D0C0F84012012012
:401A400070470020704700BF10B4D0F8003203F00F03072B06D900230DE0CC5CC0F84042013300E000239342F7D306E031F81340C0F8404201339342F8D35DF8044B704732
:401A800010B51446036813F4006F01D0802200E04022D0F80832C3F30803D31AA34200D81C462246FFF7D0FF204610BDF8B507460D461446D0F8006206F00F060BE0224613
:401AC00029463846FFF7DCFF072E01D9430000E003461D44241A002CF1D1F8BD036823F00043036019B100220A60CA608A61036A002B04DB0023C0F8C83FC0F8883F70474D
:401B000038B50D4B9A680D4B9A420FD10D46044621B940F237110A4800F06AF804F11003064A52F8230042F8235038BD1030054B53F8200038BD00BF00ED00E00040020888
:401B40003C7308100000081048B338B504460D464368072B03D93221134800F049F8B4F900306268002B08DB5201D2B203F1604303F5614383F8002305E003F00F035201CF
:401B8000D2B20A49CA540A4B9A680A4B9A4208D12946B4F90000FFF7B3FF002038BD06487047002038BD00BF3C73081014ED00E000ED00E0004002080100560010B50446F8
:401BC00005E0084B186800F077F8A4F50044B4F5004FF6D8044B186800FB04F000F06CF810BD00BFA8420208A442020801BEFEE738B50D46044C18220146204605F094FA0B
:401C0000A5610020FFF7F2FF90480208FEE700BF08B50268254BDA6142681A6282685A62C2689A620269DA6242691A6382695A63C2699A631E4A916AD963D16A1964516A9C
:401C40005964516B9964926BDA64F1EE103A13F0900F27D0026A154B1A65426A5A65826A9A65C26ADA65026B1A66426B5A66826B9A66C26BDA66026C1A67426C5A67826CE5
:401C80009A67C26CDA67026DC3F88020426DC3F88420826DC3F88820C26DC3F88C20026EC3F89020FFF7B2FF08BD00BF9048020800ED00E0000000000230800803D0013081
:401CC0000238FCD100BF00BF7047EFF3108072B6704780F310887047084B1B6813F4803F07D17047064B53F8243003B19847013401E010B50024042CF4D910BD10E000E04E
:401D0000147A0208044B1A6842F002021A601A6842F001021A60704710E000E0042805D10A4A136843F0040313607047084B1B681A68D3F8A030000600F04070D050034A97
:401D4000136823F004031360704700BF10E000E0F0C7020810B50C46002304E000210A4A42F823100133042BF8D9084A084BDA63FFF7D4FF24F07F44064B5C6000229A6075
:401D8000FFF7C0FF10BD00BF147A0208D91C08100040020810E000E00346042805D8044A52F8200042F8231070470020704700BF147A0208042803D8024B53F82000704751
:401DC00000207047147A020800287DD00346002A7CD070B45068000280B29568AD0405F480252843D468240404F4403404431069000600F0E0602043147F0CB1012400E0FB
:401E0000002420430C1DA4011851D06828B903EB81100024C0F808410CE0012805D1146803EB8110C0F8084104E003EB81100124C0F80841106938B9546903EB8110C0F859
:401E40000C419469C0F81041146803EB8110C0F81441906CB0F1FF3F17D0946A04F00F04166B360206F470663443956B2D0405F470252543146C2403A4B22C430001C0B23A
:401E8000204303EB8114C4F82001506A00F00300D66A360106F030063043556B2D0205F440752843D46BA401E4B20443506C800000F00C00204303EB8113C3F82401126A5A
:401EC000C3F83821002003E0024870470148704770BC70470100B600014B1860704700BFF0C70208064B5A68596B01325A60C2008A18596A51600021117058627047C04680
:401F0000F4C702080F2330B542680E4CD90009190D6C2100AA4202D2013BF7D211E00F2B0FD82468A21A0A608268C068002A00D05060002801D0026003E00833DB00CB18B0
:401F40005A6030BDF4C70208F8B5284C0600E368A26B013B0818D3180D00984206D80368002B03D14368F618FFF7CCFFA36B9D420BD92B1F1F68EF1B3B68002B05D17B6853
:401F80003800F6183D00FFF7BDFF0F23DA00A218126C964202D2013BF8D225E00F2B23D80833DA00A21850680022A91904392A606E60A8602D610E6029000831904200D0B4
:401FC0004160EA602200DB00E318A860596023682932F31823601278002A05D1E268D31AA268934200D9A3603000F8BDF4C70208F0B5234B87B09C6BDB680490013BE31844
:40200000039323686568002B30D1039B6719BB422CD93B680293002B28D0194EDB00726B9B5C012B22D17B6820000193F36A0593FFF768FF3B68726BDB00D3185C60019A50
:402040003900200005F04DF8029B059A934202D1736B5B1B7363019B2800E118FFF774FF049B002B01D0984206D2019D039B6419A342C6D8012000E0002007B0F0BDC04685
:40208000F4C70208002806D0034BDA6B0260002A00D05060D8637047F4C70208034BC0005B6B1818406808307047C046F4C70208064A10B5D3690133D361526BC300D3187D
:4020C0001A7801321A70FFF7E9FF10BDF4C70208036810B5083B094C1B68626BDB00D3181A78012A04D9E169002901D00139E161013A1A7000230360180010BDF4C70208F4
:402100000322024B9143186059607047287A020810B5041E0BD0064B5A6BC300D3185B6819005868FFF710FF2000FFF7DBFE10BDF4C70208F7B5224DEB6A002B07D1214B3E
:4021400099685868083104F097FF841C03E02B691C1DDB08E418E00000F0CAF80126071E2CD06A6BC300D3185E68EB6A083601932B69696BDA00144B30001B68984729699D
:402180006E630B00CA000432EF62B218601E834203D2013313600832F9E7DB00F31800265E60074B5A685962511A091959601C61019BB34202D01800FFF7AAFF3000FEBDEE
:4021C000F4C70208287A0208E442020870B5184C230028331A78002A29D101321A70154B0F32DA609A68002A02D15A6892089A605A2210252262002228009040D1006118FB
:4022000001320864102AF7D15868196803000125143BCB180E3A22616363A163E0605D6065626560FFF790FEFFF784FF256370BDF4C70208287A0208F0B5040085B0FFF74C
:40224000C5FF0323294E03349C43376C201DB84200D30700F26B1400002C06D0231F196823688F4232D01C00F6E7F268B36B944663440193043B02931B680393039A019BF3
:402280009D1A2B68002B06D02000FFF7B1FE029B1D68019B5D1B2B68002B23D16B689F4220DC28001C1DFFF72DFEF368E41BDB1BF36073692C19DB1973616B68D81B02D0D0
:4022C0002900FFF741FE231F1F600BE0002B01D0616859606168002900D00B60A24201D12368F363200005B0F0BDC046F4C70208F0B585B00400FFF769FF3C4D2E6CB442F0
:4023000003D3032303349C4326002B680C360196B34241D32B6B6A689A420FD96B686F6A013B6B60FB0003936B6BFA009B185A686A6201221A70002F0AD12DE0013B2B63E1
:40234000FFF7F8FE2B6B01332B630028E6D023E00F23DA00AA18126C964201D2013BF8D21A00DB004433EB180F2A0DD81968002907D08C68002C04D061688E420ED9A168B0
:40238000F5E701320833EFE73000FFF731FE0028DED03800FFF7A6FD002723E0636802939E1B2B6C0C339E4201D2029B01932000FFF7A8FD6B6B039A9B185C60019B019A30
:4023C00063600023A360019B2760E1180B1F24611A601300029A934204DA1300019A981AFFF7B2FD380005B0F0BDC046F4C70208002310B5984202D0FFF77AFF03001800C5
:4024000010BD000037B50500FFF7F2FF041E0AD0FFF74EFE054B01901B682A000021984701A8FFF755FE20003EBDC046E8420208514BF0B51B688FB0DA69D469A589A84249
:4024400008DBE189814205D32168451B09910121494215E0A168002900D184E00D88A84200DA80E04E8886427DD3451B4968A8B266688000081809960021455E0221415E43
:402480000891691C6FD022215E5E2420195E0691127E0A92A27C0A9951430C91227C0B922A229B5E1800079301F0C0FA324F0D903A680699D369926B300005920C9A5543D6
:4024C000099A551904950125A27C02950392DA7E01929B7E0B9A00930A9B01F013FC089B01331BD00220079B184301F09FFA3B680899DA699B6B300005930C9B4B4309994A
:40250000CB180493A37C02950393D37E06990193937E0B9A00930A9B01F0F4FB164D2B68DB695A7E1B7E9A4217D9079B022B14D00420584001F07AFA2B68069AD8690B9920
:40254000437E057E9B18827E51438A19C17E069869430918300001F0C5FA6B4634229B18187801F063FA044B617C1A68538CCB1853840FB0F0BDC046CC420208044B1B6868
:40258000DB69DB69002901D01A7C0A60587C7047CC42020802230B80704710B5C3699A89914203DBDA8901208A4210D29B68181E0DD01A880020914209D35C888C4206D386
:4025C000891A5B688900C85AC04380B2C00B10BDFF2230B5040014400A40A21A92B213B2002B01DA524213B25B431D00FF23020A1A4014000A0A1340E21A92B213B2002B43
:4026000001DA524213B2000C5B43090C411A89B208B25B19002801DA494208B280B24043C01830BD70B500282CD0002926D0002A25D013880D881C1C2EB21BB2B34200DDB3
:402640002C1C048053884D881C1C2EB21BB2B34200DD2C1C448093888D881C1C2EB21BB2B34200DA2C1C8480D388C9881A1C0CB21BB2A34200DA0A1CC28003E01100082239
:4026800004F024FD70BD00280DD0038889B2CB180380838892B2C91843888180D3184380C388D218C2807047024B1B685884998400207047CC42020830B503000222845E29
:4026C00006200A5E0020944213DC02228C5E06255A5F94420DDC00229C5E04254A5F944207DC00228A5E0421595ED00FCB179142584130BD10B501F04FFE01F0C9FE02F062
:4027000027FC10BD10B501F0B1FC10BD10B501F0B5FC10BD084B10B51880084B0A001980074B08491B685B7C9B005B58D9680C6A01001800A04710BDDCC80208CCC8020884
:40274000CC42020804C9020870B50024094D0A4E10C53368210028007022984733680422210006489847064B1D60064B1C70064B1C6070BD387A0208E842020804C90208CE
:40278000CC420208ECC80208C8C80208014BD8607047C046CC420208F0B50700160085B00C000420019301F041F9114B00901A68D36CDD199E19176D019B3C19FF1802ABD7
:4027C00018001D809E805C80DF8002F041FB002804D1009801F02AF905B0F0BD3B0032002100280001F07EF902F082FAEFE7C046CC420208002110B50800FFF755FF034A8D
:40280000034813000100FFF7C7FF10BDFF3F000001C0FFFF024BDA6FD86742607047C046387A0208084B10B51A68002A0AD101321A60FEF797FCFEF7CFFC0448044B036031
:40284000FFF7E8FF10BDC046387A0208B87A02084927081070B5FFF7E5FF2E22314B1A70FEF7B6FC304C314D2100314B0C3123672B681A1DDA630432A2619B631B645B7C3A
:402880002C4A9B009858C3681B6B98472A4B6366EB6823622B680833A36101232377E37702F04AFC2300032268331A70234BE064606F6363A36301F0D9FBA86801F0DEFBF6
:4028C0001F4A204B1A6001F033FB050001F002FD060001F005FD002E01D0002808D101F0E9FC060001F0EBFC0100300001F0ECFC00210800FFF70EFF02F078FBA36F002BF1
:402900000AD0A36F002B07D01B68002B00D09847A36F5B68A367F4E701220B4B28001A7070BDC046BDC80208387A0208CC420208347C081004C902082C7C0810785634FF71
:40294000487C0810FCC80208E4C802080300002083420ADC054A9B009858002805D0C3681B68002B01D00068F7E7704704C9020810B5FFF787FB10BDF8B506000D001700F3
:402980001C1E01DD00201BE01C20FFF755FC0028F8D0002D01D005610BE00A4BA200D358002B06D01A68002A01D01300FAE71B690361002384618782C66003604360836086
:4029C000F8BDC04604C9020883690C499A0010B554580368A04204D15350002B01D000225A604268002A00D013600368002B00D05A6000230360436010BDC04604C9020852
:402A000030B5002801D101203BE08269002AFADC1C4B19788A4201DB012119701A49920053580D00002B02D15050180029E05968002901D00B00FAE7C1680968DC682468C8
:402A40008C4203DD1B68002BF8D1DCE78C420AD1848A012C07D11C68002C04D02300E4682468A142F7DD5968002902D00860416000E0A85058600022984200D01A000260DF
:402A8000002030BDB5C8020804C9020870B51C00FFF772FF051E0AD0FFF7B2FFEB681B68002B04D1034B16341B68A400E550280070BDC046CC420208044B10B51A68002A62
:402AC00000D1186000F00EF810BDC046C87A02080078704701207047012070470170012070470000034B10B51B68002B00D0984710BDC046287B02080200FF231100000A21
:402B0000194010B51840120C40181340C0188030FF30024904F0C2FA10BDC046FD020000002800D000487047FFFFFF0001207047F7B58068C46A856B624307245218D20840
:402B40000192026A0C409200002D18D080212141CCB2A446C94301248218151F019E2D68AD192F783E000E40234201D066463E436400043A2E70E4B29042EED117E00121E9
:402B80000D00A540ECB2A446ED438218141F019E2468A41927783E002E400B4201D066463E434900043A2670C9B29042EED1F7BD70B5072584680D40E36AA06B5A43236A37
:402BC0005218D2089B00002810D0802129410020CDB20121E318043B1E68B65C2E4200D008434900C9B29C42F5D10EE001210E00AE40E318F5B2043B1E68B65C2E4200D098
:402C000008434900C9B29C42F5D170BDF8B50D0016000400FFF7CCFF070023699B6898473B003200434029002000FFF781FFF8BDF0B580688BB00090066AC06A5B1A42435A
:402C40005F1CA44B5218D2081B680190039200981A7C806BD20779D50722082311405B1A002839D0F8321000DD1B0841AA40C4B21040C2B238009F4200DD1800381A009DD6
:402C80000190B00028189F4200DB221CD3B29C46FF25031F039A1B689B183A00002905D064461A7862401A70019A0133072A05DD1E78083AF6431E700133F7E7002A06D0E6
:402CC0000824A21A2C0094401E7866401E70009B04388342DDD1FAE0FF221000DD1B88402A41C4B21040C2B238009F4200DD1800381A009D0190B00028189F4200DB221CF0
:402D0000D3B29C46FF25031F039A1B689B183A00002905D064461A7862401A70019A0133072A05DD1E78083AF6431E700133F7E7002A06D00824A21A2C0014411E7866403B
:402D40001E70009B04388342DDD1C0E00722DB6B11401B68FF22019308230491591A130000285AD00498CC1B0341A2401A40D8B2D3B23A008F4200DD0A00BA1A09928F4207
:402D800000DB031CDAB2DB435BB20893012307920293013E009AB300D458039B3D00E418049B002B0BD02278089B019902981340014201D0079B1343099D23700134072DCF
:402DC00014DD029A0199444B11404A1E91412B400593059A414B49421B68D2102000C9B206929847069BE418059BED1A002D0DD0082321785D1BF733AB400A000198029D81
:402E00009A43284201D00B43DAB22270029B5B00DBB20293002EBCD159E00498CC1B834022411A40D8B2D3B23A008F4200DD0A00BA1A09928F4200DB031CDAB2DB435BB20B
:402E40000893012307920293013E009AB300D458039B3D00E418049B002B0BD02278089B019902981340014201D0079B1343099D23700134072D14DD029A0199164B1140E6
:402E80004A1E91412B400593059A144B49421B68D2102000C9B206929847069BE418059BED1A002D0DD0082321785D1BF7332B410A000198029D9A43284201D00B43DAB281
:402EC0002270029B5B00DBB20293002EBCD10BB0F0BDC046CC420208F8FF0000E8420208F8B505000E0014001F00069B9C4207DC22003B0031002800FFF79AFE0134F4E711
:402F0000F8BD002382680B804B80D36A013B8B80136B013BCB80704700B58368481E0D2818D804F095F8090B0D0F17171711131A1A070707002011E0586A0FE0986A0DE0FA
:402F4000D86A0BE0186B09E0186A07E001201B6A984003E00120404200E0012000BD000009390020062902D8014B8900C8587047707C081010B501290FD1094B1B68587CF8
:402F8000FFF7E4FC03699B68984701F0E8F9054B012803D0044B082800D00023180010BDCC420208E47C0810587D081010B5002206218069FEF748F910BD10B500220521F4
:402FC0008069FEF741F910BD73B504000E00150000210822684604F09FF86A460321A06900960195FEF730F973BD0000F7B51D000F4B14001B6806001A7C0F00D20708D5A7
:40300000A54213DB220039003000FFF7FFFD0134F6E7DB6B1B680193AC4207DC2200019B39003000FFF784FD0134F5E7F7BDC046CC420208F0B591B00193179B0390581E48
:4030400006910592072801D900F05EFC04F00AF8230021005C041F005C045C045C0408000723069A1340802211001941C9B29A40099101219940D3B2199A0A939446019B8F
:40308000C9B263440293059B07910893FBE2059B50E2059BB0E11A9A069B9446634409930723099A134080221A41D2B20A9201229A40D3B20C93059B0793059A079B9B1AA6
:4030C000169A9A4201DC00F01FFC1B9BBE4C5B680693039B9B680293D96A1A6A079B5943099BC918CB08049303232168087C1840022800D1A1E0984200D10FE1012800D17A
:403100000CE11B9B06981B680893834210D1CB6B089A1D681A60099A019B09999B18013B079A0398FFF784FD2368DB6B1D6043E1029B92009B6B002B3ED00127029B9E18D5
:4031400008990FAA394011700699049B39405170321F12680A99D218019B1A989C46199B0B936346002B20D08025054113780D930B9B1C782C40651EAC410FAD2D5D0D9CCA
:403180008C43002D01D00D9C0C4301301470082803D10B9801300B900020490801D10132803101235B429C44DBE7029B7A00043ED7B2B342C4D1FFE00127029B9E18089931
:4031C0000FAA394011700699049B39405170321F11681A98C918019B0C9A9C46199B0B936346002B22D0802505410B780D930B9B1C782C40651EAC410FAD2D5D0D9C944321
:40320000002D01D00D9C144301300C70082803D10B9801300B9000205200D2B2002A01D10131013201235B429C44D9E7029B7A00043ED7B2B342C2D1BEE0029B92009B6B7B
:40324000002B34D0029B9A1801230893089B06990A9819400B91111F0968049B019D1A9C199EC918002D19D08023234137783B4209D00B781F009C460B9B8743002B01D0FA
:40328000674607430F700134082C01D100240136400801D101318030013DE3E7089B043A5900CBB20893029B9342CFD184E0029B9A18012308930899069B019D0B40111FCD
:4032C00008680B93049B0C991A9C199EC018002D1BD08023234137783B4209D003781F009C460B9B8F43002B01D067460F4307700134082C01D1002401364900C9B200292A
:4033000001D101300131013DE1E7089B043A5900CBB20893029B9342CDD14DE0029B92009B6B002B23D0029B9A18111F0968049B0A9C019D1A98199EC918002D12D08023A1
:40334000034137783B4202D00F7867400F700130082801D100200136640801D101318034013DEAE7029B043A9342DED124E0029B9A18111F0868049B0C99019D1A9C199E00
:40338000C018002D14D08023234137783B4202D007784F4007700134082C01D1002401364900C9B2002901D101300131013DE8E7029B043A9342DCD1189A199B9446634491
:4033C0001993079B013377E6CC4202081A9A199B944603221C78069B63440493C34B1B681B7C134010D0022B4DD0189A199B944663441993029B01330293059A029B9B1A6D
:40340000169A9A42E2DC7FE21B9B1A9D199E0499002B23D003235A1B5200DB18981ABA3303412340D3401B9A9B009B580398029A01354F1CFFF77CFB042D02D1002574782C
:403440000136019B049A39009B189F42E2D1CCE7019B049A39009B189F42C6D003235A1B5200DB18981ABA3303412340D3400398029A01354F1CFFF75BFB042DE8D17478D8
:4034800000250136E4E71B9B1A9D019E199F002B27D0019B049A991803235A1B5200DB18981ABA3303412340891BD34006D01B9A9B009B580398029AFFF73AFB0135042D55
:4034C00002D100257C780137013E002EE1D18CE70135042D02D100257C780137013E002E83D0019B049A991803235A1B5200DB18981ABA3303412340891BD340E8D0029AAF
:403500000398FFF715FBE3E71A9A199B944603221F78069B63440493744B1B681B7C134010D0022B4DD0189A199B944663441993029B01330293059A029B9B1A169A9A4277
:40354000E2DCE1E11B9B1A9C199D0499002B23D001231A1B9200CE180333981AEC3303413B40D3401B9A9B009B580398029A0134FFF7DEFA022C02D100246F780135019BE9
:40358000049A31009B189E42E2D1CCE7049B019A31009B189E42C6D001231A1B9200CE180333981AEC3303413B40D3400398029A0134FFF7BDFA022CE8D16F7800240135C4
:4035C000E4E71B9B1A9C019D199E002B27D0019B049A991801231A1B92000333981AEC3303413B40491BD34006D01B9A9B009B580398029AFFF79CFA0134022C02D10024D4
:4036000077780136013D002DE1D18CE70134022C02D1002477780136013D002D83D0049B019A991801231A1B92000333981AEC3303413B40491BD340E8D0029A0398FFF79E
:4036400077FAE3E7039B08989B680193019A1B6AD16A4143069809180320C9080491234909680B91097C014014D0022900D1ABE0189A199B944663441993089B0133089364
:40368000029B63440293059A089B9B1A169A9A42D8DC39E1019A1B98916B9B0000284ED0002925D00124D318191F04980968199D09180998029A954211D02E780F781B9A94
:4036C000B600B2583E008643224201D03E0006430E70400801D1013180300135EAE7019A6400043BE4B29A42DED1C1E7CC4202080124019AD318191F0868049A199D079960
:403700008018029A954213D02E7807781B9AB600B2583E008E43224201D03E000E434900C9B20670002901D1013001310135E8E7019A6400043BE4B29A42DCD198E7019A1A
:403740000124D318002938D0191F0968049A199D09988918029A95420ED00F782A783E008643224201D03E0006430E70400801D1013180300135EDE7019A6400043BE4B234
:403780009A42E1D174E707782A783E008E43224201D03E000E434900C9B20670002901D1013001310135029A9542ECD1019A6400043BE4B29A4200D15AE7191F0868049A26
:4037C000199D80180799EEE7019A9B00916B1B9A002A4FD0019A0124D318002937D0191F0968049A199D09988918029A954213D02E78002E0AD00F781B9AB600B2583E007E
:403800008643224201D03E0006430E70400801D1013180300135E8E7019A6400043BE4B29A42DCD124E72E78002E17D14900C9B2002901D1013001310135029A9542F2D1D2
:40384000019A6400043BE4B29A4200D110E7191F0868049A199D80180799EEE707781B9AB600B2583E008E43224201D03E000E430670DBE7019A0124D318002934D0191FB8
:403880000968049A199D0A988918029A954210D02A78002A07D00F783E008643144201D03E0006430E70400801D1013180300135EBE7019A6400043BE4B29A42DFD1D7E62F
:4038C0002A78002A17D14900C9B2002901D1013001310135029A9542F2D1019A6400043BE4B29A4200D1C3E6191F0868049A199D80180799EEE707783E008E43144201D09E
:403900003E000E430670DEE711B0F0BD70B505680400002D0AD13C20FEF78EFC2060002804D0044B3C221B682900984720684342584170BDE842020870B504000830FFF7C4
:40394000E5FF002205000121A069FDF77DFC284370BD73B504000D00160000210822684603F0DAFB20000830FFF7D0FFA368002B0CD05A6B002A00D15D635D629E626A46DE
:403980000721A06900950196FDF75EFC73BD70B5050008300C001600FFF7B8FFAB68002B02D0DC621E635C6370BDF7B50500002708300E000197FFF7A9FFAC68BC4213D0F7
:4039C0002B699B68984700F091FC3B002062F258E2500433202BFAD1E36A01AA63630221A8690196FDF730FCF7BD70B5040008300D00FFF78BFFA368002B01D02A689A636D
:403A000070BD000070B5084B1B681A7C11004140490705D59C6BD96B25680E6826600D601874100070BDC046CC42020810B5024B1B689B68984710BDDC42020870B5144BF4
:403A400005001B680A000A20195E91421EDC0E20195E8A421ADC0820195EA94216DC0C20195E8D4212DC5C7C187C0A49A400C00705D508592900C368DB69984706E00859E0
:403A8000DB6BC1681B688C692900A04770BDC046CC42020804C9020870B5104B0D001C680A21635EAB4217DC0E21635E9D4213DC0823E15E814200DA01000C20235E9342C8
:403AC00000DD1300994207DC627C054892001058C26894682A00A04770BDC046CC42020804C9020873B51E00114B0D001C680823E15E814200DA01000C20235E934200DD00
:403B000013008B4213DB0A20225EAA4200DA2A000E20255EB54200DD3500AA4207DC607C044C80000059C46800952469A04773BDCC42020804C90208F0B517006E4A91B086
:403B40001268069308900C001C9B002A10D01B9B05931A9B0493199B0393189B0293179B0193169B00931568069B3A00A847C1E016991798014301294FD1604A069D10687E
:403B80000A21425E111B002909DD6D1A002D00DCB0E0199E71431A9E71181A9100E02200069964180E26815F013C641A002C03DD2D1B002D00DC9DE008990C26845FC9192A
:403BC0000139091B002900DD7F1A08990826845FC91AA1420CDA641A1B199C46DE101A9B3F1B9E191A9607266346B44309193340002F7FDD407C424C800000591B9EC4687D
:403C000004931A9B05960393199B00950293189B019364683B00A0476CE00823160018990A925B1A0E930A9B069A934262DA179BE3180C93013B0D93304B1B680A215A5EA5
:403C40000D998A424CDC0E229B5E9C4248DC00251A9B09950B93089B0793099BBB423FDA002D04D10B9B08351E7801330B9333000E9A1899134132008A40D6B2DAB26D1AAE
:403C8000002A05D102211D4A1268127C0A421ED11A4A1268D26B11680F911B99002905D0FF210B401B999B005B5801E0FF210B401360169B21005A1E079B0798D2180D9B08
:403CC000FFF710FF0D4B0F9A1B68DB6B1A60169A099B944601330993079B63440793BCE7199A0A9B944601330A931A9B0C9C63441A9398E711B0F0BDC0C80208CC420208AC
:403D000004C90208F0B593B008937E4B06001B680C0006921A9D1C9F002B0ED01D9A049705921B9A02950392199A0192189A00921D68069A089BA847E1E0189A19990A433B
:403D4000012A6DD1704B19680A228B5E089A9C461B1B002B07DDD21A002A00DCCFE01B984343FF1800E0A446089BE4180E200B5E013CE41A002C03DD121B002A00DCBEE0B7
:403D8000069B0C24085FF318013B1B1A002B02DD0698C31A06930823C85E0023864228DA069C831BE41A0694082D1FD009DC022D0FD0042D15D0012D1BD1D8103F1807206E
:403DC0000AE0182D11D0202D0FD0102D11D15B000CE098103F1803201C0084433619034007E058103F180120F6E79B00FF18060000230698002800DC81E0497C434889002F
:403E000008581D9CC16804931B9B009202930594039701954C68069B62463100A0476EE00822521B109207930C930C9B089A934265DA199BE3180E93013B0F93324B1B68A3
:403E40000A215A5E0F998A4252DC0E229B5E9C424EDC00230D9709960A930B930B9B069A934245DA0A9B002B07D10D9B1B7807930D9B01330D9308230A93079B109A134150
:403E8000079AAA40D2B207920A9A521B0A92DAB2002A05D102211C4A1268127C0A421ED1194A1268D26B116811911D99002905D0FF210B401D999B005B5801E0FF210B40B1
:403EC0001360189B21005A1E099B0998D2180F9BFFF708FE0C4B119A1B68DB6B1A60189A0B9B944601330B93099B63440993B5E70C9B0E9C01330C931B9BFF1895E713B032
:403F0000F0BDC046C0C80208CC42020804C9020810B5054B054A19684B7C08319B009858C3681B6B984710BDCC42020804C9020807B5FFF7EDFF00F0B7F800283AD1FEF72C
:403F400005FD0190002807D100F006F91A4A1B4B12689A420ED12CE0C3680C215B6A01A8984703000120002B24D0019898470028EAD01FE00020FEF7E9FC0190002818D0D8
:403F8000002001F08DF90420FFF750FD00210C4B08001A00FFF7A6FD0020FFF747FD019B0E21DB6801A85B6A9847031E01D00198984700200EBDC046AC7A0208785634FF8F
:403FC000FF3F000010B5054B054A1B685B7C9B009B581B691B68984710BDC046CC42020804C9020810B5054B054A1B685B7C9B009B581B695B68984710BDC046CC42020832
:4040000004C90208044B1B681A7C520701D59B6B00E0DB6B18607047CC420208054B10B51B681A6B824204D01863FFF7CBFFFFF7E9FF10BDCC420208044B1B681A7C52072B
:4040400001D5DB6B00E09B6B18607047CC420208054B10B51B685A6B824204D05863FFF7B1FFFFF7E9FF10BDCC42020810B5024B1B685B68984710BDDC42020810B5024BA0
:404080001B681B68984710BDDC42020810B5044C2068FDF7F7FF0023024A2360136010BD10C90208307B020870B500240A4D2B68A3420FD1094B18688000FEF7BDF8286057
:4040C000A04206D00648074B04300360FEF7A2FB00E00124200070BD10C90208E0420208307B02088D400810F7B5051E28D08768381E25D0134C2068002821D080232A680E
:404100005B0000209A421BDC0F4B00921B689A4200DD00930026009B9E420ADA2268B300D218F8580192FFF74DFF019B01361860F1E7064B1B68002B01D028009847206823
:40414000FEBDC04610C90208E0420208307B020810B5FFF7C9FF10BDF7B500F015F900240090009B9C422EDA2000FEF7EFFB002827D0154E200033685A7C5C74019200F026
:4041800046F8082804DD6A46336812795A7418E00E4AA300D2580E4B12699A42F3D0200000F03AF800250700BD42ECDAFF202840FFF718FFE9B20200200000F00FF90135CA
:4041C000F2E70134CDE7F7BDCC42020804C90208CC7C081010B50C00FEF7B8FB002803D0C2682100926A904710BD002310B5984202DCFFF7EFFF0300180010BD10B5010069
:404200000020FFF7E7FFC343DB17184010BD10B50821FFF7EAFF10BD10B50921FFF7E5FF10BD10B50E21FFF7E0FF10BD10B5034B1B68587CFFF7F0FF10BDC046CC42020865
:4042400010B5034B1B68587CFFF7EBFF10BDC046CC420208044B800010B5C0580821C3689B6A984710BDC04604C9020810B5FEF76DFB002803D0C2680221D26A904710BD31
:4042800010B5034B1B68587CFFF7F0FF10BDC046CC420208024B8000C3581B695868704704C90208024B8000C3581B691868704704C9020810B50120FFF7A0FF10BD10B583
:4042C0000220FFF79BFF10BD014B03C37047C0463C7B0208014B18687047C0463C7B0208014B58687047C0463C7B02080023984233D0020001339A432FD00322010001336F
:4043000091432AD00100053399431300002924D002000C339A430B3B002A1ED002001B339A431A3B002A18D00200FA339A43F73B002A12D0420A0833002A0ED0020B0CD098
:40434000C20B0AD0020C08D0820C0233002A04D0000E0633002800D008331800704710B5FFF7C4FF030001280DD0821E0820062A09D9073A0018072A05D900200F22113B40
:404380009A424041400110BD10B50020FEF7DEFA431E984110BD00000E4B10B51C001A680D49527C92005058002809D0C368002B02D01B68042B01D00068F5E7FEF704FBDB
:4043C00000222368DA651A0008325A61FFF7A0FD10BDC046CC42020804C9020837B50C001500FEF7B3FA0190002801D101200BE0C36810215B6A01A89847031EF6D00198FE
:404400002A002100984700203EBD37B50C001500FEF79CFA0190002801D101200BE0C3680B215B6A01A89847031EF6D001982A002100984700203EBD13B50C00FEF786FA56
:404440000190002801D101200AE0C36809215B6A01A89847031EF6D0019821009847002016BD37B50C001500FEF770FA0190002801D101200BE0C3680A215B6A01A89847EB
:40448000031EF6D001982A002100984700203EBD10B5074C2368186BFFF794FDFFF7B2FD2368586BFFF78EFDFFF7C6FD10BDC046CC42020870B50024134B144D1C60144B8F
:4044C00014481C60144B04701C60144B44601C60134B84601C60134B21001C60124B18221C600C302B689847104B21001C60104B08221C600F482B6898472B6808222100FC
:404500000D48984770BDC04640C90208E842020828C90208447B020848C9020850C9020818C9020838C9020844C9020824C902081CC902085CC9020854C90208F0B50400D9
:404540000D00160085B0002C50D02000FDF7B0FD0223876A010001901F4241D002AC002E04D03200200000F066FE02E0230005C905C321002800FEF79FF8002830D00122AB
:40458000019B17421FD1002E09D05A887188131C08B212B2824200DA0B1C1BB201E002229B5E0222A95E06202A5E8B4205DD0221635E9A4214DB013B03E00621635E9A42DD
:4045C0000EDDEB800CE0DF69002F09D0380022002900FFF7B3FF3800FDF760FD076AF3E7019B01A81C6AFDF773FDACE705B0F0BDF0B504000F00002687B00192002C39D029
:404600002000FDF755FD0223856A010003901D422AD0019B04AC002B04D01A00200000F00AFE02E0230005C905C321003800FEF743F8002818D001231D4204D1A3880126B8
:4046400001333B8010E0039BDD69002D0CD0220039002800FFF7CCFF002800D001262800FDF71CFD056AF0E7039B03A81C6AFDF72FFDC3E7300007B0F0BDF0B504000E00AC
:40468000170085B0002C34D02000FDF711FD0223856A010001901D4225D002AC002F04D03A00200000F0C7FD02E0230005C905C321003000FEF700F8002814D001231D423B
:4046C00003D12388013BB3800DE0019BDD69002D09D0280022003100FFF7CFFF2800FDF7DDFC056AF3E7019B01A81C6AFDF7F0FCC8E705B0F0BD0000F7B506000D000227D6
:404700002800FDF7D5FC846A010001903C4004D101A8FDF7DDFC230013E0300000F06DFD019B01A89C69002C07D1FDF7D1FC064B1868401B4342434103E0FDF7C9FC2500A0
:40474000DEE71800FEBDC0461CC90208F0B5040085B00D1E4DD0FDF7ABFC00230190036285612800FDF7A4FCC6690290002E05D1C46101A8FDF7ACFC02A838E0019B300073
:404780009D6A0827FDF794FC3D4003900ED1836A3B420BD0019B01A81E62029BDC61FDF797FC02A8FDF794FC03A820E002A8FDF78FFC03A8FDF78CFC3000FDF76FFC0827FE
:4047C0000390039B1E6A002E01D11C620EE03000FDF764FC002D07D1836A3B4204D0039B1C62019B1E6201E00390EAE701A8FDF76FFC05B0F0BD030010B5080002215A5E3B
:404800000021595EFDF73FFF10BD0000114B30B51D6885B0696C0400002916D0082202A802F054FC0C4B1868002800D1A86CFDF73FFC02A90190FFF7DEFF01A8FDF748FCA5
:4048400002A8210000F0D9FC02A802F035FB05B030BDC046CC42020818C902081FB5104B1B681A0054321278002A02D00D48143012E0986CFDF71CFC02AC2300019006C88E
:4048800006C301A8FDF724FC074B1968002902D02000FFF731FF2000FFF7B8FF1FBDC046CC420208447B020818C9020813B5041E22D0FDF7FDFB836A01909B0719D5406A63
:4048C000002808D00D4B1B689C4204D000F06AFD0022019B5A62200000F034FC0400002C07D02000FFF7E2FF2000FDF7D7FB046AF5E701A8FDF7ECFB13BDC0464CC9020873
:4049000003000022815E04201A5E0020914207DC02215A5E0621595ED00FCB179142584170470000F0B585B004000E001500FDF7B5FB876A0190BB0730D53000FFF7E0FF71
:4049400000282BD0164B3B40012B27D02000FDF7AFFB02AC020001903100200000F06BFC2000FFF7CDFF002815D0019B0D4918009A6A08300A4204D022000100FDF752FEB2
:4049800009E042CC42C02A439A62074A138801331380FEF7A7F801A8FDF79AFB05B0F0BD01080000204000002CC9020810B52022FFF7B8FF10BD7FB504000E00150000284E
:4049C00028D0FDF775FB836A020001909B0703D401A8FDF77DFB1DE0310002A800F02BFC0028F5D001A8FDF773FB20002A0002A9FFF798FF200000F0A5FB0400002C09D02B
:404A000020002A0002A9FFF7D6FF2000FDF746FB046AF3E77FBD0000F0B587B007000D0001921C00002932D00800FDF741FB866A02000390B30727D5390004A800F0FBFBD5
:404A4000002821D0134B1E40012E07D1039923000A6A04A88969FFF7DFFF04E0220004A92800FFF75FFF039BDD69002D0CD0019B9D4209D02800220004A9FFF79CFF280095
:404A8000FDF70CFB056AF0E703A8FDF721FB07B0F0BDC0460108000010B52023FFF7BCFF10BD1FB500916946019000F011FB05B000BD00234B800B80028883889B1A8B8020
:404AC000C38842889B1ACB8070470000F0B5050087B00F00002835D0FDF7EAFA866A0190B3072CD504AC230006C806C3F30302D52800FFF7DBFE002F0CD00822390002A873
:404B000002F0E4FA02A90198FFF775FE02A9200000F073FB29002000FFF7EEFD00280ED0094B1E40012E06D1019B20001A6A9969FFF7B2FF03E021002800FFF737FF01A8FD
:404B4000FDF7C6FA07B0F0BD0108000010B50021FFF7BCFF10BD000070B50B4C051E23689E6C01D1094A15689D64FFF7D1F92800FDF794FA23680021425EDA640221425E22
:404B800030001A6570BDC046CC42020830C90208F0B585B00193494B05001F680A9B0E000092002B27D1464B1B88002B28D0454B1B685A1C012A23D90A930A98FDF778FA56
:404BC00003900022835E0222815E009AED187618002A04D10424025FD21A531C0093019B002B04D10622835E5B1A0133019303A8FDF76EFA04E00A9B0133DED100230A9364
:404C00000D982C30FDF7FEFB041E53D02C4A0B9B1F43138801331380FDF74AFA009B02900580ED18019B4680F6180C9B826A0361254B013D3B401343013E83628580C6801D
:404C400002A8FDF745FA214B1868002809D0FDF725FA05002000FDF721FA6B6943616C6100E01C600A992000FFF770FDBB0602D52000FFF771FFFB0703D5154A1368013356
:404C800013607B0602D5200000F06AFA02252F420CD02000FDF70CFA836A02902B43836202A8FDF715FA2000FFF750FF01212000FFF7F7FE200005B0F0BDC04638C9020883
:404CC00014C902081CC902089F3F3F0030C9020850C902081FB5089C0394079C0294069C019400240094FFF753FF04B010BD00000020F0B5534E85B0336854331B78834286
:404D000000D19DE0504A136A1500012B02DD013B136295E002AC2100D36914320133936081CA81C1002B03D1AB892380EB890DE02B8B01331BB22380EA8A628010216A5EE3
:404D40009A4204DAAB8923806B8B013363800223E25E12216B5E9A4204DD2B6A0020013B2B626DE03368986CFDF7A2F90023E25E0C216B5E01909A4217D16B8AE3802B8AC3
:404D8000A38033689A6C002A0AD01000FDF786F9070000222100006AFFF7D0FBBA69F2E7019B2100D869FFF7C9FB2388A38033689A6C002A0CD01000FDF770F90022070074
:404DC0002100006AFFF714FC0028EED1BA69F0E7019B2100D869FFF70BFC0028E5D11022AB5E0021625EA3809A4208DD2B002200143303CA03C301A8FDF76AF9A2E733681D
:404E00009A6C002A0AD01000FDF748F9060000222100006AFFF731FCB269F2E7019B2100D869FFF72AFC01A8FDF752F9074BEA699A4292DC14350CCC0CC5FFF70FFD012053
:404E400005B0F0BDCC420208447B0208204E0000F0B53B4D89B02A680700130054331B78002B03D1FFF7FAFC012066E00120354E336A34000133336283425EDC906CFDF7D6
:404E800017F901235B42F3612F4B02901B78002B02D004AB083005E00223826A1A4001920AD004AB06C806C304AE002F0CD03900300000F0A2F907E0336A02A8013B336297
:404EC000FDF706F9019838E02B68204F596C02A8002918D0029B082206A8039302F0F6F83B68002B06D003A8FDF7F2F83868FDF7DFF8039006A90398FFF77DFC300006A9DE
:404F000000F07BF903A8FDF7E3F83968002904D03000FFF7F1FB002806D02B683000996CFFF7EAFB002803D1236A013B236204E00C340CCE0CC4FFF7DBFE09B0F0BDC046EF
:404F4000CC420208447B020835C9020818C902080122024B1B6854331A707047CC42020810B5040023684068172B0FD007DC0E2B0ED0142B12D1E16800F0CEF80EE0222B17
:404F80000AD0282B0AD1FFF7E1FD09E0E06007E0210000F025F903E0024B00E00023E36010BDC046785634FF036810B504000E2B02D00F2B08D010E0C3685A68012A0FD153
:404FC0001868FDF779FD0BE0064B1868064B984203D0FDF797FBFDF70DFC2000FFF7C0FF10BDC0463CC90208785634FF30B51B4C85B0207800282ED1194BA0601860194B52
:4050000001001B685864184B1880184B188004230293174B019302230093164B1A00FFF759FE154B154A164D1A602860FFF78EFD144800F069F8144800F066F82868FFF786
:405040008BFDFFF785FF0123200023700F4B24306362FDF7DFFB05B030BDC046447B020830C90208CC4202082CC9020814C90208A94F0810FF3F00003CC90208785634FF46
:405080001CC902085CC9020854C90208B544081010B500F05EF80023984202D0FCF7FEFFC369180010BD70B50500FFF7F1FF0400002C0AD0AC4207D02000FCF7EFFF036A72
:4050C0009D4202D01C00F3E70024200070BD000070B50C4C060023680D00132B11DCFCF7DDFF02696E60002A08D0236828000133236090472368013B236002E02800FFF7BD
:405100002FFF70BD747B0208024B1A68026018607047C04640C9020813B50C0000280AD0002908D0FCF7C4FF21000190FFF7C1FC01A8FCF7CDFF13BD014B18687047C046EF
:405140001CC9020810B5002802D0FCF7A7FFC06910BD10B5002802D0FCF7A0FF806910BDF0B5040089B0002838D0FCF7A1FF0200039006AB22CA22C3836A076A03A8019392
:40518000FCF7A6FF2000FFF78EFF051E26D02000FFF7DFFF019B06009B0704D501003A0006A8FFF779FC2000FCF782FF03903000FCF77EFF05902800FCF77AFF059B039A09
:4051C000D96907620490116203A8DC61FCF780FF05A8FCF77DFF04A8FCF77AFF09B0F0BD70B505000C1E07D0FFF7B3FF002803D0A5602100FFF76CFF70BD10B500228B5EB7
:405200000024025F9A4200DA038002228B5E0224025F9A4200DA438004228B5E0424025F9A4200DD838006228B5E0621425E9A4200DDC38010BDF7B513880D881C1C2EB2BA
:405240001BB2B34200DA2C1C0480538825B24C881E1C27B21BB2BB4200DA261C4680938834B28E881F1C1BB2019333B29C46019B634500DD371C8780D388C9883EB21A1CBA
:405280000FB21BB2BB4200DD0A1CC28011B20020B54203DCE00FCB17A1425841FEBD000070B5084D04002B685E7C002807D1FDF74DFB002803D02B685C74FDF71BFA30009F
:4052C00070BDC046CC42020810B5FEF7AFFF802208235200904215D0013B7F2812D8013B3F280FD8013B1F280CD8013B0F2809D8013B072806D8013B032803D8013B834287
:405300009B415B4201209840013810BD70B50400FEF78CFF0500FEF7B3FF0023A54203D9984201D0A4002358180070BDF7B50700FEF77CFF0190FEF7A3FF051E1BD0002032
:405340008300EB58BB4216D0019B01308342F7DC00263400084B0093A300E9583800FDF737F9009B834201D926000090019B0134A342F1DC3000FEBDFFFFFF0013B5002458
:40538000A0420CD0FCF794FE036801901B699B689847FEF7E4FF040001A8FCF799FE200016BD000013B5041E19D00D4B1B68DB6D984201D1FDF79EF92000FCF779FE0190FE
:4053C0004069002801D001F094F9019B1868FDF7CFFA01A8FCF77CFE2000FCF799FE13BDCC4202080248012900D000207047C046E47C08100248162900D000207047C0463D
:40540000A567081010B50068C3681B6A984710BD10B50068C3689B6A984710BD13B580680C00FCF745FE01900422835E23800622815E618002899A18013AA280438901A892
:40544000CB18013BE380FCF743FE13BD0F4BF7B51B680700D86D16000C00FCF729FE050001900422835E0622805EEA68241A5443FB1ADF101834002E02D007229A433260E3
:4054800001A8FCF725FE38192818FEBDCC42020807B50800110001AAFFF7D8FF019B00781841012318400EBD30B5144B85B01B680C00D86D1500FCF7FBFD03AA0190290014
:4054C0002000FFF7C3FF0123039A9340027853400370019B586900280AD0FCF7E9FD836802901B682A002100984702A8FCF7F0FD01A8FCF7EDFD05B030BDC046CC4202088E
:405500007FB51E00154B0C001B681500D86DFCF7CFFD03AA019029002000FFF797FF01231900039A3340914002788A43027003998B4013430370019B586900280AD0FCF7A5
:40554000B7FD836802901B682A002100984702A8FCF7BEFD01A8FCF7BBFD7FBDCC420208F0B587B000932B4B0E001B681400D86DFCF79EFD002303904069984202D0FCF7F2
:4055800097FD030005AA210030000493FFF75EFF01231F001F4905000968059A087C974018421BD02B787B402B700498002804D0836822001B6831009847039B0134DB68C3
:4055C000ED18009B9C42EDDD03A8FCF781FD049B002B1DD004A8FCF77BFD19E0C96B09680B40934001932B78019ABB4313432B700498002804D0836822001B6831009847C4
:40560000039B0134DB68ED18009BA342EBDADBE707B0F0BDCC420208F0B51C00524B8BB01B680591D86D1700FCF742FD059B0790E41A4069631C0393002822D0FCF738FD57
:40564000109B3A00DB1B013300930599039B089001F061F808A8FCF73BFD12E009AA39000598FFF7F3FE040001203F4B099A1B68197C014232D0039B062A11DD002B14DCA7
:405680000137109B9F42E9DD69E0002B0BD0511E0991012191400A002178013B4A402270099A002AF1DA0134E8E7DA1008D0D1005B1AA2182178C943217001349442F9D1B1
:4056C00007220992013BDBD3099A511E0991012191400A0021784A402270F3E70121DB6B039D1B6819400491062A15DC099B002B11DB002D0FD001229A402378013D9343B7
:405700002370099B5A1E0992049A9A401300227813432370EAE70134002DB1DDEE100AD0049B32005942114B2000C9B21B689847A419F600AD1B07230993013DA0D301229E
:40574000099B9A40237893432370099B5A1E0992049A9A401300227813432370EDE707A8FCF7B6FC0BB0F0BDCC420208E842020807B50092FFF750FF07BD0000F0B595B0C5
:405780000593B94B04901B680C00D86D0792FCF78FFC109043690020834202D01800FCF787FC1E9B1190E318039300280BD0AE4B1B681B7C9B0706D11A9B079A009303993E
:4057C000059B00F0A8FF1B9B082B72D11D9B039A079C9B1A0693079B1A9AE31A9A4200DC7EE0A14B1F9A1B68109E1B7C002A2FD00322134003D0022B54D1039D19E0039D2B
:405800003268069BD2685B5D97691F9A9B009B58290022000498B847059B039A01359B18AB42EDD13EE0059B039A01359B189D4238D0069B5B5D002BF5D032689B00D2685A
:40584000290097691F9A04989B582200B847EAE70322134003D0022B24D1039D16E0039D3268069BD2685B5D9769290022000498B847059B039A01359B189D42F0D111E058
:40588000059B039A01359B189D420BD0069B5B5D002BF5D032682900D268049897692200B847EDE71C9A069B944663440693013491E71B9B012B00D0DAE01F9B002B02D1EF
:4058C0006A4B34331F9307231E9A05991A4052180C921E9A0E930592059B0C9A934208DB10A8FCF7F5FB119B11A8002B00D046E247E21E9A039B5C4F9B1A059A119E9B1807
:405900000B931D9BD5105D190E9B134080221A41D3B206933B68D86DFCF7CAFBC368139013A80893FCF7D4FB1F9B12AA1B6807990D931F9B0B985B680A93FFF787FD012385
:40594000129A04009340DBB20493DB43DBB209933B681A7C03231340022B1FD0032B56D0012B54D01A9A297806982378014201D00A9900E00D99002902D004990B4301E035
:4059800009990B402370089B013AE4181C9BED18002AE8D1059B013305939DE7002E1FD01A9F1A9B079A06999A182B78D21B0B420ED00A992378002902D004990B4301E0C1
:4059C00009990B402370B3680B991B6830009847089B013FE4181C9BED18002FE1D1D9E71A9A2B7806990B4209D00A992378002902D004990B4301E009990B402370089B56
:405A0000013AE4181C9BED18002AEAD1C2E7002E19D01A9F1A9B079A06999A182B78D21B0B4208D02378049930004B402370B3680B991B689847089B013FE4181C9BED1877
:405A4000002FE7D1A6E71A9B2A7806990A4203D0227804994A402270089A013BA4181C9AAD18002BF0D195E7CC420208E47C0810119B002B02D011A8FCF72AFB1F9B002BDE
:405A800002D1C14B34331F931E9B079F5A0006231A401E9B0D929A0004231A400E920F93079B1A9AFB1A9A4200DC67E11B9B022B03D0042B00D187E059E1109B1E9C0C9337
:405AC00003231C400F9B0D9A1C1B1D9BE4B21B7893400322DBB20693AC4B1B681B7C134008D0022B00D042E11D9B059E0A93039B0B9365E01D9B059E039D0893B44200DD5F
:405B0000F4B22900361B013CE3B20993099A6B1C9B180B930C9A4B1C12680A93D268069B92699B0914001F9A9B009B5804983A00A047069B0A999B00DBB206930B9B994220
:405B4000E8D1099B01355D19002E00D10FE1089B0424013308931B780693CFE70B9B361B099408933F22069B93430DD00C9A069B12689B09D2689B009269089915001F9A29
:405B800004989B583A00A847089B099D01330893069B013D9B00DBB20693EBB20993002BE0D10B9A013C0132E3B29B180B93002E00D1DCE004240A9B01330A931B780693E0
:405BC000B442CBDDF4B2C9E71D9B0E9A1B78032193406E4A109D1268DCB2127C0A4002D0022A66D0C3E01E9B002B16D0039B2409013309932B68A400DB683A009E691F9BD1
:405C00000399E3580498B047059B013B06931D9B013308931D9B5C7805E0059B06931D9B0893039B0993069B012B35DD5B100B930123069A1A4006920B9B089AD3180C9357
:405C4000099B0A932A682309D2689B0092690A9916001F9A04989B583A00B0470F231C402B680A98DB680A999B69A4001E001F9B0230E3583A000A9001310498B047089B51
:405C8000013308931C78089A0C9B9A42DAD10B9B099A5B009B180993069B002B67D02B682409DB68A4009D691F9B3A00E35809995BE01E9A002A19D0F02213420AD02B6863
:405CC0002409DB68A4009E691F9B3A00E35803990498B047039B01330693059B013B08931D9B013309931D9B5C782FE0059B08931D9B0993039B069328E023000F2293432E
:405D00000BD02A682309D2689B009269069916001F9A04989B583A00B0470F231C400BD0069BA400591C2B683A00DB6804989B691E001F9BE358B047069B02330693089BDD
:405D4000023B0893099B01331C780993089B012BD3DC002B0BD0240909D03A002B68A400DB6806999D691F9BE3580498A8471C9A1D9B944663441D93013791E610A8FCF7E7
:405D8000A7F915B0F0BDC046E47C0810CC4202080248012900D000207047C046587D08100248162900D000207047C046A5670810006810B5002802D0C3681B6A984710BD50
:405DC00013B580680C00FCF773F901900422835E23800622815E618002899A18013AA280438901A8CB18013BE380FCF771F913BD0C4B37B51B680500D86D0C00FCF758F947
:405E000001900622835EE41AC3685C430422835EEB1A1833E518441901A8FCF759F920003EBDC046CC42020810B508001100FFF7DFFF007810BD0000134BF7B51B6807009D
:405E4000D86D15000C00FCF733F9290000902000FFF7CEFF3B6906009B689847337858403070009B586900280AD0FCF721F9836801901B682A002100984701A8FCF728F941
:405E80006846FCF725F9F7BDCC42020873B51E000F4B0C001B681500D86DFCF709F9290000902000FFF7A4FF0670009B586900280AD0FCF7FDF8836801901B682A00210061
:405EC000984701A8FCF704F96846FCF701F973BDCC420208F0B52D4E85B0019333680700D86D00911500FCF7E3F8002302904069984202D0FCF7DCF80300290000980393D8
:405F0000FFF776FF336804001A7CD2071FD53B699B689847C6B20398002804D083682A001B68009998472378013573402370029BDB68E418019B9D42EDDD02A8FCF7C8F8BA
:405F4000039B002B20D003A8FCF7C2F81CE0DB6B029A1E68039BD768002B0CD003982A00836800991B689847019B01352670E419AB42F3DAE1E7019B5D1B0135013D267018
:405F8000E419002DFAD1D8E705B0F0BDCC420208F0B51F00284B14001B6889B0DA6B05901268D86D0E000392FCF782F8210006903000FFF71DFF069B0500DA685869BF1B87
:405FC0000492013700280ED0FCF772F80E9B22001B1B0133009331003B00079000F09BFB07A8FCF775F8FF260E9B9C421FDC0122114B1B681B7C13420ED0059B1B699B6876
:4060000098472B003A00C0B21978013A414019700133002AF8D106E0084B03991B683A00314028009847049B0134ED18DCE706A8FCF74EF809B0F0BDCC420208E84202086E
:4060400007B50092FFF7A4FF07BD0000F0B593B00593CE4B0F901B680C00D86D0892FCF727F8002310904069984202D0FCF720F803001193109B10A8DB680C93FCF728F89B
:406080001C9B1198E318049300280BD0BF4B1B681B7C9B0706D1189B089A00930499059B00F039FB08990498FFF7A2FE199B0290082B70D10327089D089B189AEB1A9A4273
:4060C00000DCFFE2B14B1D9A1B681B7C3B40002A2ED0002B04D0022B51D1119E049C1FE01B9A1D99D25C920052580299CA54059A01339A42F4D142E002999200CB181D99ED
:4061000052581A55002E05D0B3682A001B68210030009847059B049A01349B189C422ED0049B1B9A5B42D218125D002AF2D0E3E7002B04D0022B22D1119E049C17E0944B05
:40614000059A1B681B990298984718E00299CB181A55002E05D0B3682A001B68210030009847059B049A01349B189C4207D0049B1B9A5B42D218125D002AF2D0E6E71A9A5E
:406180001B9B94460C9A634494461B93029B01356344029390E71D9B002B02D17D4B34331D931C9B5B000D931C9B9B000E93089B0693089A069B9B1A189A9A4200DC81E2B9
:4061C000199B022B00D1E9E0042B00D18DE1012B00D068E26D4E08253368D86DFBF768FF0321119B1B9A0793059B127803931C9B1090ED1A684B9C5C1C9A14413268127C34
:406200000A40022A22D08A4271D0012A6FD0029A1B99199E0398A84200D92800039D2D1A03951500121820001D9F30408000C059640828700135AA42F5D10398002800D1CF
:406240009FE00131087808251C5CE3E71D9B24225B68029F09936B469B181B780B931B9B0A93049B0993039EAE4200D92E00039B9B1B0393079B002B2BD0002C04D1099B6E
:40628000BF199B19099327E001231C420BD0079B069A9B6809991B68079898476B462C229B181B783B70099B013E013309930137002E11D06408E0E701231C4204D06B4646
:4062C0002C229B181B783B70013E0137002E03D06408002CF0D1BF19039B002B51D00A9B2D4A01330A931B780825D45CBBE70F9B1B699B689847C3B20B931B9B029E0133A0
:406300000993049B0A93039FAF4200D92F00039BDB1B0393079B002B1AD035000A9B991B012369181C4209D0079B069A9B6807981B6898472B780B9A53402B700135640841
:40634000EB1BB342EAD10A9AF319BA180A920BE0F3190122144203D032780B994A40327001366408B342F4D1039A002A09D0099A0949127808258C5C099A1E00013209926C
:40638000C1E710A8FBF7A4FE8DE1C046CC420208E4420208587D0810CC7D081004231C9A9C1A1B9B03221D780D9BE4B29D40C44BEDB21B681B7C1340012B0ED0002B13D08E
:4063C000022B00D06FE1029B119F0B93059B03931B9B0A93049B09934FE01B9A029E03923F22059B94467CE01B9A02989446059B9C4200DDDCB2060022001B1BAF091D9973
:40640000BF007F58013AAD00D2B23770EDB20136002AF3D1013CE4B201340019002B00D141E101329444624604241578E0E72600039B1B1B0393099B07932B003F22934351
:4064400021D1079B013E0133AD00F6B20793EDB2002EF2D1013CE4B20B9A631CD3180B93099B0133E3180993039B002B00D11AE104240A9B01331D780A93039B9C42D6DDB0
:406480006B461C7BD3E7099A0B9B1D999B1AAA099200525807995A54002FD2D0BB68069A1B6838009847CCE7220031001B1B2F006046874302D00F78FF430F70013AAD00DE
:4064C000D2B20131EDB2002AF1D1013CE4B201343619002B00D1E6E00424039A0132157803929C42E0DDDCB2DEE71B9B03211A780E9B9A40724BD4B21B681B7C0B40012B77
:4065000000D1A6E0002B02D0022B39D0CBE01C9B002B0DD024091D9BA400E358029A1B981370511C059B1B9A013B0132447802E00299059B1B9A012B19DD01250F2658102D
:406540002B4015180395B4460D0026091D9FB600F65901322E7066463440A400E459039E6C70147802359642EFD140000918002B00D198E024091D9BA400E3580B7092E0C4
:406580001C9B119D002B1DD0F0231A420DD024091D9BA400E358029A1370002D05D0AB68069A1B68049928009847029B5F1C049B5E1C059B013B03931B9B013307931B9B76
:4065C0005C7816E0059B029F03931B9B049E07930FE023000F2293430FD10F231C401AD1039B0237023B0393079B023601331C780793039B012BECDC1AE023091D9A9B00A6
:406600009B583B70002DE8D0AB68069A1B68310028009847E1E71D9BA400E3587B70002DDED0AB68711C1B68069A28009847D7E7002B38D0240936D01D9BA400E3583B7014
:40664000002D30D0AB68069A1B6831002800984729E01B99022303913F218C461C9A029E9B1A059ADBB2934200DDD3B219003000D21A27006546AF4302D00778FF43077066
:4066800001392401C9B20130E4B20029F1D1013BDBB20133F618002A05D0039B013303931C780223DFE71A9A1B9B94460C9A634494461B93029B63440293069B013377E53A
:4066C000CC420208119B002B02D011A8FBF700FD13B0F0BD0300082010B5814208D01868002803D0C3689B6A984701E00120404210BD37B50500FBF7DBFC01908489013CC6
:4067000024B2848101A8FBF7E3FC002C02D12800FBF7FEFC37BDF7B5050014001F000191531C0093AB6801995E6828003B00B047089B009AE3189342F2D1F7BDF7B5160072
:4067400004000F001500009101932088089B9847099B9847013D01C70234002DF5D1019B1F2B04D81A003100009800F0BDFBF7BDF7B50600150004000F0000910193207858
:40678000089B9847099B9847013401C7631BB342F5D1019B1F2B04D81A002900009800F0A3FBF7BDF0B59FB0051E0B910A9200D17CE3FBF77DFC1790446917A8FBF788FC4C
:4067C0002800FEF7DBFD0D90082802DD002C00D1CCE10024012628001C941D96FBF768FC436919901193C368DF4F0993036908930822835E0C930A22835E129303681B69E2
:406800005B6810933B68587CFDF724FD3B680E90587CFDF73FFD070019A8FBF759FC089B082B08D904230F93089B102B00D93AE302230F9337E3089B012B02D10F931CABD2
:4068400032E30F960D94109BBB4200D1E4E0C64B1B68587CFDF726FD0C9B13909800FBF7C7FD1490002800D120E3280000F0E1FB119B0400002B00D1BCE01800FBF718FC6F
:406880000125099B0A9EE3181A901593159B099A9F1A0A9BF31A1193119A129B934200DCA4E000231A981B938368119A5B691BA998470C9B040083422ED11498FBF7F8FBAA
:4068C000089B01001890082B09D9139B0C9A0193109B380000930E9BFFF730FF08E0139B0C9A0193109B380000930E9BFFF740FF0D9B0B980593189B01950493002303936B
:406900000E9B009502930C9A01233100FDF7FAF918A8FBF7DDFB62E0089B012B58D1002C5DD01B9B0B9A0721D01807221A4006920D9A02950592DA170A40D318DB10FB1806
:406940000493099B220003933100012301950095FDF7F2F81B9B1A981C1983681B945B69119A1BA998470400D9E71498FBF7A0FB1B9B010018900F98089A5843139B38183F
:406980000193109B00930E9B082A24D92200FFF7D5FE0B9B1B9A310098180D9B22000593189B01950493002303930E9B009502930123FDF7A7F918A8FBF78AFB1B9B1A98E1
:4069C0001C1983681B945B69119A1BA998470400002CCAD103E02200FFF7CAFED9E7099A159B94466344159301364FE71AA8FBF76FFB0FE00D9B04900593099B0C9A0393BE
:406A0000089B0A99029301230B9801930093129BFDF778F9149843E2280000F00AFB119B0500002B00D192E01800FBF741FB002401271A90129BA34200DC84E000231A988B
:406A40001B93836822005B691BA998470C9B0600834225D10E940E9B1A985E1C836832005B691BA998470C9B834201D10E96F2E70E9B04951E1B0A9B013619190D9B01970D
:406A80000593099B00970393089B0C9A02930B983300FDF737F9099B0E9C5E43AD1950E0089B012B2BD1002E26D00A9A1B9B12190E920B9A0721D01807221A4006920D9A25
:406AC00002970592DA170A40D318DB10EB180493099B320003930E99012301970097FDF72BF81B9B1A989E1983681B965B6922001BA998470600D6E7099BED1821E0002E5F
:406B0000FAD00A9A1B9B11190B9A0197D0180D9A009705920F9A5343EB180493099B32000393089B02930123FDF7ECF81B9B1A989E1983681B965B6922001BA9984706004A
:406B4000DDE7013476E71AA8FBF7C2FAAEE10D9B04900593099B0C9A0393089B0293012301930093129B39E0CC4202082800FBF79FFA1A900822835E060009930A22835E94
:406B80000E93C368109303681AA81F69FBF7A0FA7B680F93C64B1B68587CC64B8200D3581C6923680C93FDF755FB01230893082805D903330893102801D8023B0893A74217
:406BC00011D100230593109B183603930D9B099A02930123019300930E9B04960A990B98FDF790F862E10D9B202B00D08EE00898099B5843FBF7FCFB0F90002800D155E12F
:406C0000FBF756FA1C902800FBF752FA099B1A909B000D93089B1830DB001193236905000A9E002B2ED0089B022B04D0042B02D0012B08D100E0089B2800099A1C9927696E
:406C4000B8470D9BED18002305930393119B1C9A02930123049201930093099A31000B98FDF750F80A9B0E9A771C9B18BB4201D03E00D8E71AA8FBF72BFA1CA8FBF728FA7D
:406C80000F980DE10A9B1093089B1C9C022B0FD0042B18D0012B21D12F0026000C9B01CF9847099B30700136F31AA342F6D113E02F00099E01CF0C9B9847013E2080023448
:406CC000002EF7D108E02E00099F01CE0C9B9847013F01C4002FF8D10D9BED18109B1C9A5C1C002305930393119B049202930123099A0193009310990B98FDF703F80E9B0E
:406D00000A9A9B18A342B5D01094BDE70D9B102B00D0CBE00998089B5843FBF769FB1090002800D1C2E0FBF7C3F91C902800FBF7BFF905001A9023691835002B02D07B69E7
:406D4000002B08D1089BDB001293099B5B000D930A9B11937EE00823C05E8000FBF748FB0C90002803D0FBF7A3F91B9001E00C9B1B931B9B002B00D18BE0099B5B000D93E6
:406D8000089BDB0012930A9B0F931C9B1193089B022B05D0042B05D0012B11D1013302E0089B00E002232800099A1B997E69B047089B099A11991B982669B0470D9BED1866
:406DC0000F9B1C9A5E1C002305930393129B049202930123099A019300930F990B98FCF791FF0E9B0A9A9B189E4201D00F96CCE71BA8FBF76DF90C98FBF78AF949E0042B3F
:406E00003AD0012B0FD12F00260038880F9B98470C9B9847099B307001360237F31AA342F3D10D9BED18119B1C9A5C1C002305930393129B049202930123099A0193009310
:406E400011990B98FCF75EFF0E9B0A9A9B18A3421FD01194089B1C9C022BD0D12F00099E38880F9B98470C9B9847013E208002370234002EF4D1D4E72E00099F30880F9BFA
:406E800098470C9B9847013F01C40236002FF5D1C7E71AA8FBF71CF91CA8FBF719F91098FBF736F902E000230D93CCE41FB0F0BDCC42020804C9020837B50400084D094ADB
:406EC0002B6869465B7C9B009858C3681B6B984728686A4621000830FEF7ADF937BDC046CC42020804C90208F0B50300082A0CDD0020102A00DD9BE084001C594200013060
:406F00009C528142F8D1012092E0022A62D0042A4DD0012A00D083E040222027944610261A68D201D2B201293ED065465C68A4012C402243022901D1083336E09C686401D7
:406F40003C402243032901D10C332EE0DC68240134402243042901D1103326E008251C69E4002C402243052901D114331DE05C69A50004242C402243062901D1183314E00D
:406F80009C690739650002242C402243002901D11C3304E00124DD6920332C402243027001300029BCD1AEE704330021F7E70F251A681201D2B2012902D10433002104E0C9
:406FC0005C6802392C4022430833027001300029EED198E7040030270C2603251A689201D2B2012919D05868000138400243022901D1083312E09868800030400243032912
:4070000001D10C330AE0D8680439284002431033227001340029E1D175E704330021F7E7002290001858985401329142F9D16AE7F0BD13B5031E08D0FBF73AF8019018301A
:40704000040001A8FBF744F82300180016BD000002B4714649084900095C49008E4402BC704700BF03B47146490840004900095A49008E4403BC7047002902D0B0FBF1F0A9
:40708000704708B14FF0FF3000F01EB80029F8D00246B0FBF1F000FB11217047002902D090FBF1F070470028C8BF6FF00040B8BF4FF0004000F008B80029F4D0024690FBB1
:4070C000F1F000FB11217047704700BF10B5431E0A44914204D011F8014B03F8014FF8E710BD884210B501EB020301D8421E0BE09842FBD28118D21AD34204D013F8014DDC
:4071000001F8014DF8E710BD994204D011F8014B02F8014FF8E710BD02440346934202D003F8011BFAE7704710B5034642B111F8014B03F8014B013A002CF7D11A4400E073
:4071400010BD934202D003F8014BFAE710BD0000F8B500BFF8BC08BC9E467047F8B500BFF8BC08BC9E46704703000000010000000100000000000000050360000400000037
:4071800001000000000000000100000006046000080000005C610208C90308100000007FFFFE0000C0300C0347656E6572617465645F536F757263655C50536F43365C7023
:4071C000646C5C647269766572732F7065726970686572616C2F7363622F63795F7363625F7370692E6800004755495F582E63001027000001000000010000000000000059
:40720000000000008813000000400000000000000000000003000000FFFFFFFF03000000FFFFFFFF03000000FFFFFFFF03000000FFFFFFFF03000000FFFFFFFF47656E65F9
