:020000041000EA
:4000000000400208230100100D00000085010010000000000000000000000000000000000000000000000000000000008101001000000000000000008101001081010010E9
:400040008101001081010010810100108101001081010010810100108101001081010010810100108101001081010010810100108101001081010010810100108101001060
:400080008101001081010010810100108101001081010010810100108101001081010010810100108101001081010010810100108101001081010010810100108101001020
:4000C00010B5064C2378002B07D1054B002B02D0044800E000BF0123237010BD3C06000800000000D0330010084B10B5002B03D00749084800E000BF07480368002B00D127
:4001000010BD064B002BFBD09847F9E70000000040060008D0330010E8000008000000007047FFF7FDFF72B60F4C104DAC4209DA21686268A368043B02DBC858D050FAE7A6
:400140000C34F3E70A490B4A0020521A02DD043A8850FCDC084809490860BFF34F8F00F007F900F01DF8FEE7D4330010EC3300103C0600084C0800080000000808ED00E027
:40018000FEE7FEE700B504207146084202D0EFF3098001E0EFF30880043001F0F1FBFEE710B5034800F06AF9002001F0A3FFFBE70000081010B5002001F05EF910BDC0460D
:4001C00070B56249E0239B00CB580F2213401A00D0329200525807210A40032A05D0042A06D0002A12D15A4814E05A4A106811E01A00C0329200554952581F210A40112ABF
:4002000006D0132A04D0FA20C00103E0524801E080200002002B36D14C4BB222D2009A5801211140B125ED005A59120F032422405B591B0F1C4207D0444C63591B0F032458
:400240002340012B02D102E0012300E00023002B01D0002901D1032A4BD13C4BB022D2009D58AD03AD0B3D495958C904C90C9C58240E01231C40013401F0EEFF68432100ED
:4002800001F0EAFF35E0012B33D1304BC822D2009A5801251540C024E4001A59120F03210A401B591B0F194207D028490B591B0F03210B40012B02D102E0012300E000236B
:4002C000002B01D0002D01D1032A12D11F4DC022D200AB587F210B40A958090A1F263140AC58240C3440584301F0B6FF210001F0B3FFE0239B00154AD3581B0903221340AA
:40030000D840144C6060164B1D692D0AFC32154001351969090E013101F09EFFA060290001F09AFF0500E06020610E4BC0180E4901F092FF20750D4BE818FA21890001F050
:400340008BFFA061C003E06170BDC0460000264000127A00C000000800366E0184050000000021403F420F0040420F00E703000010B5284801F06AFF274CB022D200A358C6
:400380005B005B08A350E0218900635830208343635080235B04A350204A214BE250A02292010433E250FF221E4BE25001F03CFFC0225200A35801218B43A35000F006FBD8
:4003C000FFF7FEFEB0235B055B78002B04D0B0235B055B78DBB200E02123212B03D1124B0022DA605A60114C22008021042000F0E9FD2000103000F07DFE0D4B1A68512389
:40040000D35C002B02D00B4800F0EAFE00F0B2FC10BDC046183300100000264001000200840500008C050000E00023405806000848080008E02300108023024AD3580320C5
:40044000184070470000214010B501F02AFB084980228C58074B2340074C23438B508823034AD358DB06FAD501F01FFB10BDC04600002140FCFF00000100FA0570B50500DA
:40048000830504D0E821FF310F4801F04BFA01F008FB0400FFF7D0FF032801D1FFF7D4FF0A4AB0239B00D55080215058084B03400848034353508823044AD358DB06FAD5C4
:4004C000200001F0F2FA70BD1424001000002140FCFF00000300FA05FEE7C046F0B50025002711E0BB00C658F3B2FF22964308E06A008A181478A419527822700135013BDC
:40050000DBB2002BF4D10137002FEBD0F0BDC0460323064A1360064A136080225201054B1A60054A054B1A607047C04608203140102031409402364001001180000E1F41E2
:4005400010B50A00002101F01CFF10BD10B501F00FFF10BDF0B557464E464546E0B486B03C49A022D2008B58032083438B503A490B681A6885301B58D2181068374B18405A
:4005800010600A68106884241259801802681202120A0260086805680259AA181068034080204000034313600B683E229A5C002A06D02848E02189004258753CA243425067
:4005C0003E229A5C002A06D02248E021890042583024A24342503E229B5C002B07D01D49E02292008B588020000603438B500021012000F073FF0021022000F06FFF0021E9
:40060000032000F06BFF0021042000F067FF0021002000F063FF01A8114903000A0032CA32C312CA12C300F087FF002802D00420FFF752FF07490B4A8B588020000603430E
:400640008B50094801F034F800280FD00420FFF743FFC0460000264048080008FF00FFFF2C240010087F0000400D0300C34CC44BE158C44A0A40E250E158C34A0A40E25033
:40068000E25880252D062A43E250043BE158BF4A0A40E250E158BE4A0A40802189010A43E250E258802109020A43E250B94A1168B94B0B40802149000B431360002001F06B
:4006C00095FDB64BE2581543E550E158012291430A43E2506421002001F06AF9B04B1B683F229A5C022A06D970229A5C03210A40AC49986842509A6874215B5AD218D1682C
:40070000A94B0B408021C9010B43D360A44B1B6873229A5C03200400944070229A5C7221595C15008D402900214302400A43802109060A438021C900986842509A68525823
:400740003F229A5C032A06D970229A5C02210A409649986842509A6874215B5AD2189168914B0B408021C9010B4393608C4B1B6873229A5C0321914070229A5C7220185C46
:40078000140084402143022002400A43802109060A438021C900986842509A6852583F229A5C052A06D970229A5C04210A408049986842509A6874215B5AD21811697A4B7B
:4007C0000B408E21C9010B431361754B1B6873229A5C0321914070229A5C7220185C140084402143042002400A43802109060A438021C900986842509A6852583F229A5C37
:40080000062A06D970229A5C01210A406949986842509A6874215B5AD3185968624A0A405A605F4B1B6873229A5C0321914070229A5C7220185C14008440214301200240EF
:400840000A43802109060A438021C900986842509A6852583F229A5C132A0AD97122985C703A82401100032282400A405249986842509A6876215B5AD21811684F4B0B4017
:400880004F490B431360464B1B6873229A5C0324210091400A007021585C0231595C8840104371229A5C01219140944022000A400243802109060A438021C90098684250DB
:4008C0009A6852583F229A5C332A03D900213D4A986881509A6874215B5AD2181168324B0B40FE2109020B4313602D48016873239C46CA5C703B1C0094407027CA5D722674
:400900008D5DAA40224380242406A24622438024E4008D682A518A6815597A25A846495B51180A6885352A40274D2A430A6001688A68914642468A5A4A441168F825A943E2
:400940001160016862468A5C180090400200C85D8E5DB040104371228A5C93401A0003001343524613438A6813518B681B5906B01CBC90469946A246F0BDC0460000264024
:4009800004050000FEFCFFFFFFFF00FFFFF0FFFFFF8FFFFF00002740FFFCFFFF0C05000048080008080C0000FF00FFFF0C0C0000140C0000180C00004C0C0000FF0000FF34
:4009C000004FC300CC0C0000003F420FF0B58BB09621002000F0ECFF00F0C2FF002814D100F0AEFFC0235B006F4AD358DB0705D411006E4A8B585B005B088B506A496B4A06
:400A00008B588020000603438B50012001F08CFA674A516C674B0B40E82189010B435364536C1B0AFF2213403A2B07D1604A516C614B0B40E82189010B435364FFF78AFD69
:400A40005E4A5F4B1A6000240CE06200121953005C4AD318198B9A8AD88A00041043FFF76FFD01340B2CF0D900240AE0620012199300544AD3185A6E196ED86DFFF766FD6D
:400A80000134112CF2D9504D2900343128003830FFF724FD0F224D4B1A604D4B4D490B604D490A604D4A136001264D4B1E604D4B1E604D4A1368832149000B43136001AC81
:400AC00022002B003C3383CB83C283CB83C283CB83C22100454800F055F924220021200001F04FFC01962100414800F04BF922002B00603323CB23C223CB23C223CB23C204
:400B000021003C4800F03EF93B4D22002B1D43CB43C243CB43C243CB43C22100374800F031F924220021200001F02BFC862301932100334800F026F922002B00283343CBC7
:400B400043C243CB43C243CB43C221002D4800F019F922002B004C3343CB43C243CB43C243CB43C22100284800F00CF922002B00703323CB23C223CB23C223CB23C221009D
:400B8000224800F0FFF82200214B143323CB23C223CB23C223CB23C221001E4800F0F2F8FFF7B6FC0BB0F0BD000026400C05000000002740FF00FFFFFFC5FFDF0300FA05A6
:400BC000F00121402C2400102C2500100000634007010100000263400000644000026440047934400879344000793440000032408000324080023240AC25001000033240C6
:400C0000800332400004324080043240000632402C26001080063240214B984230D00ED8402831D004D800281FD010282AD031E080282BD080235B00984229D02AE0194BD4
:400C4000984229D007D8A0231B0698420DD0164B984212D01EE0154B98420AD0144B984209D0144B984215D101E0002016E0124814E0124812E0124810E0A020C0030DE07C
:400C800007480BE00F4809E00F4807E00F4805E0034803E00E4801E0A420C0037047C04606005200010000F0090000A0040000F0050000F0030000F0010052000200520022
:400CC00003005200010050000200500005005200FF00520070B5124B1A683123D35C002B04D1C421FF310F4800F01CFE0C4B1D682C00B423EB582A6A944663441B68002B72
:400D00000BDB094B1868FFF787FF6B6801229A6063689B68002BFBD100E0044870BDC04648080008942F0010E80700080200500010B50D4B1861002805D002230370FD339A
:400D4000437000234380094B1B6850229A5C002A08D051229B5C002B04D04F3A0449002000F0F8FA10BDC046E8070008480800086101000810B502481430FFF7D9FF10BDDE
:400D8000E807000870B505000C0000285DD000295DD0FF230A689A4303D099212D4800F0C1FDFF2322699A4303D09A21294800F0B9FDA3685B0D03D09B21264800F0B2FDFC
:400DC00063685B0A03D09C21224800F0ABFDE3695B0F03D09D211F4800F0A4FD236A5B0F03D09E211B4800F09DFD1B4A11688B69EB1ADB0949691B01CB18216829607D2160
:400E00001068415C6918E06808607E211068415C6918206908607F211068415C6918606908607C211068415C6918A06808606168A961116880228A5CAD18A2692A60E269C3
:400E40001A60226A5A60002002E0044800E0034870BDC046D42F00104808000801005A0070B504000D000A4B1A68B423D3581B181B68002B0ADA0B0C03D00649064800F0F5
:400E800051FD2D042D0C6560002000E0034870BD48080008D50200005430001001008A0070B505000C000368002B01DA002300E0084B002B0BD1EA60230C03D00649074801
:400EC00000F030FD2404240CAC60002000E0014870BDC04601008A00BB0200005430001070B505000C1E03D19921084800F01AFD074B1A68B423D3585B191B68002B03DA0B
:400F0000EB682360002000E0024870BD943000104808000801008A0070B504000D00234B1A683123D35C834236D9002936D00B68DB0635D13123D35C984204D3C421FF315E
:400F40001B4800F0EFFC194B1B681A6AB0215B5A5C431419174E34602B68DA080021686801F00FFA00212000FFF77AFF3468002D03D111490E4800F0D5FC2A0000212000F4
:400F8000FFF78EFF00280DD10A4B18680021FFF767FF002808D108E0084806E0074804E0064802E0064800E0054870BD4808000854300010000800089303000003018A000C
:400FC00001018A0010B50400002A17D1002915D1124B1A683123D35C984204D3C421FF310F4800F09FFC0D4B1B681A6AB0215B5A5C4314190B4B1C6000200EE0002A09D0DD
:40100000002909D0074B59609A60191D2000FFF783FF02E0044800E0034810BD48080008543000100008000803018A00F0B583B00D001C4B1B68DC68236883422DD9470972
:401040007B01C01A012383401E00002903D100F028FD019001E000230193124B18680368002B01DA002300E00F4B002B0ED16368BF00DF193B68334203D0B3433B60002403
:4010800000E00A4C0021FFF7EBFE00E0084C002D04D1019800F009FD00E0064C200003B0F0BDC0460008000801008A00020188000301880004018A000A4B1B68DA681368A7
:4010C00083420BD943095901401A0121814052689B009B580B4203D0034802E0034800E003487047000800080101880004018A0000018800034B1B68002B01D1014B18605E
:401100007047C0460C080008F0B5474680B404000F0090461E002D4B1B68002B03D1B5212B4800F0FFFB294B1B682C2060431C18FF22150035402560330A13406360360C5D
:40114000A660244B1A683123D35C9D4204D3C421FF31214800F0E6FB1E4B1A68B023D35A6B43116A8C466344236166683223D35C9E4204D3E021FF31174800F0D3FB154B28
:401180001B681D6A80367601AD196561A668330C04D0FF214900104800F0C4FB330C03D00E490D4800F0BEFB3604330C1E43AE604346E36127620023A361069B002B02D071
:4011C00000229B5EA38104BC9046F0BD0C080008D43000104808000854300010FF010000F0B58FB0041E03D15221294800F09AFB6368032B03D95421254800F093FBE36A8C
:40120000002B03D15821224800F08CFB236B002B03D159211E4800F085FB07AA1300210061C961C321C921C302AD290023001433C1CBC1C141CB41C10821535E0CAE3380D2
:40124000144B1B6836215B5E07998C466344B370089B0D930B9B0A980096A26AE16AFFF753FF2B69E868002200920021FFF74CFF216B300000F0E8FA0023F25E002A05DB7B
:401280001F231A401E3B9340034A13600FB0F0BDD43000104808000800E100E0F8B505000F0016001C00002A03D1FD21224800F039FB224B1B68002B03D1FE211E4800F00C
:4012C00031FB1E4B1B682C2128004843181879435918012213004D68AB401B044568AA4015000269002A20D08F69002F1FD11268002A01DA002200E0114A002A19D13268B2
:401300001204120C134333600369DE6001238B614C6204692B0C03D00A490B4800F002FB2A04120CA260002004E0084802E0084800E00748F8BDC046D43000100C08000830
:4013400001008A00BB0200005430001004028A0007028A0070B504000D0016000F4B1B68002B04D1AF2149000D4800F0DBFA0B4B1B682C2060431C18236A002B04D1B121B7
:401380004900074800F0CEFAE369B34204D9236AB6009D51002000E0024870BD0C080008D43000100A028A0070B582B0040000230193002804D1D221FF312D4800F0B2FA0E
:4013C0002369002B04D1E9214900294800F0AAFA6369002B04D1D421FF31254800F0A2FA236A002B04D1EA214900214800F09AFA6269D5682B0C24D01B0413601368206988
:401400001C4B1A68B423D358C3181B68002B18DA01A9FFF765FD00280ED1019803681E0CFF221340E269934207D29B00226AD358002B02D0984700E0002631002069FFF7BE
:401440000FFD2D042D0C0FD063691D601B68636A002B03D098470023636203E0A36A002B00D098470023A36163691B6802B070BDD43000104808000810B50400084B1B688F
:40148000002B04D1B221FF31064800F04BFA044B1B682C2060431818FFF786FF10BDC0460C080008D430001010B50400094B1B689B6CC340DB0703D4BE21074800F032FA8A
:4014C000044B1B681B691034A402E3580F20184010BDC0464808000814310010134B1A683C23D35C83421DD9042904D94B1EFF3B9BB2132B18D8FF290CD91F2319400C4A1B
:401500000300C0339B009950D03080000423835000200AE007231940D0308000044BC150002002E0034800E002487047480800080000264001004A0070B5041E03D14A4965
:401540004A4800F0EFF9B023DB00494AD358002B00DA87E0474B22689A4203D94649434800F0E0F923689B039B0BE279002A02D08022520400E000221343B022D2003C49D3
:401580008B50A2883D4B9A4204D98C218900374800F0C8F922893A4B9A4203D93949334800F0C0F9A388DB04D90C23891B04364A13400B43354A2E498B50A37A0F2B04D911
:4015C0008E218900294800F0ADF9E37A0F2B03D92F49264800F0A6F9A289284B9A4203D92C49224800F09EF9A37A0F211940E27A1201FF2313400B43A289120226490A4038
:401600001343A27B1207C02189050A401343B122D20017498B50A379042B03D91F49134800F080F9228A164B9A4204D9912189000E4800F077F90E4819494558194B1D400F
:40164000A3791B02E022D20013402B4343504558154B1D40238A1B040B4A13402B434350002000E0114870BD1F0200005431001000002640FFFF030029020000FF1F00004E
:40168000FF010000310200000000FF0184050000390200003A02000000FF1F00430200008C050000FFF8FFFFFFFF00FE03004A0070B505003149324A8B58802000060343D6
:4016C0008B502C0003E0012000F020F9013CB223DB002A4AD3585B0701D4002CF3D12749B122D2008858274B03408020800503438B50002D01D0002C0CD02049B022D20020
:401700008B588020000603438B5003E0012000F0FDF8013CB223DB00184AD358DB0701D4002CF3D1002D01D0002C08D01349B122D2008B58C020800503438B5013E00F4B3C
:40174000B121C90058580F4A02408020800502435A5008395A58520052085A5008495A58520052085A50002D03D0002C03D0002002E0002000E0044870BDC04600002640E7
:401780008C050000FFFFFFCF02004A0070B505000C001A4B1B6828229A5C012A15D1820807211000884327D19200AD1AED00FF20A8401B6820339A181168AC4023004B40A4
:4017C000184004004C40146016E03A229B5EDBB2994203D176210A4800F0A4F8074B1B681B68072215408022120615438022920194466444A400E55070BDC046480800088E
:40180000DC31001070B504000D000B4B9A680B4B9A420CD1002904D13821FF31084800F081F81034054BA400E058E55003E01034A400044BE05870BD00ED00E000000008B5
:40184000DC31001000000010F0B5474680B482B0061E01914AD04368032B03D93221264800F060F80023F05E002804DBB178FFF78DFF002400E0214C0023F15E736800290B
:4018800012DB88081E4FC0308000C55903221140C900FC3290468A4095439A01434613408B402B43C35116E089B20F220A40083A920806329200134810184768032211400D
:4018C000C900FF252A008A4097439A012B0013408B403B4343600B4B9A680B4B9A4206D10023F05E0199FFF78DFF00E0034C200002B004BC9046F0BDDC3100100100560082
:4019000000E100E000ED00E00000000810B5034B1B78584300F0BCF810BDC046D400000801BEFEE770B50D00044C18220100200000F02FFDA5610020FFF7F2FF00060008C5
:40194000054B802212069A649B6C002B01DB002000E002487047C0460000274003004600054B8022120198585B68FF221A4202D08023DB021843704700002640FEE7C046B0
:4019800010B50A4B0268DA6142681A6282685A62C2689A620269DA6242691A6382695A63C2699A63FFF7EAFF10BDC04600060008F0B5474680B4002801D0192300E0642315
:4019C0008B429B415B42304D2C682268A826A45BA41822680327BA433B401A4322602C682268A45BA2181668284CA046264016602C682668AA229446A25A96193268BA43DD
:401A0000134333602A6813686546525BD3181A68444614401C60002805D010291BD921291BD8012024E0184B1B6855229A5C914215D956229A5C914213D957229A5C914282
:401A400011D958229A5C91420FD959229B5C99420DD804200CE000200AE0022008E0002006E0012004E0022002E0032000E00520054A1268526813680F218B43034313600F
:401A800004BC9046F0BDC04648080008FFFCFFFF0230800803D001300238FCD1C046C0467047EFF3108072B6704780F31088704710B5B0235B059B899BB2002B04D0B023B6
:401AC0005B059B899BB201E080235B0080225200934215D1184C23681968683A9B58C9180B680F208343963A13430B6021680C689C23CB58E318196881430A431A6019E0C9
:401B00000D4C2368196898229B58C918B02040050A4BC2580A4B13400A681343C022920013430B60226811689C23D358CB18054A82581A6010BDC04648080008481800008B
:401B4000FFFCFFFF4418000030B5B0235B059B899BB2002B04D0B0235B059B899BB201E080235B0080225200934215D1184C23681968683A9B58C9180B680F208343953A39
:401B800013430B6021680C689C23CB58E318196881430A431A6019E00D4D2B68196898229B58C918B0246405C12040012258094B13400A681343C022920013430B602A687A
:401BC00011689C23D358CB1822581A6030BDC04648080008FFFCFFFFB0235B059B899BB2002B04D0B0235B059B899BB201E080235B008022520093420DD1104B1B681A683A
:401C000098215B58D21811680D4B0B40C021C9010B43136011E0094B1B68196898229B58C918084BB0225205D258074B13400A681343C022920013430B6070474808000898
:401C4000FF8FFFFF18180000FFFCFFFF30B5B0235B059B899BB2002B04D0B0235B059B899BB201E080235B008022520093420DD1134B1B681A6898215B58D2181168114B6F
:401C80000B408021C9010B43136018E00C4D2B68196898229B58C918B02464050A4822580A4B13400A681343C022920013430B602A6811689C23D358CB1822581A6030BD53
:401CC00048080008FF8FFFFF4C180000FFFCFFFF10B5B0235B059B899BB2002B04D0B0235B059B899BB201E080235B0080225200934217D10020FFF7D7FBB0235B055B7819
:401D0000002B04D0B0235B055B78DBB200E02123222B03D8002803D1013004E0012002E0002000E0012010BD30B585B004000D00022807D9042805D0032803D02A492B48A9
:401D4000FFF7F0FD6B1EDBB2012B07D9042D05D0082D03D026492548FFF7E4FDA400254BE458042D13D0012D1CD112E0A3682B420BD1E3681A6802925B6801930393290061
:401D800002A8236898471B4B5C61646902E0002000E00020002C24D0174B9842E6D1012DE4D11EE0022D01D104E01C006369002BFBD104E00F4B5C69002C00D024690020B9
:401DC0000DE0A3682B4209D1E3681A6802925B6801930393290002A8236898472469002CEFD105B030BDC046B209000020320010B309000010080008FF004200F8B507000A
:401E0000012803D93D493E48FFF78CFDB0235B055B78002B04D0B0235B055B78DBB200E021239DB2B0235B059B899BB2002B04D0B0235B059E89B6B201E080267600002085
:401E4000FFF732FB002814D180235B009E4212D1222D12D82B4B1B685C682B4821582B4B19403B068022520413400B432350002404E0274C02E0264C00E0254C80235B0055
:401E80009E4201D1222D03D880235B009E4232D01C4B1A683123D35C002B04D1C421FF311C48FFF73FFD174B1B681D6A80235B009E4203D1002F05D0174A06E0002F03D0E4
:401EC000164A02E0164A00E0164A01212800FEF7E7FF00280FD10B4B1A68B423D3585B191B68002BF7DBEB681B0E1B06A0221206934200D100242000F8BDC0464C0A000093
:401F0000203200104808000818F00000FFFFFFFE04004200942F0010010100300300000C010000300100000CF8B50500012804D9822109012948FFF7F5FCFFF7C9FE0028AA
:401F400049D0FFF7AEFD0700002D11D10021244B244AD150E823DB00B0225205D65CF6B20120FFF74BFF041E19D1FFF7A1FD16E0B02252051C4BD0581A4B194958501B4907
:401F8000565CF6B21A481A581F218A4314390A431A500320FFF7BAFCFFF758FE0024002C15D11049124A8B581F20834306401E438E50002D02D1FFF70FFE08E00720FFF767
:401FC000A5FCFFF7C1FD0020FFF718FF04003800FFF76BFD00E0074C2000F8BD20320010307F00000000264010180000410700001CFF00000300420010B5041E03D115495D
:402000001548FFF78FFC154B1A68D168F222D2018A5822601B68F022D201D9688A5862600F4AD9688A58A2600E4AD9688A58E2600D4AD9688A5822610C4AD9688A5862619B
:402040000B4AD9688A58A261DA680A4BD358E36110BDC046A10A0000203200104808000804780000087800000C78000010780000147800001878000010B5041E03D114496B
:402080001448FFF74FFC144B1B68F022D201D96860688850114AD968A0688850104AD968E06888500F4AD968206988500E4AD968606988500D4AD968A06988500C4AD9685F
:4020C000E0698850DA682168F223DB01D15010BDC90A0000203200104808000804780000087800000C78000010780000147800001878000070B50500012804D9A6218900E4
:402100003548FFF70FFC354B5B68002B05D001210120FFF709FE040000E00024002C53D1FFF7BFFC06002D4B5B68002B03D004210120FFF7F9FD2A4B1B6843229A5C002AA7
:4021400008D09A68E023D358DB0603D523481830FFF752FFB0235B059B899BB2002B04D0B0235B059B899BB201E080235B0080225200934203D1280000F02AF909E0194A5A
:40218000116904230B431361012D01D030BF00E020BF134B1B6843229A5C002A08D09A68E023D358DB0603D50C481830FFF764FF3000FFF77AFC094B5B68002B09D0082113
:4021C0000120FFF7B1FD04E002210120FFF7ACFD054C200070BDC04620320010100800084808000800ED00E0FF004200042805D10B4A116804230B4313600FE0094B1A684A
:402200001168A023D358CB180006C022920410401860034A136804218B4313607047C04610E000E0480800080749C02252008B589B009B088020C00503438B508B5880204D
:40224000000603438B50704700002640014B18607047C04648080008002243088B4274D303098B425FD3030A8B4244D3030B8B4228D3030C8B420DD3FF22090212BA030C2B
:402280008B4202D31212090265D0030B8B4219D300E0090AC30B8B4201D3CB03C01A5241830B8B4201D38B03C01A5241430B8B4201D34B03C01A5241030B8B4201D30B0323
:4022C000C01A5241C30A8B4201D3CB02C01A5241830A8B4201D38B02C01A5241430A8B4201D34B02C01A5241030A8B4201D30B02C01A5241CDD2C3098B4201D3CB01C01A1F
:40230000524183098B4201D38B01C01A524143098B4201D34B01C01A524103098B4201D30B01C01A5241C3088B4201D3CB00C01A524183088B4201D38B00C01A5241430805
:402340008B4201D34B00C01A5241411A00D20146524110467047FFE701B5002000F006F802BDC0460029F7D076E770477047C046002310B59A4203D0CC5CC4540133F9E7D5
:4023800010BD03008218934202D019700133FAE77047030030B5002A0DD00C7801335D1E013A2C700131002CF5D19A189A4202D01C700133FAE730BDF8B5C046F8BC08BC81
:4023C0009E467047F8B5C046F8BC08BC9E46704701B40248844601BC604700BF350300080300000001000000010000000000000005036000040000000100000000000000DE
:40240000010000000604600008000000C8070008B501001073797374656D5F70736F63365F636D30706C75732E630000F4010000140004010A000905080000006301000057
:40244000002034407400802034407400002234407400802234407400002434407400802434407400002634407400802634407400002834407400802834407400002A3440C6
:402480007400802A3440740000213440642600109000000000233440F42600109000000000253440842700109000000000273440142800109000000000293440A428001032
:4024C00090000000002B3440342900109000000000603440C42900107C00000080603440402A00107C00000000613440BC2A00107C00000080613440382B00107C0000008E
:4025000000623440B42B00107C00000080623440302C00107C00000000633440AC2C00107C00000080633440282D00107C00000000643440A42D00107C000000806434401C
:40254000202E00107C000000006534409C2E00107C00000080653440182F00107C000000DF04E301022034401100000010000000000200000A660A0000000000000000002C
:40258000000000000000000000000000030000000000000000000000688666060000000000000000000000001212000000000000030000000000000000000000CC0000BA11
:4025C0000000000000000000000000001313000000001D1DFE0000000000000000000000000000000000000000000000000000000004040000000000030000000000000072
:4026000000000000CC000000000000000000000000000000131300000000000007000000000000000000000086660000000000000000000000000000141414000000000079
:40264000C000000080000000008000000B0000A60000000000000000000000000000000000000000000000000000000000000000FFFFFFFFFFFFFFFFFFFFFFFFFFFFFFFFF9
:40268000FFFFFFFFFF000000FFFFFFFFFFFFFFFFFFFFFFFFFFFFFFF5FFFFFFFFFF0000000000000000000000000000000000000000000000000F0000FFFFFFFFFFFFFFFF37
:4026C000FFFFFFFF111111111111111111111111111111111111111111111111111111111111111111111D11111111111111111111111111000000000000000000000000A2
:40270000FFFFFFFFFFFFFFFFFFFFFFFFFFFFFFFFFFFFFFFFFF000000FFFFFFFFFFFFFFFFFFFFFFFFFFFFFFFFFFFFFFFFFF00000000000000000000000000000000000000C3
:402740000000000000000000FFFFFFFFFFFFFFFFFFFFFFFF111111111111111111111111111111111111111111111111111111111111111111111111111111111111111179
:4027800011111111000000010000000000000000FFFFFFFFFFFFFFFFFFFFFFFFFFFFFFFFFFFFFFFFFF000000FFFFFFFFFFFFFFFFFFFFFFFFFFFFFFFFFFFFFFFFFF000000FE
:4027C00000000000000000001F000000000000000000000000000000FFFFFFFFFFFFFFFFFFFFFFFF11111111111111111111111111111111111111111111111111111111EA
:402800001111111111111111111111111111111111111111000000000000000000000000FFFFFFFFFFFFFFFFFFFFFFFFFFFFFFFFFFFFFFFFFF000000FFFFFFFFFFFFFFFF61
:40284000FFFFFFFFFFFFFFFFFFFFFFFFFF000000000000000000000000000000000000000000000000000000FFFFFFFFFFFFFFFFFFFFFFFF111111111111111111111111A5
:40288000111111111111111111111111111111111111111111111111111111111111111111111111000000000000000000000000FFFFFFFFFFFFFFFFFFFFFFFFFFFFFFFFC4
:4028C000FFFFFFFFFF000000FFFFFFFFFFFFFFFFFFFFFFFFFFFFFFFFFFFFFFFFFF000000000000000000000000000000000000000000000000000000FFFFFFFFFFFFFFFFFA
:40290000FFFFFFFF1111111111111111111111111111111111111111111111111111111111111111111111111111111111111111111111110000000000000000000000006B
:40294000FFFFFFFFFFFFFFFFFFFFFFFFFFFFFFFFFFFFFFFFFF000000FFFFFFFFFFFFFFFFFFFFFFFFFFFFFFFFFFFFFFFFFF0000000000000000000000000000000000000081
:402980000000000000000000FFFFFFFFFFFFFFFFFFFFFFFF111111111111111111111111111111111111111111111111111111111111111111111111111111111111111137
:4029C0001111111100000000000000001F1F1F1F1F1F1F1F1F1F1F1F1F1F1F1F1F1F1F1F1F1F1F1F1F1F1F1F1F1F1F1F0000000000000000000000000000000000000000B3
:402A000000020000FFFFFFFFFFFFFFFFFFFFFFFF11111111111111111111111111111111111111111111111111111111111111111111111111111111111111111111111170
:402A400000000000000000001F1F1F1F1F1F1F1F1F1F1F1F1F1F1F1F1F1F1F1F1F1F1F1F1F1F1F1F1F1F1F1F00000000000000000000000000000000000000000000000076
:402A8000FFFFFFFFFFFFFFFFFFFFFFFF11111111111111111111111111111111111111111111111111111111111111111111111111111111111111111111111100000000F2
:402AC000000000001F1F1F1F1F1F1F1F1F1F1F1F1F1F1F1F1F1F1F1F1F1F1F1F1F1F1F1F1F1F1F1F00000000000000001F000000000000000000000000000000FFFFFFFFDB
:402B0000EFFFFFFFFFFFFFFF11111111111111111111111111111111111111111111111111111111111111111111111111111111111111111111111100000000000000007D
:402B40001F1F1F1F1F1F1F1F1F1F1F1F1F1F1F1F1F1F1F1F1F1F1F1F0A1F1F1F1F1F1F1F000000000000000000000000000000000000000000000000FFFFFFFFFFFFFFFF92
:402B8000FFFFFFFF11111111111111111111111111111111111110111111111111111111111111111111111111111111111111111111111100000000000000001F1F1F1F6E
:402BC0001F1F1F1F1F1F1F1F1F1F1F1F1F1F1F1F1F1F1F1F1F1F1F1F1F1F1F1F000000000000000000000000000000000000000000000000FFFFFFFFFFFFFFFFFFFFFFFF7D
:402C000011111111111111111111111111111111111111111111111111111111111111111111111111111111111111111111111100000000000000001F1F1F1F1F1F1F1F6C
:402C40001F1F1F1F1F1F1F1F1F1F1F1F1F1F1F1F1F1F1F1F1F1F1F1F000000000000000000000000000000000000000000000000FFFFFFFFFFFFFFFFFFFFFFFF1111111134
:402C8000111111111111111111111111111111111111111111111111111111111111111111111111111111111111111100000000000000001F1F1F1F1F1F1F1F1F1F1F1FB4
:402CC0001F1F1F1F1F1F1F1F1F1F1F1F1F1F1F1F1F1F1F1F000000000000000000000000000000000000000000000000FFFFFFFFFFFFFFFFFFFFFFFF1111111111111111EC
:402D00001111111111111111111111111111111111111111111111111111111111111111111111111111111100000000000000001F1F1F1F1F1F1F1F1F1F1F1F1F1F1F1FFB
:402D40001F1F1F1F1F1F1F1F1F1F1F1F1F1F1F1F000000000000000000000000000000000000000000000000FFFFFFFFFFFFFFFFFFFFFFFF111111111111111111111111A3
:402D80001111111111111111111111111111111111111111111111111111111111111111F111111100000000000000001F1F1F1F1F1F1F1F1F1F1F1F1F1F1F1F1F1F1F1F63
:402DC0001F1F1F1F1F1F1F1F1F1F1F1F00000000000000000F000000000000000000000000000000FFFFFFFFFFFFFFFFFFFFFFFF111111111111111111111111111111114C
:402E0000111111111111111111111111111111111111111111111111111111111111111100000000000000001F1F1F1F1F1F1F1F1F1F1F1F1F1F1F1F1F1F1F1F1F1F1F1F8A
:402E40001F1F1F1F1F1F1F1F000000000000000000000000000000000000000000000000FFFFFFFFFFFFFFFFFFFFFFFF111111111111111111111111111111111111111112
:402E80001111111111111111111111111111111111111111111111111111111100000000000000001F1F1F1F1F1F1F1F1F1F1F1F1F1F1F1F1F1F1F1F1F1F1F1F1F1F1F1FD2
:402EC0001F1F1F1F000000000000000000000000000000000000000000000000FFFFFFFFFFFFFFFFFFFFFFFF111111111111111111111111111111111111111111111111CA
:402F000011111111111111111111111111111111111111111111111100000000000000001F1F1F1F1F1F1F1F1F1F1F1F1F1F1F1F1F1F1F1F1F1F1F1F1F1F1F1F1F1F1F1F19
:402F4000000000000000000000000000000000000000000000000000FFFFFFFFFFFFFFFFFFFFFFFF1111111111111111111111111111111111111111111111111111111181
:402F8000111111111111111111111111111111111111111147656E6572617465645F536F757263655C50536F43365C70646C5C647269766572732F70657269706865726191
:402FC0006C2F6970632F63795F6970635F6472762E68000047656E6572617465645F536F757263655C50536F43365C70646C5C647269766572735C706572697068657261BA
:403000006C5C6770696F5C63795F6770696F2E630000000047656E6572617465645F536F757263655C50536F43365C70646C5C647269766572735C706572697068657261E9
:403040006C5C6770696F5C63795F6770696F2E680000000047656E6572617465645F536F757263655C50536F43365C70646C5C647269766572735C706572697068657261A4
:403080006C5C6970635C63795F6970635F6472762E68000047656E6572617465645F536F757263655C50536F43365C70646C5C647269766572735C7065726970686572619F
:4030C0006C5C6970635C63795F6970635F6472762E63000047656E6572617465645F536F757263655C50536F43365C70646C5C647269766572735C70657269706865726164
:403100006C5C6970635C63795F6970635F706970652E630047656E6572617465645F536F757263655C50536F43365C70646C5C647269766572735C706572697068657261C1
:403140006C5C70726F745C63795F70726F742E630000000047656E6572617465645F536F757263655C50536F43365C70646C5C647269766572735C7065726970686572617C
:403180006C5C737973636C6B5C63795F737973636C6B2E630000000047656E6572617465645F536F757263655C50536F43365C70646C5C647269766572735C706572697034
:4031C000686572616C5C737973636C6B5C63795F737973636C6B2E680000000047656E6572617465645F536F757263655C50536F43365C70646C5C647269766572735C70FF
:4032000065726970686572616C5C737973696E745C63795F737973696E742E630000000047656E6572617465645F536F757263655C50536F43365C70646C5C6472697665A2
:4032400072735C7065726970686572616C5C737973706D5C63795F737973706D2E6300000000204000002440000000400000000000002340000030400000314000009F40BE
:40328000000022400000104002020202020202020210101D800017007500FF030602063604102000000000007FC0000000040000000000000019324B647D00804000080BFA
:4032C000100000000000FF012002001F00800004FF081018001000140018001C4044484C50000000081000000800000004000000041000000012000004210000002100007A
:403300000016000040114002C41300138013A013200000001C0000000000214000002540000001400000344000002440000031400000324000001F410000234000001140A2
:40334000010101010101010101101010800019005500F0000501053B04101C01010000000FC000000004000001010101011D3A57789600082000101208000000001F0000B9
:403380000010000F002000023F06080E00080009000A000B24282C3034000000100000009000000088000000080000008000000004F0000000F00000400200002005A000D4
:4033C000D00100018001A0012000000010000000000000000000001000000008C0000000F4330010C0000008400500003C060008100200000048E80100127A0000093D002E
:4034000000093D0000093D0004000000A00F00000000D007E9000010C10000100000000010B50004400B27D0144B1A68146AB023D15ACA00531AE3181B68002BF4DA3E2236
:403440000F4B1A600F4A104B1A60104B0621A322D20099500E4A98509B58084B1A68106AB023D15ACA00531AC31800225A60084B064AD358002BFADA10BDC04648080008E2
:40348000040126401E1F000008012640000026401C05000010B54378FF2B20D100F02AFA04000F4B1A683123D35C042B04D8C421FF310C4800F006FA094B1A68116AB023D4
:4034C000D35A9B00CB18DB685A68116801230B4313601368DB07FCD4200000F0EBF910BD48080008942F0010F0B585B001900291544B1A683123D35C002B04D1C421FF31EE
:40350000514800F0DFF94F4B1B681E6AB4229A58971950229B5C002B77D000F003FA050003283CD1474B1A683123D35C062B04D8C421FF31444800F0C5F9424B1968B02334
:40354000CB5A5A00D21853000A6A94466344B4228A58D3181B68002B23DB002000F0DAF93A4B98421FD03A4B1A6900230021012000F0B8F9002803D0364C17E0013400E083
:403580000024002000F0C6F9304B984202D0324B9C42F3D9304B9C4207D92E4C06E0002404E02C4C02E02B4C00E00024002C46D100F0A0F90390294B294AD358002B13DACB
:4035C000234A0121300000F06DF900280ED10298FFF726FF019B002B0AD03B68002BFCDB00F078F9040004E01A4C02E0194C00E01C4C032D05D10121002000F083F900289A
:40360000F9D1039800F056F919E000F073F905000F4A0121300000F045F9002809D1019B002B08D03B68002BFCDB00F053F9040002E0084C00E00B4C280000F03BF9200054
:4036400005B0F0BD48080008942F001001018800E807000805005200EF4902001C0500000000264001005000F0B54F464646C0B4824B1A685468B0235B055B78002B04D089
:40368000B0235B055B78DBB200E02123212B67D1B023D15ACB005B1A116A8C46634419680029F5DADD6802212943D960B023D15ACB005B1A116A8C466344D968C9073ED5C1
:4036C000D9680904090C8C4684271168D559A84641440968090A0904FF26360431400D0088261168894691598846C14449460968090A0906294365462943D9601168D3592C
:40370000C9180A685E4B98461A4090252D012A430A605A4B99461A6813689C46925962441368414619400B002B4313604B461A681568D15969180B689359EB181B684F4BA6
:403740001A68B021555AEB005B1B156AAC46634400255D60156A515ACA00531AEB185B68484A116904230B431361012801D030BF00E020BF414B1A68B023D15ACB005B1ADC
:40378000116A8C46634419680029F3DAB02149054978002904D0B02149054978C9B200E02121212932D1D968C90722D510688421525880180468324A1440DB681B0C1B02CD
:4037C000FF2109020B40234303602C4B19688823C8580B689C46604403681A400D6AB023CC5AE1000B1BEB18DB681B0E1B021A430260224B1A68106AB023D15ACA00531AA9
:40380000C318DA6802218A43DA6028E086235B00E358002B23D11C4807681C4BA321C9005E581B4A904615681A4A0260062058503E21424611600631174A9950164B134A7B
:40384000D358002BFADA154A86235B00E2500E4B1F60A323DB000D4AD6500D4B1D60074B1A68106AB023D15ACA00531AC31800225A600CBC90469946F0BDC04648080008FC
:40388000FF00FFFF00ED00E00801264000002640040126401E1F00001C050000AAAAAAAA0000000001B40248844601BC604700BFA10E001001B40248844601BC604700BF61
:4038C000AB1A001001B40248844601BC604700BF2519001001B40248844601BC604700BFD50C001001B40248844601BC604700BF9D12001001B40248844601BC604700BF45
:40390000A31A001001B40248844601BC604700BF2D10001001B40248844601BC604700BFB910001001B40248844601BC604700BF3904001000000000000000000000000083
:403940000000000000000000000000000000000000000000000000000000000000000000000000000000000000000000000000000000000000000000000000000000000047
:403980000000000000000000000000000000000000000000000000000000000000000000000000000000000000000000000000000000000000000000000000000000000007
:4039C00000000000000000000000000000000000000000000000000000000000000000000000000000000000000000000000000000000000000000000000000000000000C7
:020000041008E2
:4000000000780408EB0208100D0000005103081051030810510308105103081000000000000000000000000000000000918008104D030810000000003181081095810810F1
:400040004D0308104D0308104D0308104D0308104D0308104D0308104D0308104D0308104D0308104D0308104D0308104D0308104D0308104D0308104D0308104D03081000
:400080004D0308104D0308104D0308104D0308104D0308104D0308104D0308104D0308104D0308104D0308104D0308104D0308104D0308104D0308104D0308104D030810C0
:4000C0004D0308104D0308104D0308104D0308104D0308104D0308104D0308104D0308104D0308104D0308104D0308104D0308104D0308104D0308104D0308104D03081080
:400100004D0308104D0308104D0308104D0308104D0308104D0308104D0308104D0308104D0308104D0308104D0308104D0308104D0308104D0308104D0308104D0308103F
:400140004D0308104D0308104D0308104D0308104D0308104D0308104D0308104D0308104D0308104D0308104D0308104D0308104D0308104D0308104D0308104D030810FF
:400180004D0308104D0308104D0308104D0308104D0308104D0308104D0308104D0308104D0308104D0308104D0308104D0308104D0308104D0308104D0308104D030810BF
:4001C0004D0308104D0308104D0308104D0308104D0308104D0308104D0308104D0308104D0308104D0308104D0308104D0308104D0308104D0308104D0308104D0308107F
:400200004D0308104D0308104D0308104D0308104D0308104D0308104D0308104D0308104D0308104D0308104D0308104D0308104D0308104D0308104D0308104D0308103E
:400240004D0308104D0308104D0308104D0308104D0308104D0308104D0308104D0308104D0308104D0308104D0308104D0308104D0308104D0308104D0308104D030810FE
:400280004D0308104D0308104D03081010B5054C237833B9044B13B10448AFF300800123237010BD0C4A02080000000088D60910084B10B51BB108490848AFF30080084896
:4002C000036803B910BD074B002BFBD0BDE81040184700BF00000000104A020888D60910D8430208000000007047FFF7FDFF72B6104C114DAC4209DA21686268A368043BB6
:40030000A2BFC858D050FAE70C34F3E70B490C4A00209142BCBF41F8040BFAE709480A490860BFF34F8F00F031FA00F00BFA00F085F8FEE78CD60910A4D609100C4A020874
:40034000344204080040020808ED00E0FEE7FEE700B504207146084202D0EFF3098001E0EFF30880043006F065F9FEE7294B5A6910225A615B69284BB3F90030002B09DBFD
:400380005A0903F01F03012101FA03F36032234941F82230224B1B78224A1278934204D121490A7882F001020A70204A127893422FD11F4A137883F001031370C3B9082251
:4003C000144B9A601B4BB3F90030002B0DDB5A0903F01F03012101FA03F320320F4941F82230BFF34F8FBFF36F8F0022124B1A700F4B1B786BB10F4BB3F90030002B08DBF9
:40040000590903F01F03012202FA03F3034A42F82130704700003240B033091000E100E008A303081131091054C203081531091065930308783309106493030800B583B030
:4004400062B63F4B5A6901225A615B693D4BB3F90030002B09DB5A0903F01F03012101FA03F36032384941F822300822374B9A60374B1A78374B1A700022374B1A701E22A5
:40048000364B1A608222364B1A602022354B1A600123354A1370354A1370354C3549204606F05AF8B4F90030002B08DB5A0903F01F00012181406032234840F82210002BBC
:4004C00008DB590903F01F03012202FA03F31E4A42F82130002401940226009623464FF4FA622549254806F0BDFF01940125009523464FF4FA722249224806F0B3FF019414
:400500000095234680222049204806F0ABFF01940096234680221E491E4806F0A3FF0194009523464FF4FA621B491C4806F09AFF06F0CAFF99211A4806F06CF8FEE700BFAD
:40054000800632407833091000E100E0000032401531091008A30308BDE10308ACE10308B0B20308B8E1030854C2030865930308B03309106D03081080300910B52D0810BA
:400580008C300910292A08109C300910E52B0810A8300910412C0810B4300910D5240810C430091008B5012004F042F808BD00BF704700BF5C4AD2F8803303F00F0303F13B
:4005C000D00152F8212002F00702032A04D0042A05D092B9554914E0554A116811E003F1C002514951F8222002F01F02112A06D0132A04D04FF4FA4103E04E4901E04FF48E
:4006000000418BBB484BD3F8902502F00100D3F88825C2F30172D3F8883513F0405F07D0414BD3F88835C3F30173012B02D102E0012300E0002303B108B9032A46D13A480B
:40064000D0F88025C2F31103D0F88425C2F30C02D0F88005C0F300600130B1FBF2F202FB03F2B2FBF0F131E0012B2FD12E4BD3F8402602F00100D3F80026C2F30172D3F8B1
:40068000003613F0405F07D0274BD3F80036C3F30173012B02D102E0012300E0002303B108B9032A12D12048D0F8002602F07F02D0F80036C3F30423D0F80006C0F30440F8
:4006C00002FB01F2B2FBF3F2B2FBF0F1164BD3F88033C3F3011321FA03F215494A601648D0F89030C3F3072301330069000E0130B2FBF0F08860B2FBF3F3CB600B6103F5F0
:40070000742202F23F220D48A0FB0202C2F387420A7503F2E7330A4AA2FB03239B098B61DB03CB61704700BF0000264000127A008C42020800366E010000214083DE1B4318
:40074000D34D621008B50D4806F05EF8FFF730FFFFF730FF00221146042003F031FD084803F0C4FD074B1B6893F8513013B1064803F02CFE03F0F2FB08BD00BF3838091080
:40078000284A0208203E0408D030091008B505F0ACFF074AD2F8883043F47003C2F88830BFF34F8FBFF36F8F05F0A3FF08BD00BF00ED00E040B1C2694AB1026A52B1436A93
:4007C0005BB94FF0FF3070474FF0FF3070474FF0FF3070474FF0FF3070470020704700BF0222C271082343711021017103218171C27343731423037300238373436883608D
:40080000C3680361704700BF4B790F2B0BD84A7A93420BD0027802F0F00203F00F0313430370002070476FF00300704700207047CB79022B08D8CA7A934208D0037803F0BB
:400840008F030370002070476FF0030070470020704700BF8B790C2B0BD88A7A93420BD0027802F0F00203F00F0313430370002070476FF003007047002070474B7B0D2B2A
:400880000BD84A7C93420BD0027802F0F00203F00F0313430370002070476FF00300704700207047CB7B022B09D8027802F0CF021B0103F0300313430370002070476FF01A
:4008C000030070478B7B042B0BD88A7C93420BD0027802F0F80203F0070313430370002070476FF0030070470020704738B593B11C46DD6995B19B78012B01D140F080009D
:4009000013460A4601466078A8470546636A0120984745B105E04FF0FF3504E04FF0FF3501E06FF00105284638BD00BF38B504460D460B46022201464020FFF7D7FF034620
:4009400080B929462046FFF75FFF034650B929462046FFF76DFF034620B92946601CFFF779FF0346184638BD38B504460D460B46022201464220FFF7B9FF034680B929462E
:400980002046FFF77BFF034650B929462046FFF789FF034620B92946601CFFF793FF0346184638BD00B583B002A9002301F8013D034601220220FFF799FF9DF80730C3F300
:4009C0004303012B06D0022B07D0032B08D0072B0BD108E06FF0050007E06FF0060004E06FF0070001E06FF0080003B05DF804FB2DE9F843002B31D00546894690461E4695
:400A00001C6A74B39B78012B01D100F07F05337A112B02D0337C152B19D143464A4629467078A0470746736A0120984714E0376A012309EB040229467078B84707460135E3
:400A4000EDB2736A012098470134E4B201E000242746A3B24345EAD347B105E04FF0FF3704E04FF0FF3701E06FF001073846BDE8F88300BF10B582B0044602A8002320F8AD
:400A8000043D2146FFF752FF0346C8B92346012201A94020FFF7ACFF034688B963796372E379E372636A01209847234601220DF105014120FFF79CFF034608B9A279A272D2
:400AC000184602B010BD00BF10B582B0044602A8002320F8043D2146FFF746FF0346C8B92346012201A94220FFF782FF034688B9637B6374E37BE374636A0120984723464E
:400B000001220DF105014320FFF772FF034608B9A27BA274184602B010BD00BF30B583B004460D4600238DF807300B46012201464020FFF7DBFE034628BB2A79122A14D17D
:400B4000237863F07F0323702B46012221464020FFF74EFF0346B0B92B4602220DF107015820FFF745FF03460DE0227812F0800F09D002F07F0222702B460122214640203B
:400B8000FFF736FF0346184603B030BD30B583B000238DF807300279A2F11003DBB2022B1AD8037A9A421AD0044601460DF10700FFF7B4FF054698B923460122211D7E2079
:400BC000FFF716FF0546237A102B02D1636A052098472379237203E06FF0030500E00025284603B030BD00BF38B5027BA2F11403DBB2012B01D9172A1DD1037C9A421DD0B8
:400C000004460346012200F10C017E20FFF7F0FE0546237C142B03D1636A5120984707E0172B05D1237B152B02D1636A0A209847237B237403E06FF0030500E000252846EC
:400C400038BD00BF30B583B005460C4602A9002301F8013D234601225020FFF747FE034660BB2B7813F0010F18D09DF8072002F0FE032978C1F340021A4302F0FD02C1F385
:400C8000800342EA430202F0FB02C1F3C00342EA83038DF807300023E37007E09DF8073023F007038DF80730FF23E370234601220DF107015020FFF79BFE0346184603B00A
:400CC00030BD00BF30B583B005460C4602A9002301F8013D234601225320FFF707FE0346002844D12B78012B1CD19DF8072002F0F702A97801F0010342EAC30202F0FB02B5
:400D0000C1F3400342EA830303F0FD02C1F3800342EA430303F0FE03C1F3C0010B438DF807301CE09DF8072002F07F02A97801F0010342EAC31202F0BF02C1F3400342EAE4
:400D4000831202F0DF02C1F3800342EA431202F0EF02C1F3C00342EA03138DF80730234601220DF107015320FFF742FE0346184603B030BD30B583B004460D4602A90023F6
:400D800001F8013D2B4601225420FFF7AFFD034650BB2378012B0BD19DF8073003F0EF02A378C3F3001342EA03138DF807300AE09DF8073003F0DF02A378C3F3001342EA2F
:400DC00043138DF807309DF8073003F0F0026388C3F34313134302A901F8013D2B4601225420FFF705FE0346184603B030BD00BF38B504460D46FFF765FF034620B9294685
:400E00002046FFF7B7FF0346184638BD10B582B0044602A9002301F8013D034601226220FFF764FD034678B99DF8072012F0020F0AD002F0FD0202A901F8012D2346012207
:400E40006220FFF7D5FD0346184602B010BD00BF70B582B005460C4600238DF804308DF805308DF806300B46032201A95520FFF73DFD024698BB9DF804006B781949CE5C96
:400E8000F3435BB218409DF806100B402D78032D1BD8DFE805F002070D138DF804008DF8063014E030438DF804008DF806300EE033438DF806308DF8040008E030438DF87D
:400EC000040033438DF8063001E06FF0030232B92346032201A95520FFF78AFD0246104602B070BD0431091030B583B005460C4602A9002301F8013D234601225920FFF7E3
:400F0000F5FC034688B99DF8073003F07F022B78C3F3801342EAC31302A901F8013D234601225920FFF764FD0346184603B030BD30B583B005460C4600238DF80730ADF84A
:400F400004300B4601220DF107015F20FFF7CEFC034688B99DF8073003F0FC038DF807308DF804306B788DF805302346022201A95F20FFF73DFD0346184603B030BD00BF3E
:400F800070B505460E4614461146FFF731FF0346A8B92046FFF73AFF034680B921462846FFF756FF034650B921463046FFF79CFF034620B921463046FFF7BAFF03461846A0
:400FC00070BD00BF70B505460C460846FFF7F2FB70B985B12E1D21463046FFF733FE034658B9224631462846FFF7CAFF034604E04FF0FF3301E04FF0FF33184670BD00BFC4
:4010000030B583B005460C4602A9002301F8013D234601225020FFF769FC0346F0B92B7813F0200F0AD09DF8073003F0F80343F007038DF807300123E37007E09DF8073021
:4010400023F007038DF80730FF23E370234601220DF107015020FFF7CBFC0346184603B030BD00BF30B583B005460C4602A9002301F8013D234601225920FFF737FC03462C
:4010800088B99DF8073003F07F022B78C3F3001342EAC31302A901F8013D234601225920FFF7A6FC0346184603B030BD30B583B005460C46437802A901F8013D234601229D
:4010C0006020FFF795FC034630BB234601220DF107016220FFF70AFC0346E8B99DF8072002F0F302297801F0030342EA830202F0CF02C1F3810342EA031303F0FD02C1F3EC
:40110000401342EA430302A901F8013D234601226220FFF76DFC0346184603B030BD00BF70B505460E4614461146FFF761FE034680B921462846FFF78BFE034650B921463C
:401140003046FFF78FFF034620B921463046FFF7ADFF0346184670BD70B505460C460846FFF728FB70B985B12E1D21463046FFF747FF034658B9224631462846FFF7D0FFA8
:40118000034604E04FF0FF3301E04FF0FF33184670BD00BF30B583B004460D4602A9002301F8013D2B4601225220FFF79FFB034658BB237813F0010F07D09DF8073003F005
:4011C000FE0343F001038DF80730237813F0020F07D09DF8073003F0FD0343F002038DF80730237813F0040F07D09DF8073003F0FB0343F004038DF807302B4601220DF1F5
:4012000007015220FFF7F4FB0346184603B030BD30B583B005460C4602A9002301F8013D234601225920FFF761FB034688B99DF8073003F07F026B78C3F3800342EAC3130F
:4012400002A901F8013D234601225920FFF7D0FB0346184603B030BD30B583B005460C4600238DF80730ADF804300B4601220DF107015F20FFF73AFB034688BB9DF8073096
:4012800003F003022B88C3F3C50342EA830302A901F8013D234601225F20FFF7A9FB0346F0B9234601220DF107016220FFF71EFB0346A8B99DF8073003F0FE026B78C3F3B5
:4012C000400313438DF807308DF80530AB7802A901F8043D234602226120FFF789FB0346184603B030BD00BF70B505460E4614461146FFF77DFD034680B921462846FFF717
:40130000A7FD034650B921463046FFF781FF034620B921463046FFF79FFF0346184670BD70B505460C460846FFF744FA70B985B12E1D21463046FFF72DFF034658B922464E
:4013400031462846FFF7D0FF034604E04FF0FF3301E04FF0FF33184670BD00BF70B582B005460E46144602A9002301F8013D134601225020FFF7BAFA034608BB6B78042B80
:401380000BD19DF8073003F0DF027378C3F3C00342EA43138DF807300AE09DF8073003F0EF027378C3F3C00342EA03138DF80730234601220DF107015020FFF719FB0346BE
:4013C000184602B070BD00BF30B583B005460C4602A9002301F8013D234601225820FFF785FA034688B99DF8073003F0F7026B78C3F3800342EAC30302A901F8013D234623
:4014000001225820FFF7F4FA0346184603B030BD70B582B006460D46144602A9002321F8043D134602226320FFF760FA034650BB9DF804307278032A06D12A88C2F3C212D8
:4014400003F0F8031343DBB22A78C2F3401103F0BF0343EA8113C2F3801103F07F0343EAC1138DF804309DF80530C2F3040203F0E0031A438DF805202346022201A96320EC
:40148000FFF7B6FA0346184602B070BD70B505460E4614461146FFF7ABFC034688B921462846FFF7D5FC034658B921463046FFF78BFF034628B9224631462846FFF7A8FFFD
:4014C0000346184670BD00BF70B504460D460846FFF770F9A8B9BCB1261D2A4631462046FFF73CFF034688B929462046FFF780FC034658B92A4631462046FFF7C7FF0346DE
:4015000004E04FF0FF3301E04FF0FF33184670BD30B583B005460C4602A9002301F8013D234601225220FFF7E1F9034688B99DF8073003F0F7022B7803F0010342EAC30323
:4015400002A901F8013D234601225220FFF750FA0346184603B030BD30B583B00D460023ADF80430037813F0C00306D115238DF8043003238DF8053032E00446402B03D119
:401580002D238DF804302BE0802B06D11D238DF8043007238DF8053022E0C02B20D10B46022201A97A20FFF7A1F9C8B99DF8043003F0E7032278C2F3410143EAC10303F0F5
:4015C000F803C2F3C20213438DF804309DF8053003F0F8026378C3F3020313438DF805302B46022201A97A20FFF702FA03B030BD70B505460C460846FFF7DCF8C8B9DDB1B7
:401600002E1D21463046FFF783FF0346B0B921462846FFF7EDFB034680B921462846FFF717FC034650B921463046FFF795FF034604E04FF0FF3301E04FF0FF33184670BD11
:4016400030B583B005460C4602A9002301F8013D234601225020FFF749F9034688B99DF8073003F0BF02AB7803F0010342EA831302A901F8013D234601225020FFF7B8F911
:401680000346184603B030BD30B583B005460C4600238DF804308DF805300B46022201A96520FFF723F9034678BB9DF8042002F0FC032978C1F301021A4302F0F30201F02F
:4016C0000C031A4302F00F0201F0F00313438DF804309DF8052002F0C0036978C1F305021A4302F0BF02C1F3801342EA831202F07F0201F0800313438DF8053023460222E1
:4017000001A96520FFF774F90346184603B030BD70B505460C460846FFF74CF8C8B9DDB12E1D21463046FFF78BFF0346B0B921462846FFF75DFB034680B921462846FFF7AD
:4017400087FB034650B921463046FFF79DFF034604E04FF0FF3301E04FF0FF33184670BD30B583B005460C4602A9002301F8013D234601225020FFF7B9F8034688B99DF82F
:40178000073003F07F026B78C3F3C00342EAC31302A901F8013D234601225020FFF728F90346184603B030BD30B583B005460C4600238DF804308DF805300B46022201A97A
:4017C0006720FFF793F8034608BB9DF8043003F0C0022B78C3F3050313438DF804309DF8053003F0CF026B78C3F3410342EA031303F0F8032A88C2F3821213438DF8053041
:401800002346022201A96720FFF7F2F80346184603B030BD70B505460C460846FEF7CAFFC8B9DDB12E1D21463046FFF799FF0346B0B921462846FFF7DBFA034680B92146F5
:401840002846FFF705FB034650B921463046FFF7ABFF034604E04FF0FF3301E04FF0FF33184670BD30B583B005460C4602A9002301F8013D234601225120FFF737F8034695
:4018800088B99DF8073003F0F702AB78C3F3001342EAC30302A901F8013D234601225120FFF7A6F80346184603B030BD30B583B005460C4602A9002301F8013D2346012251
:4018C0005820FFF713F8034688B99DF8073003F07F02AB78C3F3C00342EAC31302A901F8013D234601225820FFF782F80346184603B030BD30B583B005460C4600238DF80D
:4019000004308DF8053002A901F8023D234601225C20FEF7EBFF0346E0B99DF8062002F0FC03A978C1F301021A4302F0FB02C1F3800342EA83038DF806306B788DF80530FC
:401940002B7802A901F8043D234603225A20FFF74FF80346184603B030BD00BF70B505460C460846FEF726FFF8B90DB32E1D21463046FFF777FF0346E0B921462846FFF7B8
:4019800037FA0346B0B921462846FFF761FA034680B921463046FFF789FF034650B921463046FFF7A7FF034604E04FF0FF3301E04FF0FF33184670BD30B583B005460C4646
:4019C00002A9002301F8013D234601225120FEF78DFF0346E0B99DF8072002F0FE032978C1F300021A4302F0FD02C1F3400342EA430202F0FB02C1F3800342EA830302A943
:401A000001F8013D234601225120FEF7F1FF0346184603B030BD00BF30B583B005460C4602A9002301F8013D234601225820FEF75DFF034688B99DF8073003F07F022B780B
:401A4000C3F3401342EAC31302A901F8013D234601225820FEF7CCFF0346184603B030BD30B583B005460C4600238DF804308DF805308DF806300B46012201A95C20FEF7D9
:401A800035FF0346B8B99DF8043003F03F022B78C3F3C10342EA83138DF80430AB788DF805306B788DF806302346032201A95C20FEF79EFF0346184603B030BD70B505462B
:401AC0000C460846FEF776FEF8B90DB32E1D21463046FFF771FF0346E0B921462846FFF787F90346B0B921462846FFF7B1F9034680B921463046FFF78FFF034650B92146EE
:401B00003046FFF7ADFF034604E04FF0FF3301E04FF0FF33184670BD10B582B0044602A9002301F8013D034601225120FEF7DEFE034670B99DF8073003F0EF0343F01003B5
:401B400002A901F8013D234601225120FEF750FF0346184602B010BD30B583B005460C4602A9002301F8013D234601225620FEF7BDFE024670BB6B781849C85C9DF8073009
:401B800023EA00035BB20101C9B223EA0103DBB22D78032D13D8DFE805F00205090D8DF807300EE00B438DF807300AE003438DF8073006E003430B438DF8073001E06FF03E
:401BC00003023AB9234601220DF107015620FEF70FFF0246104603B030BD00BF0431091038B505460C460846FEF7E4FD88B99DB12046FFF791FF034680B921462846FFF721
:401C0000F7F8034650B921462846FFF7A5FF034604E04FF0FF3301E04FF0FF33184638BD30B583B005460C4602A9002301F8013D234601225120FEF759FE034688B92B7A7F
:401C400003F001029DF8073023F0200343EA421302A901F8013D234601225120FEF7C8FE0346184603B030BD38B599B14A6AA2B10C460546FFF7D4FF034680B9214628460E
:401C8000FFF7B6F8034650B921462846FFF764FF034604E04FF0FF3301E04FF0FF33184638BD00BF30B583B005460C4602A9002301F8013D234601225120FEF717FE0346F4
:401CC00088B92B7AC3F340029DF8073023F0400343EA821302A901F8013D234601225120FEF786FE0346184603B030BD38B599B14A6AA2B10C460546FFF7D4FF034680B95D
:401D000021462846FFF774F8034650B921462846FFF722FF034604E04FF0FF3301E04FF0FF33184638BD00BF30B583B0B6238DF80730F0B10446436AF3B1034601220DF1D9
:401D400007017E20FEF754FE0546636A0F20984755B9A378012B07D1234601220DF107017F20FEF7C3FD054645B92046FEF738FD04E04FF0FF3501E04FF0FF35284603B098
:401D800030BD00BF10B582B00446FEF713FD034648B9A278012A06D123460DF107017F20FEF7A4FD0346C3B9234601220DF106010020FEF79BFD58B99DF80630D12B0AD171
:401DC0002370FF23E3702046FFF7AEFF034604E06FF0020301E06FF00203184602B010BD60B1426A6AB110B50446FEF7CFFE034658B92046FEF7F8FE034606E04FF0FF332B
:401E000001E04FF0FF3318467047184610BD00BFB0B1426ABAB110B50446FEF72BFE0346A8B92046FEF750FE034680B92046FFF7D7FF034658B92046FEF7B4FD034606E010
:401E40004FF0FF3301E04FF0FF3318467047184610BD00BF08B543780C2B2CD8DFE803F0070A13101016191F1C0D22252800FFF7A9F808BDFFF770F908BDFFF751FA08BD83
:401E8000FFF722FB08BDFFF7B3FB08BDFFF740FC08BDFFF7BFFC08BDFFF760FD08BDFFF70DFE08BDFFF79CFE08BDFFF7DDFE08BDFFF71CFF08BD002008BD00BFF0B585B057
:401EC000064617461C460F4D284600F8011B1A46394610F02FFC8DF8006001950134029400238DF80C30084A6946084803F03EFB04464FF0FF31064B186805F04FF820461C
:401F000005B0F0BDA84B0208C03E04080000644060F10308F0B587B0054617461E468DF807108DF808000DF107030393012304938DF81430124A02A9124803F017FB124C41
:401F4000E0604FF0FF31114B186805F027F8E3688BB98DF80850039704968DF81430084A02A9084803F04AFAE0604FF0FF31074B186805F013F8044BD86807B0F0BD00BFA2
:401F8000C03E040800006440A84B020860F1030800B583B010F4002F04D0A5210C4804F039FB11E010F4C02F0ED001A9094B186804F0EAFE019B3BB14FF08052064B1A6069
:401FC000BFF34F8FBFF36F8F03B05DF804FB00BF1831091060F1030804ED00E010B504460AF0B4F8022009F0CBFF00200AF00AF86FF07F4009F0FCFFAF2340F20712012145
:40200000084609F0C5FA022009F0BAFF1E23AA2219465F200AF0D0FC002009F0F3FF6FF07F4009F0E5FF484809F0F6FF02200AF023F80522872145480AF086FA444809F0FF
:40204000EBFF444B1B782BB19B22FA2142480AF07BFA04E09B22FA2140480AF075FA012C19D13F4809F0D8FF282211463D480AF06BFA374809F0D0FF4B2228213A480AF08E
:4020800063FA6E22282139480AF05EFA9122282137480AF059FA022C19D1314809F0BCFF4B22282130480AF04FFA294809F0B4FF282211462B480AF047FA6E2228212B48E1
:4020C0000AF042FA9122282129480AF03DFA032C19D1234809F0A0FF6E22282123480AF033FA1B4809F098FF282211461D480AF02BFA4B2228211C480AF026FA912228213D
:402100001B480AF021FA042C19D1114809F084FF2822114613480AF017FA4B22282112480AF012FA6E22282110480AF00DFA0C4809F072FF912228210D480AF005FA0121BF
:40214000022000F067FD10BD4067091028310910F83B0910659303083031091034310910D851091038310910503109106C3109108431091010B582B009F0E8FF022009F0CF
:40218000FFFE002009F03EFF6FF07F4009F030FFAF2340F207120121084609F0F9F97823A02246215F2009F0F3F9134809F034FF022009F061FF114809F02EFF02AC002394
:4021C00044F8043D0E4B1A680E49204610F0E0FA5022822120460AF0B7F90B4809F01CFF0F223C2109480AF0AFF90121022000F011FD02B010BD00BFF83B0910D88D091099
:40220000B8E10308A4310910D8510910A831091010B582B009F09AFF022009F0B1FE002009F0F0FE6FF07F4009F0E2FEAF2340F207120121084609F0ABF978235A224621DF
:402240001E2009F0A5F97823E1224621962009F09FF91D4809F0E0FE022009F00DFF1B4809F0DAFE002301930093194C194B1A68214601A810F08CFA174B1A682146684682
:4022800010F086FA50223C2168460AF05DF95022A52101A80AF058F9104809F0BDFE82220A210F480AF050F9822287210D480AF04BF90F221E210C480AF046F90121022010
:4022C00000F0A8FC02B010BDF83B0910D88D0910A4310910B0B20308ACE10308D8510910BC310910CC310910DC3109102DE9F0412DED028BADF5007D06460F46904608EE10
:40230000103ADDED888A09F021FF022009F038FE002009F077FE6FF07F4009F069FE5E4B1B78002B3FD104E0590003AA42F8231001337C2BF8DD00254FF4FA7331E006EBAC
:402340008302D2ED006A38EEC85A76EEC56ADFED537A66EEA76A78EE085A86EEA56A77EEC66A1C1D06EB840393ED007A37EE457A27EE277A87EE256A77EEC67A03AB53F80F
:402380002500013553F82520FDEEE77A17EE903A0732FDEEE67A17EE901A07300AF00CFB23467B2DCBDD3E4B1B78B3B13A4B1B789BB14B23C822194618460AF0FDFA394888
:4023C00009F02AFE37224B2137480AF0BDF80822364B9A600022304B1A70782340F201120721084609F0D4F82E4809F015FE022009F042FE0023029300938DF804302C4C89
:402400003A46214602A810F0C3F942462146684610F0BEF98222BE2126480AF095F88222282125480AF090F8244809F0F5FD9B22412102A80AF088F8214B1B689F4203D862
:40244000204B1B689F4210D2154B1B786BB11E4809F0E2FD1D4C9122192120460AF074F891225A2120460AF06FF8144809F0D4FD9B22B42168460AF067F89B22C821144886
:402480000AF062F80121022000F0C4FB0DF5007DBDEC028BBDE8F081649303080000164365930308D8510910F831091000003240A43109100C320910C0310910F83B09101B
:4024C000B0B20308ACE10308D88D0910143209101832091070B582B009F06AFE142001F0B3FA012001F0B8FA0120FFF777FD794BB3F90030002B0DDB5A0903F01F03012171
:4025000001FA03F32032744941F82230BFF34F8FBFF36F8F0125714B1B78714A1478A3421AD1704B1B78022B04D101356DB2052D00D10125012B03D1013D6DB205B9042532
:402540002846FFF74BFD674B1B78042B01D1634B1D700022634B1A70604B1A78624B1B789A422AD15F4B1B78022B0BD15F4E316805313160C9B20C2000F00EF931780D20B9
:4025800000F00AF9574B1B78012B0BD1574E316805393160C9B20C2000F0FEF831780D2000F0FAF8FFF7E6FD4E4B1B78042B01D14A4B1C7000224B4B1A70484B1A784C4B74
:4025C0001B789A4228D1474B1B78022B0BD1494A12781AB148480168053101601AB947490A6805320A60012B0BD1424B1B781BB141490A68053A0A601BB9404A1368053BA5
:402600001360FFF705FE374B1B78042B01D1334B1C700022334B1A70304B1A78384B1B789A421ED1374B1B68374A92ED007A374AD2ED007A364A12680092BCEEC77A17EE41
:40264000102AFCEEE77A17EE901A3248FFF74EFE244B1B78042B04D10022224B1A701F4B1C701E4B1A782C4B1B789A421ED12B4B1B68254A92ED007A244AD2ED007A284A0B
:4026800012680092BCEEC77A17EE102AFCEEE77A17EE901A2348FFF729FE124B1B78042B04D100220F4B1A700C4B1C70094BB3F90030002B08DB590903F01F03012202FAB1
:4026C00003F3054A42F821304FF4FA6005F040F821E700BFA833091000E100E008A3030815310910BDE1030812310910B8E103081131091054C20308ACE10308B0B2030885
:402700001431091000D2030858C20308B0E1030808D2030868930308133109100CA303085CC20308C0E1030870B584B00646144C144D0095642300225721204602F0BAFF99
:402740002B4664223146204603F022F90095642301225721204603F025F8002104AA02F8011D00956423204603F0B8F82A466421204603F081F89DF80F0004B070BD00BF33
:4027800000006340743E040808B50020FFF7CCFF00F0400008BD00BFF0B583B007460E460E4C0F4D0095642300225721204602F081FF2B4664223946204603F0E9F82B4688
:4027C00064223146204603F0E3F82A466421204603F052F8012003B0F0BD00BF00006340743E040838B540210920FFF7D5FF0446002843D0642004F0ABFF03210920FFF744
:40280000CBFF0446D0B327210A20FFF7C5FF0446A0B340210220FFF7BFFF044670B300210320FFF7B9FF044640B31F210C20FFF7B3FF044610B31F210D20FFF7ADFF0446EB
:40284000E0B10F4D0F49284603F086FEB5F90030002B08DB5A0903F01F00012181406032094840F82210002B08DB590903F01F03012202FA03F3044A42F82130204638BDCF
:40288000A83309100D29081000E100E02DE9F04182B080460D4616461A4C1B4F0097642300225721204602F005FF3B4664224146204603F06DF800976423012257212046D8
:4028C00002F070FF002409E00F4B009364232A1900210C4803F002F80134E4B2731E9C42F2DB084E084F009764232A190121304602F0F4FF3A466421304602F0BDFF02B0E4
:40290000BDE8F08100006340743E040810B590B006220EA90720FFF7B9FF9DF838209DF8393003EB02229DF83A3003EB0222334C216807EE902AF8EEE77A314B03EB81036D
:40294000C3ED007A2F4901A80FF022FF01A92E4801F00CFF9DF83B209DF83C3003EB02229DF83D3003EB022307EE903A2368F8EEE77A264A02EB8302C2ED007A0133236065
:40298000234A82FB0321DA17C2EBA1124FF47A7101FB1232DAB91F491B4801F0E7FE01221D4B1A70002222601C4BB3F9003093420DDB5A0903F01F03012101FA03F3203280
:4029C000174941F82230BFF34F8FBFF36F8F154B5A6980225A615B69104BB3F90030002B09DB5A0903F01F03012101FA03F360320B4941F8223010B010BD00BF04D20308F9
:402A00000CD203081C32091000006640B4B20308D34D621020320910BCE10308A833091000E100E08006324008B505F0CBFC07F027FFFFF7D7FE00230C4A13700C4A1360B7
:402A4000FFF7A2FE0B4BB3F90030002B08DB590903F01F03012202FA03F3074A42F8213041F2883004F074FEFAE700BFBCE1030804D20308A833091000E100E00D4B5A69CE
:402A800001225A615B690C4BB3F90030002B09DB5A0903F01F03012101FA03F36032074941F822300822064B5A600122054B1A70704700BF800632407833091000E100E015
:402AC000000032406493030808B505F0C1FC134A134B5A6413486823437000238370124BC361124B0362124B4362FFF74BF9C0B290B90C4807234371052383710223C371EA
:402B0000112202710D22427300228273C37315230373FFF77DF9C0B240B208BD911F0810C03E040864F10308151F0810BD1E08105177081030B585B002218DF8041005232C
:402B40008DF805309DF8063043F0010303F0FD0343F00C036FF304138DF80630BDF80630042262F34813ADF806309DF809309DF8082002F0F30261F307126FF301028DF8CB
:402B8000082063F07F039DF80A2042F001028DF80A2003F0C00343F040038DF809300D4901A8FFF757F905460B4C0C49204603F0D3FCB4F90030002B08DB590903F01F03C5
:402BC000012202FA03F3064A42F82130284605B030BD00BF64F10308783309107D2A081000E100E008B50021084B19700322012003F052FF064B1860FFF766FFFFF79AFF7B
:402C000041F2883004F0A4FDFAE700BF6493030860F10308F8B506460F4601F08BF80546064C3B4632460146204600F021FF41F2B062294620460FF07DFDF8BDB84B0208AC
:402C400008B505F053FC06F0DBF806F069F80028FBD105F069FC012005F09CFE10B102220B4B1A70002005F095FE10B10122084B1A70022005F08EFE10B10422044B1A70A4
:402C800005F0ACFF06F0BCF8642004F061FDDCE7BDE1030870B5B8B006460D46CC22104905A80FF047FD0F4B1B6800930E4B05AA332102A808F04CF800240AE0094B1B688E
:402CC00003FB04F189006A18314402A808F052F80134044B5B689C42F0D338B070BD00BF54320910AC420208686202082DE9F041154E00213160154D2960154B00221A600B
:402D0000144C2160DFF85480C8F8002012490A6000F5FA672A464FF4FA71384607F080FF434622464FF4FA71384607F0E1FED5ED007A94ED007A77EEC77AC6ED007A17EEF8
:402D4000900ABDE8F08100BF9CF10308A8F10308A0F1030898F103088CF1030890F103080023114A1360114A13604FF4FA730BE000EB830292ED007A0B4AD2ED007A77EEAE
:402D8000877AC2ED007A0133B3F57A7FF0DB064BD3ED006A9FED067AC6EE877A034BC3ED007A17EE900A704794F10308A4F103080000FA4330B52DED028B93B000238F4A07
:402DC00013608F4A13608F4A13608F4A13608F4A13608F4B1B788F4A1278934204D08E4A1278934240F0FE808C4B1B78002B00F0FD808B4D29468B48FFF74CFF8A4C214638
:402E00008A48FFF747FF2846FFF7AAFF7D4B18602046FFF7A5FF06EE900A7B4B1860002218E093007E491944D1ED007A754991ED007A77EEC77A7E491944C1ED007A7A49F7
:402E40001944D1ED007A77EEE67A7A490B44C3ED007A0132B2F57A7FE3DB7548FFF746FF6A4C20607348FFF741FF07EE900A724B186094ED006A634B93ED007AC6EE076A90
:402E8000614B93ED006A87EE867A86EE878A5B4B83ED008A18EE100A0EF0C2FE0022674B0EF012FF0022664B0EF05CFD0FF01EF9534B1860DFED637A28EE278AFDEEC87A2E
:402EC00017EE902A604905A80FF062FC05A95F4801F04CFC002201920292039204924FF4FA73104651E04E4A02EB8301D1ED007A591E02EB810292ED007AF4EEC77AF1EE04
:402F000010FA3FDD5A1C464901EB820292ED007AF4EEC77AF1EE10FA34DD5A1F01EB820292ED007AF4EEC77AF1EE10FA2ADD5A1D01EB820292ED007AF4EEC77AF1EE10FAFF
:402F400020DDA3F1140201EB820292ED007AF4EEC77AF1EE10FA15DD03F11401304A02EB810292ED007AF4EEC77AF1EE10FA09DD12AA02EB800207EE903AF8EEE77A42ED05
:402F8000117A0130052803D00133B3F57A7FAADB9DED027A9DED016A37EE466ADFED2C6AC6EE867A9FED2B6A77EE867A9DED036A36EE477AC6EE875A77EEA57A9DED047A92
:402FC00037EE467A86EE876A77EE867AF0EE086A87EEA67A204B83ED007A4FF4FA6004F0B7FB03E04FF47A7004F0B2FB00220B4B1A704FF4FA6004F0ABFBEAE6B4E103084B
:4030000058C2030808D203085CC2030800D2030808A303081331091014310910BCE10308689303080CD20308C0E10308B4B2030860C2030810A303080CA30308000029C0CD
:4030400000405A4000007A4420330910000066400080BB4500000000B0E103082DE9F04180460E4617460A4C08256560702000F06FFD404600F06CFDA5606560722000F06D
:4030800067FD3946304600F0C7FDA560BDE8F0810006324000B583B002AB03F8011D01221946FFF7DBFF03B05DF804FBF8B507460E46094C08256560702000F049FD384690
:4030C00000F046FDA5606560732000F041FD304600F06EFDA560F8BD0006324038B50425084B5D60084C402363601023636000F0FFFC0822054B5A6065602023636000F09F
:40310000E1FC38BD00003240800232400006324010B5434C6F22002120460FF031FB631C236704F14E03636704F12203A36700F0C9FC03E000F0D0FC032868D800F0AEFDB1
:403140000028F7D100F0CEFC00217220FFF7AEFF00F00F0002285CD14021FFF79BFF00210F20FFF7A3FF10F0800F54D002210B20FFF790FF08222B490120FFF76FFFD12185
:403180000720FFF787FF02210820FFF783FFC2210920FFF77FFF03210420FFF77BFF01210320FFF777FF00210320FFF773FF0A2003F00CFA002400E01C4601210520FFF74E
:4031C00069FF642003F002FA03210520FFF762FF322003F0FBF90F210520FFF75BFF322003F0F4F900210F20FFF760FF10F0400F05D040210220FFF74DFF234603E0631CEB
:403200009BB2042CD8D1032B07D9052010BD012010BD022010BD032010BD002010BD00BFD47202082C33091010F1090F0EDB10F1040F0EDB05280FDD0A2810DD0F2811DDCB
:40324000142811DD282811DC5A2210E04FF496620DE04FF461720AE04FF4167207E04FF4A57204E0DC2202E0B42200E03C22034BA3F87C20A3F87E20704700BFD4720208EB
:403280002DE9F84F06460D46047828B1CA4B984205D10127002403E00127FF2400E0002700F010FC4FF00008D0E1C8EBC80AC8EB0A1ADFF80C930AEB090B6F220021584658
:4032C0000FF05EFA0BF1010EBC4BC3F870E00AF148004844063058670AF1200AD14409F10209C3F878902022002397E10FB934780136032D00F29081DFE815F004006500A4
:40330000C600270100EB030C14F0400F01D0C02100E080218CF8001049B214F0100F02D04FF0300A01E04FF0200A4AEA01018CF8001014F0040F02D04FF00C0A01E04FF0B0
:40334000080A4AEA01018CF8001014F0010F02D04FF0030A01E04FF0020A4AEA01018CF800100EEB020C14F0800F01D0032100E002218CF8001049B214F0200F02D04FF0E4
:403380000C0A01E04FF0080A4AEA01018CF8001014F0080F02D04FF0300A01E04FF0200A4AEA01018CF80010013A92B214F0020F02D06FF03F0A01E06FF07F0A4AEA010174
:4033C0008CF8001028E100EB030C14F0400F01D0802100E040218CF8001049B214F0100F02D04FF0200A01E04FF0100A4AEA01018CF8001014F0040F02D04FF0080A01E024
:403400004FF0040A4AEA01018CF8001014F0010F02D04FF0020A01E04FF0010A4AEA01018CF800100EEB020C14F0800F01D0022100E001218CF8001049B214F0200F02D02B
:403440004FF0080A01E04FF0040A4AEA01018CF8001014F0080F02D04FF0200A01E04FF0100A4AEA01018CF80010013A92B214F0020F02D06FF07F0A01E04FF0400A4AEABD
:4034800001018CF80010C7E000EB030C14F0400F01D0C02100E040218CF8001049B214F0100F02D04FF0300A01E04FF0100A4AEA01018CF8001014F0040F02D04FF00C0A50
:4034C00001E04FF0040A4AEA01018CF8001014F0010F02D04FF0030A01E04FF0010A4AEA01018CF800100EEB020C14F0800F01D0032100E001218CF8001049B214F0200F5A
:4035000002D04FF00C0A01E04FF0040A4AEA01018CF8001014F0080F02D04FF0300A01E04FF0100A4AEA01018CF80010013A92B214F0020F02D06FF03F0A01E04FF0400A8A
:403540004AEA01018CF8001066E000EB030C14F0400F01D0802100E0C0218CF8001049B214F0100F02D04FF0200A01E04FF0300A4AEA01018CF8001014F0040F02D04FF082
:40358000080A01E04FF00C0A4AEA01018CF8001014F0010F02D04FF0020A01E04FF0030A4AEA01018CF800100EEB020C14F0800F08D0022107E000BFFFFF0F10D472020829
:4035C000ACF1030803218CF8001049B214F0200F02D04FF0080A01E04FF00C0A4AEA01018CF8001014F0080F02D04FF0200A01E04FF0300A4AEA01018CF80010013A92B221
:4036000014F0020F02D06FF07F0A01E06FF03F0A4AEA01018CF8001001339BB2202B7FF665AEC8F1AF031BB299101A4A134003D5013B63F003030133174A02FA83F31B7A73
:4036400009F8013008F101081FFA88F8B8F1AF0F7FF62BAE00240FE0C4EBC403C4EB03136F220E4919440A20FFF7F8FC07210220FFF710FD0134A4B2AF2CEDD9084BB3F8AA
:403680007C4000F029FA8442E4D800F02BFABDE8F88F00BF030000802C330910ACF10308D47202082DE9F04706460D4600F00AFAD2210920FFF7EEFC0024C6E0C4EBC407A6
:4036C000C4EB0717DFF8008207EB08096F22002148460FF055F809F1010C784BC3F870C007F1480EC6440EF1060EC3F874E02037B84408F10208C3F87880202000218EE00E
:40370000771C32786E1C95F800900EEB010582EA090212F0400F04D019F0400F03D0802302E0402300E0C0232B705BB212F0100F05D019F0100F05D04FF0200A04E04FF00D
:40374000100A01E04FF0300A4AEA03032B7012F0040F05D019F0040F05D04FF0080A04E04FF0040A01E04FF00C0A4AEA03032B7012F0010F05D019F0010F05D04FF0020A78
:4037800004E04FF0010A01E04FF0030A4AEA03032B700CEB000512F0800F04D019F0800F03D0022302E0012300E003232B705BB212F0200F05D019F0200F05D04FF0080AD0
:4037C00004E04FF0040A01E04FF00C0A4AEA03032B7012F0080F05D019F0080F05D04FF0200A04E04FF0100A01E04FF0300A4AEA03032B70013880B212F0020F05D019F079
