:020000041000EA
:4000000000400208230100100D00000085010010000000000000000000000000000000000000000000000000000000008101001000000000000000008101001081010010E9
:400040008101001081010010810100108101001081010010810100108101001081010010810100108101001081010010810100108101001081010010810100108101001060
:400080008101001081010010810100108101001081010010810100108101001081010010810100108101001081010010810100108101001081010010810100108101001020
:4000C00010B5064C2378002B07D1054B002B02D0044800E000BF0123237010BD3C06000800000000E0320010084B10B5002B03D00749084800E000BF07480368002B00D118
:4001000010BD064B002BFBD09847F9E70000000040060008E0320010E8000008000000007047FFF7FDFF72B60F4C104DAC4209DA21686268A368043B02DBC858D050FAE797
:400140000C34F3E70A490B4A0020521A02DD043A8850FCDC084809490860BFF34F8F00F007F900F01DF8FEE7E4320010FC3200103C0600084C0800080000000808ED00E009
:40018000FEE7FEE700B504207146084202D0EFF3098001E0EFF30880043001F09DFBFEE710B5034800F06AF9002001F04FFFFBE70000081010B5002001F00AF910BDC04609
:4001C00070B56249E0239B00CB580F2213401A00D0329200525807210A40032A05D0042A06D0002A12D15A4814E05A4A106811E01A00C0329200554952581F210A40112ABF
:4002000006D0132A04D0FA20C00103E0524801E080200002002B36D14C4BB222D2009A5801211140B125ED005A59120F032422405B591B0F1C4207D0444C63591B0F032458
:400240002340012B02D102E0012300E00023002B01D0002901D1032A4BD13C4BB022D2009D58AD03AD0B3D495958C904C90C9C58240E01231C40013401F09AFF6843210041
:4002800001F096FF35E0012B33D1304BC822D2009A5801251540C024E4001A59120F03210A401B591B0F194207D028490B591B0F03210B40012B02D102E0012300E00023BF
:4002C000002B01D0002D01D1032A12D11F4DC022D200AB587F210B40A958090A1F263140AC58240C3440584301F062FF210001F05FFFE0239B00154AD3581B090322134052
:40030000D840144C6060164B1D692D0AFC32154001351969090E013101F04AFFA060290001F046FF0500E06020610E4BC0180E4901F03EFF20750D4BE818FA21890001F04C
:4003400037FFA061C003E06170BDC0460000264000127A00C000000800366E0184050000000021403F420F0040420F00E703000010B5284801F016FF274CB022D200A3586E
:400380005B005B08A350E0218900635830208343635080235B04A350204A214BE250A02292010433E250FF221E4BE25001F0E8FEC0225200A35801218B43A35000F0CEFA66
:4003C000FFF7FEFEB0235B055B78002B04D0B0235B055B78DBB200E02123212B03D1124B0022DA605A60114C22008021042000F095FD2000103000F029FE0D4B1A68512331
:40040000D35C002B02D00B4800F096FE00F05EFC10BDC046283200100000264001000200840500008C050000E00023405806000848080008382300108023024AD358032006
:40044000184070470000214010B501F0D6FA084980228C58074B2340074C23438B508823034AD358DB06FAD501F0CBFA10BDC04600002140FCFF00000100FA0570B5050084
:40048000830504D0E821FF310F4801F0F7F901F0B4FA0400FFF7D0FF032801D1FFF7D4FF0A4AB0239B00D55080215058084B03400848034353508823044AD358DB06FAD56E
:4004C000200001F09EFA70BD6C23001000002140FCFF00000300FA05FEE7C046F0B50025002711E0BB00C658F3B2FF22964308E06A008A181478A419527822700135013BD9
:40050000DBB2002BF4D10137002FEBD0F0BDC0460323044A1360044A1360044A044B1A607047C046102031401420314001001180000E1F4110B50A00002101F0CEFE10BD2D
:4005400010B501F0C1FE10BDF0B557464E464546E0B486B03C49A022D2008B58032083438B503A490B681A6885301B58D2181068374B184010600A6810688424125980186D
:4005800002681202120A0260086805680259AA181068034080204000034313600B683E229A5C002A06D02848E02189004258753CA24342503E229A5C002A06D02248E021AB
:4005C000890042583024A24342503E229B5C002B07D01D49E02292008B588020000603438B500021012000F025FF0021022000F021FF0021032000F01DFF0021042000F0E2
:4006000019FF0021002000F015FF01A8114903000A0032CA32C312CA12C300F039FF002802D00420FFF758FF07490B4A8B588020000603438B50094800F0E6FF00280FD09C
:400640000420FFF749FFC0460000264048080008FF00FFFF84230010087F0000400D0300AB4CAC4BE158AC4A0A40E250E158AB4A0A40E250E25880252D062A43E250043B96
:40068000E158A74A0A40E250E158A64A0A40802189010A43E250E258802109020A43E250A14A1168A14B0B40802149000B431360002001F047FD9E4BE2581543E550E1588E
:4006C000012291430A43E2506421002001F01CF9984B1B683F229A5C022A06D970229A5C03210A409449986842509A6874215B5AD218D168914B0B408021C9010B43D3602A
:400700008C4B1B6873229A5C03200400944070229A5C7221595C15008D402900214302400A43802109060A438021C900986842509A6852583F229A5C032A06D970229A5C7B
:4007400002210A407E49986842509A6874215B5AD2189168794B0B408021C9010B439360744B1B6873229A5C0321914070229A5C7220185C140084402143022002400A438C
:40078000802109060A438021C900986842509A6852583F229A5C062A06D970229A5C01210A406849986842509A6874215B5AD3185968624A0A405A605E4B1B6873229A5C98
:4007C0000321914070229A5C7220185C140084402143012002400A43802109060A438021C900986842509A6852583F229A5C132A0AD97122985C703A824011000322824083
:400800000A405149986842509A6876215B5AD21811684E4B0B404E490B431360454B1B6873229A5C0324210091400A007021585C0231595C8840104371229A5C01219140D0
:40084000944022000A400243802109060A438021C900986842509A6852583F229A5C332A03D900213B4A986881509A6874215B5AD2181168314B0B40FE2109020B431360E6
:400880002C48016873239C46CA5C703B1C0094407027CA5D72268D5DAA40224380242406A24622438024E4008D682A518A6815597A25A846495B51180A6885352A40264D7D
:4008C0002A430A6001688A68914642468A5A4A441168F825A9431160016862468A5C180090400200C85D8E5DB040104371228A5C93401A0003001343524613438A681351CB
:400900008B681B5906B01CBC90469946A246F0BD0000264004050000FEFCFFFFFFFF00FFFFF0FFFFFF8FFFFF00002740FFFCFFFF0C05000048080008080C0000FF00FFFFC1
:400940000C0C0000180C00004C0C0000FF0000FF004FC300CC0C0000003F420F70B58AB09621002000F0D0FF00F0A6FF002814D100F092FFC0235B00634AD358DB0705D482
:400980001100624A8B585B005B088B505E495F4A8B588020000603438B50012001F070FA5B4A516C5B4B0B40E82189010B435364536C1B0AFF2213403A2B07D1544A516CAD
:4009C000554B0B40E82189010B435364FFF7BCFD524A534B1A6000240CE0620012195300504AD318198B9A8AD88A00041043FFF7A1FD01340B2CF0D900240AE062001219B7
:400A00009300484AD3185A6E196ED86DFFF798FD0134112CF2D9444D2900343128003830FFF75CFD0F22414B1A60414B41490B6041490A60414A13600123414A1360414AF5
:400A40001360414A1368832149000B43136001AC22002B003C3343CB43C243CB43C243CB43C22100394800F039F924220021200001F033FC364BE3602100364800F02EF9C8
:400A800022002B00603323CB23C223CB23C223CB23C22100304800F021F924220021200001F01BFC8023019321002C4800F016F92B4D22002B1D43CB43C243CB43C243CBCA
:400AC00043C22100274800F009F922002B00283343CB43C243CB43C243CB43C22100224800F0FCF822002B004C3323CB23C223CB23C223CB23C221001C4800F0EFF8FFF788
:400B000007FD0AB070BDC046000026400C05000000002740FF00FFFFFFC5FFDF0300FA05F001214084230010842400100000634007010100000263400000644000026440E9
:400B4000047934400879344000793440000032400086660680023240000332408003324004250010800432400006324080063240214B984230D00ED8402831D004D80028A8
:400B80001FD010282AD031E080282BD080235B00984229D02AE0194B984229D007D8A0231B0698420DD0164B984212D01EE0154B98420AD0144B984209D0144B984215D174
:400BC00001E0002016E0124814E0124812E0124810E0A020C0030DE007480BE00F4809E00F4807E00F4805E0034803E00E4801E0A420C0037047C04606005200010000F0C4
:400C0000090000A0040000F0050000F0030000F0010052000200520003005200010050000200500005005200FF00520070B5124B1A683123D35C002B04D1C421FF310F48F5
:400C400000F01CFE0C4B1D682C00B423EB582A6A944663441B68002B0BDB094B1868FFF787FF6B6801229A6063689B68002BFBD100E0044870BDC04648080008A42E001001
:400C8000E80700080200500010B50D4B1861002805D002230370FD33437000234380094B1B6850229A5C002A08D051229B5C002B04D04F3A0449002000F0F8FA10BDC046A2
:400CC000E8070008480800086101000810B502481430FFF7D9FF10BDE807000870B505000C0000285DD000295DD0FF230A689A4303D099212D4800F0C1FDFF2322699A43CA
:400D000003D09A21294800F0B9FDA3685B0D03D09B21264800F0B2FD63685B0A03D09C21224800F0ABFDE3695B0F03D09D211F4800F0A4FD236A5B0F03D09E211B4800F022
:400D40009DFD1B4A11688B69EB1ADB0949691B01CB18216829607D211068415C6918E06808607E211068415C6918206908607F211068415C6918606908607C211068415C38
:400D80006918A06808606168A961116880228A5CAD18A2692A60E2691A60226A5A60002002E0044800E0034870BDC046E42E00104808000801005A0070B504000D000A4BFD
:400DC0001A68B423D3581B181B68002B0ADA0B0C03D00649064800F051FD2D042D0C6560002000E0034870BD48080008D5020000642F001001008A0070B505000C00036840
:400E0000002B01DA002300E0084B002B0BD1EA60230C03D00649074800F030FD2404240CAC60002000E0014870BDC04601008A00BB020000642F001070B505000C1E03D155
:400E40009921084800F01AFD074B1A68B423D3585B191B68002B03DAEB682360002000E0024870BDA42F00104808000801008A0070B504000D00234B1A683123D35C83420B
:400E800036D9002936D00B68DB0635D13123D35C984204D3C421FF311B4800F0EFFC194B1B681A6AB0215B5A5C431419174E34602B68DA080021686801F00FFA00212000BC
:400EC000FFF77AFF3468002D03D111490E4800F0D5FC2A0000212000FFF78EFF00280DD10A4B18680021FFF767FF002808D108E0084806E0074804E0064802E0064800E07F
:400F0000054870BD48080008642F0010000800089303000003018A0001018A0010B50400002A17D1002915D1124B1A683123D35C984204D3C421FF310F4800F09FFC0D4B30
:400F40001B681A6AB0215B5A5C4314190B4B1C6000200EE0002A09D0002909D0074B59609A60191D2000FFF783FF02E0044800E0034810BD48080008642F0010000800082F
:400F800003018A00F0B583B00D001C4B1B68DC68236883422DD947097B01C01A012383401E00002903D100F028FD019001E000230193124B18680368002B01DA002300E003
:400FC0000F4B002B0ED16368BF00DF193B68334203D0B3433B60002400E00A4C0021FFF7EBFE00E0084C002D04D1019800F009FD00E0064C200003B0F0BDC04600080008A8
:4010000001008A00020188000301880004018A000A4B1B68DA68136883420BD943095901401A0121814052689B009B580B4203D0034802E0034800E003487047000800088C
:401040000101880004018A0000018800034B1B68002B01D1014B18607047C0460C080008F0B5474680B404000F0090461E002D4B1B68002B03D1B5212B4800F0FFFB294B55
:401080001B682C2060431C18FF22150035402560330A13406360360CA660244B1A683123D35C9D4204D3C421FF31214800F0E6FB1E4B1A68B023D35A6B43116A8C466344B9
:4010C000236166683223D35C9E4204D3E021FF31174800F0D3FB154B1B681D6A80367601AD196561A668330C04D0FF214900104800F0C4FB330C03D00E490D4800F0BEFBFA
:401100003604330C1E43AE604346E36127620023A361069B002B02D000229B5EA38104BC9046F0BD0C080008E42F001048080008642F0010FF010000F0B58FB0041E03D116
:401140005221294800F09AFB6368032B03D95421254800F093FBE36A002B03D15821224800F08CFB236B002B03D159211E4800F085FB07AA1300210061C961C321C921C34D
:4011800002AD290023001433C1CBC1C141CB41C10821535E0CAE3380144B1B6836215B5E07998C466344B370089B0D930B9B0A980096A26AE16AFFF753FF2B69E868002296
:4011C00000920021FFF74CFF216B300000F0E8FA0023F25E002A05DB1F231A401E3B9340034A13600FB0F0BDE42F00104808000800E100E0F8B505000F0016001C00002AA3
:4012000003D1FD21224800F039FB224B1B68002B03D1FE211E4800F031FB1E4B1B682C2128004843181879435918012213004D68AB401B044568AA4015000269002A20D02F
:401240008F69002F1FD11268002A01DA002200E0114A002A19D132681204120C134333600369DE6001238B614C6204692B0C03D00A490B4800F002FB2A04120CA2600020D0
:4012800004E0084802E0084800E00748F8BDC046E42F00100C08000801008A00BB020000642F001004028A0007028A0070B504000D0016000F4B1B68002B04D1AF2149004F
:4012C0000D4800F0DBFA0B4B1B682C2060431C18236A002B04D1B1214900074800F0CEFAE369B34204D9236AB6009D51002000E0024870BD0C080008E42F00100A028A008E
:4013000070B582B0040000230193002804D1D221FF312D4800F0B2FA2369002B04D1E9214900294800F0AAFA6369002B04D1D421FF31254800F0A2FA236A002B04D1EA2104
:401340004900214800F09AFA6269D5682B0C24D01B041360136820691C4B1A68B423D358C3181B68002B18DA01A9FFF765FD00280ED1019803681E0CFF221340E26993423D
:4013800007D29B00226AD358002B02D0984700E0002631002069FFF70FFD2D042D0C0FD063691D601B68636A002B03D098470023636203E0A36A002B00D098470023A361CC
:4013C00063691B6802B070BDE42F00104808000810B50400084B1B68002B04D1B221FF31064800F04BFA044B1B682C2060431818FFF786FF10BDC0460C080008E42F0010A1
:4014000010B50400094B1B689B6CC340DB0703D4BE21074800F032FA044B1B681B691034A402E3580F20184010BDC0464808000824300010134B1A683C23D35C83421DD945
:40144000042904D94B1EFF3B9BB2132B18D8FF290CD91F2319400C4A0300C0339B009950D03080000423835000200AE007231940D0308000044BC150002002E0034800E0B8
:4014800002487047480800080000264001004A0070B5041E03D14A494A4800F0EFF9B023DB00494AD358002B00DA87E0474B22689A4203D94649434800F0E0F923689B0352
:4014C0009B0BE279002A02D08022520400E000221343B022D2003C498B50A2883D4B9A4204D98C218900374800F0C8F922893A4B9A4203D93949334800F0C0F9A388DB0432
:40150000D90C23891B04364A13400B43354A2E498B50A37A0F2B04D98E218900294800F0ADF9E37A0F2B03D92F49264800F0A6F9A289284B9A4203D92C49224800F09EF9F2
:40154000A37A0F211940E27A1201FF2313400B43A289120226490A401343A27B1207C02189050A401343B122D20017498B50A379042B03D91F49134800F080F9228A164BC0
:401580009A4204D9912189000E4800F077F90E4819494558194B1D40A3791B02E022D20013402B4343504558154B1D40238A1B040B4A13402B434350002000E0114870BDB5
:4015C0001F0200006430001000002640FFFF030029020000FF1F0000FF010000310200000000FF0184050000390200003A02000000FF1F00430200008C050000FFF8FFFF5A
:40160000FFFF00FE03004A0070B505003149324A8B588020000603438B502C0003E0012000F020F9013CB223DB002A4AD3585B0701D4002CF3D12749B122D2008858274B44
:4016400003408020800503438B50002D01D0002C0CD02049B022D2008B588020000603438B5003E0012000F0FDF8013CB223DB00184AD358DB0701D4002CF3D1002D01D01C
:40168000002C08D01349B122D2008B58C020800503438B5013E00F4BB121C90058580F4A02408020800502435A5008395A58520052085A5008495A58520052085A50002DA6
:4016C00003D0002C03D0002002E0002000E0044870BDC046000026408C050000FFFFFFCF02004A0070B505000C001A4B1B6828229A5C012A15D1820807211000884327D194
:401700009200AD1AED00FF20A8401B6820339A181168AC4023004B40184004004C40146016E03A229B5EDBB2994203D176210A4800F0A4F8074B1B681B68072215408022F1
:40174000120615438022920194466444A400E55070BDC04648080008EC30001070B504000D000B4B9A680B4B9A420CD1002904D13821FF31084800F081F81034054BA4009D
:40178000E058E55003E01034A400044BE05870BD00ED00E000000008EC30001000000010F0B5474680B482B0061E01914AD04368032B03D93221264800F060F80023F05E95
:4017C000002804DBB178FFF78DFF002400E0214C0023F15E7368002912DB88081E4FC0308000C55903221140C900FC3290468A4095439A01434613408B402B43C35116E039
:4018000089B20F220A40083A92080632920013481018476803221140C900FF252A008A4097439A012B0013408B403B4343600B4B9A680B4B9A4206D10023F05E0199FFF782
:401840008DFF00E0034C200002B004BC9046F0BDEC3000100100560000E100E000ED00E00000000810B5034B1B78584300F0BCF810BDC046D400000801BEFEE770B50D0015
:40188000044C18220100200000F02FFDA5610020FFF7F2FF00060008054B802212069A649B6C002B01DB002000E002487047C0460000274003004600054B80221201985884
:4018C0005B68FF221A4202D08023DB021843704700002640FEE7C04610B50A4B0268DA6142681A6282685A62C2689A620269DA6242691A6382695A63C2699A63FFF7EAFFC4
:4019000010BDC04600060008F0B5474680B4002801D0192300E064238B429B415B42304D2C682268A826A45BA41822680327BA433B401A4322602C682268A45BA2181668FA
:40194000284CA046264016602C682668AA229446A25A96193268BA43134333602A6813686546525BD3181A68444614401C60002805D010291BD921291BD8012024E0184B23
:401980001B6855229A5C914215D956229A5C914213D957229A5C914211D958229A5C91420FD959229B5C99420DD804200CE000200AE0022008E0002006E0012004E002206F
:4019C00002E0032000E00520054A1268526813680F218B430343136004BC9046F0BDC04648080008FFFCFFFF0230800803D001300238FCD1C046C0467047EFF3108072B66C
:401A0000704780F31088704710B5B0235B059B899BB2002B04D0B0235B059B899BB201E080235B0080225200934215D1184C23681968683A9B58C9180B680F208343963A75
:401A400013430B6021680C689C23CB58E318196881430A431A6019E00D4C2368196898229B58C918B02040050A4BC2580A4B13400A681343C022920013430B6022681168A7
:401A80009C23D358CB18054A82581A6010BDC0464808000848180000FFFCFFFF4418000030B5B0235B059B899BB2002B04D0B0235B059B899BB201E080235B0080225200D7
:401AC000934215D1184C23681968683A9B58C9180B680F208343953A13430B6021680C689C23CB58E318196881430A431A6019E00D4D2B68196898229B58C918B024640535
:401B0000C12040012258094B13400A681343C022920013430B602A6811689C23D358CB1822581A6030BDC04648080008FFFCFFFFB0235B059B899BB2002B04D0B0235B057F
:401B40009B899BB201E080235B008022520093420DD1104B1B681A6898215B58D21811680D4B0B40C021C9010B43136011E0094B1B68196898229B58C918084BB0225205DD
:401B8000D258074B13400A681343C022920013430B60704748080008FF8FFFFF18180000FFFCFFFF30B5B0235B059B899BB2002B04D0B0235B059B899BB201E080235B008A
:401BC0008022520093420DD1134B1B681A6898215B58D2181168114B0B408021C9010B43136018E00C4D2B68196898229B58C918B02464050A4822580A4B13400A681343CD
:401C0000C022920013430B602A6811689C23D358CB1822581A6030BD48080008FF8FFFFF4C180000FFFCFFFF10B5B0235B059B899BB2002B04D0B0235B059B899BB201E088
:401C400080235B0080225200934217D10020FFF7D7FBB0235B055B78002B04D0B0235B055B78DBB200E02123222B03D8002803D1013004E0012002E0002000E0012010BDE7
:401C800030B585B004000D00022807D9042805D0032803D02A492B48FFF7F0FD6B1EDBB2012B07D9042D05D0082D03D026492548FFF7E4FDA400254BE458042D13D0012DB2
:401CC0001CD112E0A3682B420BD1E3681A6802925B6801930393290002A8236898471B4B5C61646902E0002000E00020002C24D0174B9842E6D1012DE4D11EE0022D01D13F
:401D000004E01C006369002BFBD104E00F4B5C69002C00D0246900200DE0A3682B4209D1E3681A6802925B6801930393290002A8236898472469002CEFD105B030BDC04649
:401D4000B209000030310010B309000010080008FF004200F8B50700012803D93D493E48FFF78CFDB0235B055B78002B04D0B0235B055B78DBB200E021239DB2B0235B0598
:401D80009B899BB2002B04D0B0235B059E89B6B201E0802676000020FFF732FB002814D180235B009E4212D1222D12D82B4B1B685C682B4821582B4B19403B0680225204F9
:401DC00013400B432350002404E0274C02E0264C00E0254C80235B009E4201D1222D03D880235B009E4232D01C4B1A683123D35C002B04D1C421FF311C48FFF73FFD174B7C
:401E00001B681D6A80235B009E4203D1002F05D0174A06E0002F03D0164A02E0164A00E0164A01212800FEF7E7FF00280FD10B4B1A68B423D3585B191B68002BF7DBEB6869
:401E40001B0E1B06A0221206934200D100242000F8BDC0464C0A0000303100104808000818F00000FFFFFFFE04004200A42E0010010100300300000C010000300100000CD0
:401E8000F8B50500012804D9822109012948FFF7F5FCFFF7C9FE002849D0FFF7AEFD0700002D11D10021244B244AD150E823DB00B0225205D65CF6B20120FFF74BFF041E25
:401EC00019D1FFF7A1FD16E0B02252051C4BD0581A4B194958501B49565CF6B21A481A581F218A4314390A431A500320FFF7BAFCFFF758FE0024002C15D11049124A8B58BB
:401F00001F20834306401E438E50002D02D1FFF70FFE08E00720FFF7A5FCFFF7C1FD0020FFF718FF04003800FFF76BFD00E0074C2000F8BD30310010307F00000000264065
:401F400010180000410700001CFF00000300420010B5041E03D115491548FFF78FFC154B1A68D168F222D2018A5822601B68F022D201D9688A5862600F4AD9688A58A26069
:401F80000E4AD9688A58E2600D4AD9688A5822610C4AD9688A5862610B4AD9688A58A261DA680A4BD358E36110BDC046A10A00003031001048080008047800000878000067
:401FC0000C78000010780000147800001878000010B5041E03D114491448FFF74FFC144B1B68F022D201D96860688850114AD968A0688850104AD968E06888500F4AD9688B
:40200000206988500E4AD968606988500D4AD968A06988500C4AD968E0698850DA682168F223DB01D15010BDC90A0000303100104808000804780000087800000C7800000E
:4020400010780000147800001878000070B50500012804D9A62189003548FFF70FFC354B5B68002B05D001210120FFF709FE040000E00024002C53D1FFF7BFFC06002D4BB4
:402080005B68002B03D004210120FFF7F9FD2A4B1B6843229A5C002A08D09A68E023D358DB0603D523481830FFF752FFB0235B059B899BB2002B04D0B0235B059B899BB2AE
:4020C00001E080235B0080225200934203D1280000F02AF909E0194A116904230B431361012D01D030BF00E020BF134B1B6843229A5C002A08D09A68E023D358DB0603D5A6
:402100000C481830FFF764FF3000FFF77AFC094B5B68002B09D008210120FFF7B1FD04E002210120FFF7ACFD054C200070BDC04630310010100800084808000800ED00E0E4
:40214000FF004200042805D10B4A116804230B4313600FE0094B1A681168A023D358CB180006C022920410401860034A136804218B4313607047C04610E000E048080008FE
:402180000749C02252008B589B009B088020C00503438B508B588020000603438B50704700002640014B18607047C04648080008002243088B4274D303098B425FD3030ABB
:4021C0008B4244D3030B8B4228D3030C8B420DD3FF22090212BA030C8B4202D31212090265D0030B8B4219D300E0090AC30B8B4201D3CB03C01A5241830B8B4201D38B033B
:40220000C01A5241430B8B4201D34B03C01A5241030B8B4201D30B03C01A5241C30A8B4201D3CB02C01A5241830A8B4201D38B02C01A5241430A8B4201D34B02C01A5241E5
:40224000030A8B4201D30B02C01A5241CDD2C3098B4201D3CB01C01A524183098B4201D38B01C01A524143098B4201D34B01C01A524103098B4201D30B01C01A5241C30834
:402280008B4201D3CB00C01A524183088B4201D38B00C01A524143088B4201D34B00C01A5241411A00D20146524110467047FFE701B5002000F006F802BDC0460029F7D00A
:4022C00076E770477047C046002310B59A4203D0CC5CC4540133F9E710BD03008218934202D019700133FAE77047030030B5002A0DD00C7801335D1E013A2C700131002C65
:40230000F5D19A189A4202D01C700133FAE730BDF8B5C046F8BC08BC9E467047F8B5C046F8BC08BC9E46704701B40248844601BC604700BF3503000803000000010000002D
:40234000010000000000000005036000040000000100000000000000010000000604600008000000C8070008B501001073797374656D5F70736F63365F636D30706C7573CD
:402380002E630000F4010000140004010A000905080000006301000000203440740080203440740000223440740080223440740000243440740080243440740000263440A4
:4023C0007400802634407400002834407400802834407400002A34407400802A34407400002134407425001090000000002334400426001090000000002534409426001005
:402400009000000000273440242700109000000000293440B427001090000000002B3440442800109000000000603440D42800107C00000080603440502900107C0000000E
:4024400000613440CC2900107C00000080613440482A00107C00000000623440C42A00107C00000080623440402B00107C00000000633440BC2B00107C0000008063344075
:40248000382C00107C00000000643440B42C00107C00000080643440302D00107C00000000653440AC2D00107C00000080653440282E00107C000000DF04E30102203440D1
:4024C00010000000000000000000000000660A000000000000000000000000000000000000000000030000000000000000000000CC0000BA000000000000000000000000D3
:402500001313000000001D1D830000000000000000000000CC00000000000000000000000000000013130000000000000700000000000000000000008666000000000000D3
:40254000000000000000000014141400000000004000000000000000000000000B0000060000000000000000000000000000000000000000000000000000000000000000CE
:40258000FFFFFFFFFFFFFFFFFFFFFFFFFFFFFFFFFFFFFFFFFF000000FFFFFFFFFFFFFFFFFFFFFFFFFFFFFFF5FFFFFFFFFF000000000000000000000000000000000000004F
:4025C00000000000000F0000FFFFFFFFFFFFFFFFFFFFFFFF111111111111111111111111111111111111111111111111111111111111111111111D111111111111111111E0
:4026000011111111000000000000000000000000FFFFFFFFFFFFFFFFFFFFFFFFFFFFFFFFFFFFFFFFFF000000FFFFFFFFFFFFFFFFFFFFFFFFFFFFFFFFFFFFFFFFFF00000080
:40264000000000000000000000000000000000000000000000000000FFFFFFFFFFFFFFFFFFFFFFFF111111111111111111111111111111111111111111111111111111118A
:402680001111111111111111111111111111111111111111000000010000000000000000FFFFFFFFFFFFFFFFFFFFFFFFFFFFFFFFFFFFFFFFFF000000FFFFFFFFFFFFFFFFE2
:4026C000FFFFFFFFFFFFFFFFFFFFFFFFFF00000000000000000000001F000000000000000000000000000000FFFFFFFFFFFFFFFFFFFFFFFF11111111111111111111111108
:40270000111111111111111111111111111111111111111111111111111111111111111111111111000000000000000000000000FFFFFFFFFFFFFFFFFFFFFFFFFFFFFFFF45
:40274000FFFFFFFFFF000000FFFFFFFFFFFFFFFFFFFFFFFFFFFFFFFFFFFFFFFFFF000000000000000000000000000000000000000000000000000000FFFFFFFFFFFFFFFF7B
:40278000FFFFFFFF111111111111111111111111111111111111111111111111111111111111111111111111111111111111111111111111000000000000000000000000ED
:4027C000FFFFFFFFFFFFFFFFFFFFFFFFFFFFFFFFFFFFFFFFFF000000FFFFFFFFFFFFFFFFFFFFFFFFFFFFFFFFFFFFFFFFFF0000000000000000000000000000000000000003
:402800000000000000000000FFFFFFFFFFFFFFFFFFFFFFFF1111111111111111111111111111111111111111111111111111111111111111111111111111111111111111B8
:4028400011111111000000000000000000000000FFFFFFFFFFFFFFFFFFFFFFFFFFFFFFFFFFFFFFFFFF000000FFFFFFFFFFFFFFFFFFFFFFFFFFFFFFFFFFFFFFFFFF0000003E
:40288000000000000000000000000000000000000000000000000000FFFFFFFFFFFFFFFFFFFFFFFF1111111111111111111111111111111111111111111111111111111148
:4028C000111111111111111111111111111111111111111100000000000000001F1F1F1F1F1F1F1F1F1F1F1F1F1F1F1F1F1F1F1F1F1F1F1F1F1F1F1F1F1F1F1F00000000A4
:402900000000000000000000000000000000000000000000FFFFFFFFFFFFFFFFFFFFFFFF111111111111111111111111111111111111111111111111111111111111111183
:402940001111111111111111111111111111111100000000000000001F1F1F1F1F1F1F1F1F1F1F1F1F1F1F1F1F1F1F1F1F1F1F1F1F1F1F1F1F1F1F1F000000000000000067
:4029800000000000000000000000000000000000FFFFFFFFFFFFFFFFFFFFFFFF111111111111111111111111111111111111111111111111111111111111111111111111BF
:4029C00011111111111111111111111100000000000000001F1F1F1F1F1F1F1F1F1F1F1F1F1F1F1F1F1F1F1F1F1F1F1F1F1F1F1F1F1F1F1F00000000000000001F0000000C
:402A0000000000000000000000000000FFFFFFFFEFFFFFFFFFFFFFFF111111111111111111111111111111111111111111111111111111111111111111111111111111110A
:402A4000111111111111111100000000000000001F1F1F1F1F1F1F1F1F1F1F1F1F1F1F1F1F1F1F1F1F1F1F1F0A1F1F1F1F1F1F1F0000000000000000000000000000000003
:402A80000000000000000000FFFFFFFFFFFFFFFFFFFFFFFF111111111111111111111111111111111111101111111111111111111111111111111111111111111111111137
:402AC0001111111100000000000000001F1F1F1F1F1F1F1F1F1F1F1F1F1F1F1F1F1F1F1F1F1F1F1F1F1F1F1F1F1F1F1F0000000000000000000000000000000000000000B2
:402B000000000000FFFFFFFFFFFFFFFFFFFFFFFF11111111111111111111111111111111111111111111111111111111111111111111111111111111111111111111111171
:402B400000000000000000001F1F1F1F1F1F1F1F1F1F1F1F1F1F1F1F1F1F1F1F1F1F1F1F1F1F1F1F1F1F1F1F00000000000000000000000000000000000000000000000075
:402B8000FFFFFFFFFFFFFFFFFFFFFFFF11111111111111111111111111111111111111111111111111111111111111111111111111111111111111111111111100000000F1
:402BC000000000001F1F1F1F1F1F1F1F1F1F1F1F1F1F1F1F1F1F1F1F1F1F1F1F1F1F1F1F1F1F1F1F000000000000000000000000000000000000000000000000FFFFFFFFF9
:402C0000FFFFFFFFFFFFFFFF11111111111111111111111111111111111111111111111111111111111111111111111111111111111111111111111100000000000000006C
:402C40001F1F1F1F1F1F1F1F1F1F1F1F1F1F1F1F1F1F1F1F1F1F1F1F1F1F1F1F1F1F1F1F000000000000000000000000000000000000000000000000FFFFFFFFFFFFFFFF7C
:402C8000FFFFFFFF11111111111111111111111111111F11111111111111111111111111111111111111111111111111111111111111111100000000000000001F1F1F1F5E
:402CC0001F1F1F1F1F1F1F1F1F1F1F1F1F1F1F1F1F1F1F1F1F1F1F1F1F1F1F1F00000000000000000A000000000000000000000000000000FFFFFFFFFFFFFFFFFFFFFFFF72
:402D000011111111111111111111111111111111111111111111111111111111111111111111111111111111111111111111111100000000000000001F1F1F1F1F1F1F1F6B
:402D40001F1F1F1F1F1F1F1F1F1F1F1F1F1F1F1F1F1F1F1F1F1F1F1F000000000000000000000000000000000000000000000000FFFFFFFFFFFFFFFFFFFFFFFF1111111133
:402D8000111111111111111111111111111111111111111111111111111111111111111111111111111111111111111100000000000000001F1F1F1F1F1F1F1F1F1F1F1FB3
:402DC0001F1F1F1F1F1F1F1F1F1F1F1F1F1F1F1F1F1F1F1F000000000000000000000000000000000000000000000000FFFFFFFFFFFFFFFFFFFFFFFF1111111111111111EB
:402E00001111111111111111111111111111111111111111111111111111111111111111111111111111111100000000000000001F1F1F1F1F1F1F1F1F1F1F1F1F1F1F1FFA
:402E40001F1F1F1F1F1F1F1F1F1F1F1F1F1F1F1F000000000000000000000000000000000000000000000000FFFFFFFFFFFFFFFFFFFFFFFF111111111111111111111111A2
:402E800011111111111111111111111111111111111111111111111111111111111111111111111147656E6572617465645F536F757263655C50536F43365C70646C5C640C
:402EC0007269766572732F7065726970686572616C2F6970632F63795F6970635F6472762E68000047656E6572617465645F536F757263655C50536F43365C70646C5C64E8
:402F00007269766572735C7065726970686572616C5C6770696F5C63795F6770696F2E630000000047656E6572617465645F536F757263655C50536F43365C70646C5C64EA
:402F40007269766572735C7065726970686572616C5C6770696F5C63795F6770696F2E680000000047656E6572617465645F536F757263655C50536F43365C70646C5C64A5
:402F80007269766572735C7065726970686572616C5C6970635C63795F6970635F6472762E68000047656E6572617465645F536F757263655C50536F43365C70646C5C64A0
:402FC0007269766572735C7065726970686572616C5C6970635C63795F6970635F6472762E63000047656E6572617465645F536F757263655C50536F43365C70646C5C6465
:403000007269766572735C7065726970686572616C5C6970635C63795F6970635F706970652E630047656E6572617465645F536F757263655C50536F43365C70646C5C64C2
:403040007269766572735C7065726970686572616C5C70726F745C63795F70726F742E630000000047656E6572617465645F536F757263655C50536F43365C70646C5C647D
:403080007269766572735C7065726970686572616C5C737973636C6B5C63795F737973636C6B2E630000000047656E6572617465645F536F757263655C50536F43365C7025
:4030C000646C5C647269766572735C7065726970686572616C5C737973636C6B5C63795F737973636C6B2E680000000047656E6572617465645F536F757263655C50536F95
:4031000043365C70646C5C647269766572735C7065726970686572616C5C737973696E745C63795F737973696E742E630000000047656E6572617465645F536F7572636560
:403140005C50536F43365C70646C5C647269766572735C7065726970686572616C5C737973706D5C63795F737973706D2E63000000002040000024400000004000000000E9
:4031800000002340000030400000314000009F40000022400000104002020202020202020210101D800017007500FF030602063604102000000000007FC000000004000022
:4031C000000000000019324B647D00804000080B100000000000FF012002001F00800004FF081018001000140018001C4044484C500000000810000008000000040000009D
:40320000041000000012000004210000002100000016000040114002C41300138013A013200000001C000000000021400000254000000140000034400000244000003140BD
:403240000000324000001F410000234000001140010101010101010101101010800019005500F0000501053B04101C01010000000FC000000004000001010101011D3A57B3
:40328000789600082000101208000000001F00000010000F002000023F06080E00080009000A000B24282C3034000000100000009000000088000000080000008000000041
:4032C00004F0000000F00000400200002005A000D00100018001A0012000000010000000000000000000001000000008C000000004330010C0000008400500003C06000849
:40330000100200000048E80100127A0000093D0000093D0000093D0004000000A00F00000000D007E9000010C10000100000000010B50004400B27D0144B1A68146AB0235B
:40334000D15ACA00531AE3181B68002BF4DA3E220F4B1A600F4A104B1A60104B0621A322D20099500E4A98509B58084B1A68106AB023D15ACA00531AC31800225A60084B4F
:40338000064AD358002BFADA10BDC04648080008040126401E1F000008012640000026401C05000010B54378FF2B20D100F02AFA04000F4B1A683123D35C042B04D8C421C8
:4033C000FF310C4800F006FA094B1A68116AB023D35A9B00CB18DB685A68116801230B4313601368DB07FCD4200000F0EBF910BD48080008A42E0010F0B585B00190029101
:40340000544B1A683123D35C002B04D1C421FF31514800F0DFF94F4B1B681E6AB4229A58971950229B5C002B77D000F003FA050003283CD1474B1A683123D35C062B04D8AC
:40344000C421FF31444800F0C5F9424B1968B023CB5A5A00D21853000A6A94466344B4228A58D3181B68002B23DB002000F0DAF93A4B98421FD03A4B1A690023002101207E
:4034800000F0B8F9002803D0364C17E0013400E00024002000F0C6F9304B984202D0324B9C42F3D9304B9C4207D92E4C06E0002404E02C4C02E02B4C00E00024002C46D1E8
:4034C00000F0A0F90390294B294AD358002B13DA234A0121300000F06DF900280ED10298FFF726FF019B002B0AD03B68002BFCDB00F078F9040004E01A4C02E0194C00E099
:403500001C4C032D05D10121002000F083F90028F9D1039800F056F919E000F073F905000F4A0121300000F045F9002809D1019B002B08D03B68002BFCDB00F053F90400EA
:4035400002E0084C00E00B4C280000F03BF9200005B0F0BD48080008A42E001001018800E807000805005200EF4902001C0500000000264001005000F0B54F464646C0B4B2
:40358000824B1A685468B0235B055B78002B04D0B0235B055B78DBB200E02123212B67D1B023D15ACB005B1A116A8C46634419680029F5DADD6802212943D960B023D15A0A
:4035C000CB005B1A116A8C466344D968C9073ED5D9680904090C8C4684271168D559A84641440968090A0904FF26360431400D0088261168894691598846C1444946096858
:40360000090A0906294365462943D9601168D359C9180A685E4B98461A4090252D012A430A605A4B99461A6813689C46925962441368414619400B002B4313604B461A68CB
:403640001568D15969180B689359EB181B684F4B1A68B021555AEB005B1B156AAC46634400255D60156A515ACA00531AEB185B68484A116904230B431361012801D030BF41
:4036800000E020BF414B1A68B023D15ACB005B1A116A8C46634419680029F3DAB02149054978002904D0B02149054978C9B200E02121212932D1D968C90722D510688421C8
:4036C000525880180468324A1440DB681B0C1B02FF2109020B40234303602C4B19688823C8580B689C46604403681A400D6AB023CC5AE1000B1BEB18DB681B0E1B021A43A5
:403700000260224B1A68106AB023D15ACA00531AC318DA6802218A43DA6028E086235B00E358002B23D11C4807681C4BA321C9005E581B4A904615681A4A02600620585013
:403740003E21424611600631174A9950164B134AD358002BFADA154A86235B00E2500E4B1F60A323DB000D4AD6500D4B1D60074B1A68106AB023D15ACA00531AC3180022A8
:403780005A600CBC90469946F0BDC04648080008FF00FFFF00ED00E00801264000002640040126401E1F00001C050000AAAAAAAA0000000001B40248844601BC604700BFCB
:4037C000F90D001001B40248844601BC604700BF031A001001B40248844601BC604700BF7D18001001B40248844601BC604700BF2D0C001001B40248844601BC604700BFE8
:40380000F511001001B40248844601BC604700BFFB19001001B40248844601BC604700BF850F001001B40248844601BC604700BF1110001001B40248844601BC604700BFC9
:4038400039040010000000000000000000000000000000000000000000000000000000000000000000000000000000000000000000000000000000000000000000000000FB
:403880000000000000000000000000000000000000000000000000000000000000000000000000000000000000000000000000000000000000000000000000000000000008
:4038C00000000000000000000000000000000000000000000000000000000000000000000000000000000000000000000000000000000000000000000000000000000000C8
:403900000000000000000000000000000000000000000000000000000000000000000000000000000000000000000000000000000000000000000000000000000000000087
:403940000000000000000000000000000000000000000000000000000000000000000000000000000000000000000000000000000000000000000000000000000000000047
:403980000000000000000000000000000000000000000000000000000000000000000000000000000000000000000000000000000000000000000000000000000000000007
:4039C00000000000000000000000000000000000000000000000000000000000000000000000000000000000000000000000000000000000000000000000000000000000C7
:020000041008E2
:4000000000780408EB0208100D0000005103081051030810510308105103081000000000000000000000000000000000315908104D03081000000000D1590810355A081087
:400040004D0308104D0308104D0308104D0308104D0308104D0308104D0308104D0308104D0308104D0308104D0308104D0308104D0308104D0308104D0308104D03081000
:400080004D0308104D0308104D0308104D0308104D0308104D0308104D0308104D0308104D0308104D0308104D0308104D0308104D0308104D0308104D0308104D030810C0
:4000C0004D0308104D0308104D0308104D0308104D0308104D0308104D0308104D0308104D0308104D0308104D0308104D0308104D0308104D0308104D0308104D03081080
:400100004D0308104D0308104D0308104D0308104D0308104D0308104D0308104D0308104D0308104D0308104D0308104D0308104D0308104D0308104D0308104D0308103F
:400140004D0308104D0308104D0308104D0308104D0308104D0308104D0308104D0308104D0308104D0308104D0308104D0308104D0308104D0308104D0308104D030810FF
:400180004D0308104D0308104D0308104D0308104D0308104D0308104D0308104D0308104D0308104D0308104D0308104D0308104D0308104D0308104D0308104D030810BF
:4001C0004D0308104D0308104D0308104D0308104D0308104D0308104D0308104D0308104D0308104D0308104D0308104D0308104D0308104D0308104D0308104D0308107F
:400200004D0308104D0308104D0308104D0308104D0308104D0308104D0308104D0308104D0308104D0308104D0308104D0308104D0308104D0308104D0308104D0308103E
:400240004D0308104D0308104D0308104D0308104D0308104D0308104D0308104D0308104D0308104D0308104D0308104D0308104D0308104D0308104D0308104D030810FE
:400280004D0308104D0308104D03081010B5054C237833B9044B13B10448AFF300800123237010BD34680208000000006C620810084B10B51BB108490848AFF300800848E1
:4002C000036803B910BD074B002BFBD0BDE81040184700BF00000000386802086C62081000620208000000007047FFF7FDFF72B6104C114DAC4209DA21686268A368043BBA
:40030000A2BFC858D050FAE70C34F3E70B490C4A00209142BCBF41F8040BFAE709480A490860BFF34F8F00F043F900F01DF900F01DF8FEE770620810886208103468020896
:40034000F49402080040020808ED00E0FEE7FEE700B504207146084202D0EFF3098001E0EFF30880043003F0E3FDFEE700B583B062B60822104B5A6005F074FC01F0DAFD48
:400380004FF47A7003F0A0FD002001F039FD01F08DFD01F011FF002301930122009280220649074804F064FC04F0E6FC4821054803F0AEFDFEE700BF00003240CC5D08103C
:4003C000C11F0810DC5D081008B5012002F0BAFA08BD00BF704700BF5C4AD2F8803303F00F0303F1D00152F8212002F00702032A04D0042A05D092B9554914E0554A1168CA
:4004000011E003F1C002514951F8222002F01F02112A06D0132A04D04FF4FA4103E04E4901E04FF400418BBB484BD3F8902502F00100D3F88825C2F30172D3F8883513F0E7
:40044000405F07D0414BD3F88835C3F30173012B02D102E0012300E0002303B108B9032A46D13A48D0F88025C2F31103D0F88425C2F30C02D0F88005C0F300600130B1FBDE
:40048000F2F202FB03F2B2FBF0F131E0012B2FD12E4BD3F8402602F00100D3F80026C2F30172D3F8003613F0405F07D0274BD3F80036C3F30173012B02D102E0012300E0E9
:4004C000002303B108B9032A12D12048D0F8002602F07F02D0F80036C3F30423D0F80006C0F3044002FB01F2B2FBF3F2B2FBF0F1164BD3F88033C3F3011321FA03F21549C4
:400500004A601648D0F89030C3F3072301330069000E0130B2FBF0F08860B2FBF3F3CB600B6103F5742202F23F220D48A0FB0202C2F387420A7503F2E7330A4AA2FB0323D6
:400540009B098B61DB03CB61704700BF0000264000127A008C42020800366E010000214083DE1B43D34D621008B50D4803F044FDFFF730FFFFF730FF00221146042001F02C
:40058000A9FF084802F03CF8074B1B6893F8513013B1064802F0A4F801F0E6FE08BD00BF246108105068020808940208E85D081008B503F01AFD074AD2F8883043F470039D
:4005C000C2F88830BFF34F8FBFF36F8F03F011FD08BD00BF00ED00E040B1C2694AB1026A52B1436A5BB94FF0FF3070474FF0FF3070474FF0FF3070474FF0FF3070470020FC
:40060000704700BF0222C271082343711021017103218171C2734373142303730023837343688360C3680361704700BF4B790F2B0BD84A7A93420BD0027802F0F00203F06B
:400640000F0313430370002070476FF00300704700207047CB79022B08D8CA7A934208D0037803F08F030370002070476FF0030070470020704700BF8B790C2B0BD88A7A7B
:4006800093420BD0027802F0F00203F00F0313430370002070476FF003007047002070474B7B0D2B0BD84A7C93420BD0027802F0F00203F00F0313430370002070476FF0DE
:4006C0000300704700207047CB7B022B09D8027802F0CF021B0103F0300313430370002070476FF0030070478B7B042B0BD88A7C93420BD0027802F0F80203F00703134356
:400700000370002070476FF0030070470020704738B593B11C46DD6995B19B78012B01D140F0800013460A4601466078A8470546636A0120984745B105E04FF0FF3504E09E
:400740004FF0FF3501E06FF00105284638BD00BF38B504460D460B46022201464020FFF7D7FF034680B929462046FFF75FFF034650B929462046FFF76DFF034620B9294667
:40078000601CFFF779FF0346184638BD38B504460D460B46022201464220FFF7B9FF034680B929462046FFF77BFF034650B929462046FFF789FF034620B92946601CFFF7EE
:4007C00093FF0346184638BD00B583B002A9002301F8013D034601220220FFF799FF9DF80730C3F34303012B06D0022B07D0032B08D0072B0BD108E06FF0050007E06FF04E
:40080000060004E06FF0070001E06FF0080003B05DF804FB2DE9F843002B31D00546894690461E461C6A74B39B78012B01D100F07F05337A112B02D0337C152B19D14346F9
:400840004A4629467078A0470746736A0120984714E0376A012309EB040229467078B84707460135EDB2736A012098470134E4B201E000242746A3B24345EAD347B105E0C4
:400880004FF0FF3704E04FF0FF3701E06FF001073846BDE8F88300BF10B582B0044602A8002320F8043D2146FFF752FF0346C8B92346012201A94020FFF7ACFF034688B925
:4008C00063796372E379E372636A01209847234601220DF105014120FFF79CFF034608B9A279A272184602B010BD00BF10B582B0044602A8002320F8043D2146FFF746FF69
:400900000346C8B92346012201A94220FFF782FF034688B9637B6374E37BE374636A01209847234601220DF105014320FFF772FF034608B9A27BA274184602B010BD00BFEA
:4009400030B583B004460D4600238DF807300B46012201464020FFF7DBFE034628BB2A79122A14D1237863F07F0323702B46012221464020FFF74EFF0346B0B92B46022221
:400980000DF107015820FFF745FF03460DE0227812F0800F09D002F07F0222702B46012221464020FFF736FF0346184603B030BD30B583B000238DF807300279A2F110035B
:4009C000DBB2022B1AD8037A9A421AD0044601460DF10700FFF7B4FF054698B923460122211D7E20FFF716FF0546237A102B02D1636A052098472379237203E06FF0030578
:400A000000E00025284603B030BD00BF38B5027BA2F11403DBB2012B01D9172A1DD1037C9A421DD004460346012200F10C017E20FFF7F0FE0546237C142B03D1636A512055
:400A4000984707E0172B05D1237B152B02D1636A0A209847237B237403E06FF0030500E00025284638BD00BF30B583B005460C4602A9002301F8013D234601225020FFF7BF
:400A800047FE034660BB2B7813F0010F18D09DF8072002F0FE032978C1F340021A4302F0FD02C1F3800342EA430202F0FB02C1F3C00342EA83038DF807300023E37007E082
:400AC0009DF8073023F007038DF80730FF23E370234601220DF107015020FFF79BFE0346184603B030BD00BF30B583B005460C4602A9002301F8013D234601225320FFF796
:400B000007FE0346002844D12B78012B1CD19DF8072002F0F702A97801F0010342EAC30202F0FB02C1F3400342EA830303F0FD02C1F3800342EA430303F0FE03C1F3C00124
:400B40000B438DF807301CE09DF8072002F07F02A97801F0010342EAC31202F0BF02C1F3400342EA831202F0DF02C1F3800342EA431202F0EF02C1F3C00342EA03138DF812
:400B80000730234601220DF107015320FFF742FE0346184603B030BD30B583B004460D4602A9002301F8013D2B4601225420FFF7AFFD034650BB2378012B0BD19DF8073055
:400BC00003F0EF02A378C3F3001342EA03138DF807300AE09DF8073003F0DF02A378C3F3001342EA43138DF807309DF8073003F0F0026388C3F34313134302A901F8013DA3
:400C00002B4601225420FFF705FE0346184603B030BD00BF38B504460D46FFF765FF034620B929462046FFF7B7FF0346184638BD10B582B0044602A9002301F8013D0346FB
:400C400001226220FFF764FD034678B99DF8072012F0020F0AD002F0FD0202A901F8012D234601226220FFF7D5FD0346184602B010BD00BF70B582B005460C4600238DF83B
:400C800004308DF805308DF806300B46032201A95520FFF73DFD024698BB9DF804006B781949CE5CF3435BB218409DF806100B402D78032D1BD8DFE805F002070D138DF860
:400CC00004008DF8063014E030438DF804008DF806300EE033438DF806308DF8040008E030438DF8040033438DF8063001E06FF0030232B92346032201A95520FFF78AFD73
:400D00000246104602B070BD1C5E081030B583B005460C4602A9002301F8013D234601225920FFF7F5FC034688B99DF8073003F07F022B78C3F3801342EAC31302A901F8A2
:400D4000013D234601225920FFF764FD0346184603B030BD30B583B005460C4600238DF80730ADF804300B4601220DF107015F20FFF7CEFC034688B99DF8073003F0FC0324
:400D80008DF807308DF804306B788DF805302346022201A95F20FFF73DFD0346184603B030BD00BF70B505460E4614461146FFF731FF0346A8B92046FFF73AFF034680B9D9
:400DC00021462846FFF756FF034650B921463046FFF79CFF034620B921463046FFF7BAFF0346184670BD00BF70B505460C460846FFF7F2FB70B985B12E1D21463046FFF762
:400E000033FE034658B9224631462846FFF7CAFF034604E04FF0FF3301E04FF0FF33184670BD00BF30B583B005460C4602A9002301F8013D234601225020FFF769FC034687
:400E4000F0B92B7813F0200F0AD09DF8073003F0F80343F007038DF807300123E37007E09DF8073023F007038DF80730FF23E370234601220DF107015020FFF7CBFC0346E7
:400E8000184603B030BD00BF30B583B005460C4602A9002301F8013D234601225920FFF737FC034688B99DF8073003F07F022B78C3F3001342EAC31302A901F8013D23460A
:400EC00001225920FFF7A6FC0346184603B030BD30B583B005460C46437802A901F8013D234601226020FFF795FC034630BB234601220DF107016220FFF70AFC0346E8B964
:400F00009DF8072002F0F302297801F0030342EA830202F0CF02C1F3810342EA031303F0FD02C1F3401342EA430302A901F8013D234601226220FFF76DFC0346184603B074
:400F400030BD00BF70B505460E4614461146FFF761FE034680B921462846FFF78BFE034650B921463046FFF78FFF034620B921463046FFF7ADFF0346184670BD70B505468D
:400F80000C460846FFF728FB70B985B12E1D21463046FFF747FF034658B9224631462846FFF7D0FF034604E04FF0FF3301E04FF0FF33184670BD00BF30B583B004460D465A
:400FC00002A9002301F8013D2B4601225220FFF79FFB034658BB237813F0010F07D09DF8073003F0FE0343F001038DF80730237813F0020F07D09DF8073003F0FD0343F04A
:4010000002038DF80730237813F0040F07D09DF8073003F0FB0343F004038DF807302B4601220DF107015220FFF7F4FB0346184603B030BD30B583B005460C4602A90023F9
:4010400001F8013D234601225920FFF761FB034688B99DF8073003F07F026B78C3F3800342EAC31302A901F8013D234601225920FFF7D0FB0346184603B030BD30B583B0F3
:4010800005460C4600238DF80730ADF804300B4601220DF107015F20FFF73AFB034688BB9DF8073003F003022B88C3F3C50342EA830302A901F8013D234601225F20FFF7A1
:4010C000A9FB0346F0B9234601220DF107016220FFF71EFB0346A8B99DF8073003F0FE026B78C3F3400313438DF807308DF80530AB7802A901F8043D234602226120FFF71A
:4011000089FB0346184603B030BD00BF70B505460E4614461146FFF77DFD034680B921462846FFF7A7FD034650B921463046FFF781FF034620B921463046FFF79FFF0346CE
:40114000184670BD70B505460C460846FFF744FA70B985B12E1D21463046FFF72DFF034658B9224631462846FFF7D0FF034604E04FF0FF3301E04FF0FF33184670BD00BF51
:4011800070B582B005460E46144602A9002301F8013D134601225020FFF7BAFA034608BB6B78042B0BD19DF8073003F0DF027378C3F3C00342EA43138DF807300AE09DF889
:4011C000073003F0EF027378C3F3C00342EA03138DF80730234601220DF107015020FFF719FB0346184602B070BD00BF30B583B005460C4602A9002301F8013D23460122DB
:401200005820FFF785FA034688B99DF8073003F0F7026B78C3F3800342EAC30302A901F8013D234601225820FFF7F4FA0346184603B030BD70B582B006460D46144602A965
:40124000002321F8043D134602226320FFF760FA034650BB9DF804307278032A06D12A88C2F3C21203F0F8031343DBB22A78C2F3401103F0BF0343EA8113C2F3801103F033
:401280007F0343EAC1138DF804309DF80530C2F3040203F0E0031A438DF805202346022201A96320FFF7B6FA0346184602B070BD70B505460E4614461146FFF7ABFC03464F
:4012C00088B921462846FFF7D5FC034658B921463046FFF78BFF034628B9224631462846FFF7A8FF0346184670BD00BF70B504460D460846FFF770F9A8B9BCB1261D2A46C3
:4013000031462046FFF73CFF034688B929462046FFF780FC034658B92A4631462046FFF7C7FF034604E04FF0FF3301E04FF0FF33184670BD30B583B005460C4602A900236D
:4013400001F8013D234601225220FFF7E1F9034688B99DF8073003F0F7022B7803F0010342EAC30302A901F8013D234601225220FFF750FA0346184603B030BD30B583B01B
:401380000D460023ADF80430037813F0C00306D115238DF8043003238DF8053032E00446402B03D12D238DF804302BE0802B06D11D238DF8043007238DF8053022E0C02BFA
:4013C00020D10B46022201A97A20FFF7A1F9C8B99DF8043003F0E7032278C2F3410143EAC10303F0F803C2F3C20213438DF804309DF8053003F0F8026378C3F302031343F1
:401400008DF805302B46022201A97A20FFF702FA03B030BD70B505460C460846FFF7DCF8C8B9DDB12E1D21463046FFF783FF0346B0B921462846FFF7EDFB034680B92146B0
:401440002846FFF717FC034650B921463046FFF795FF034604E04FF0FF3301E04FF0FF33184670BD30B583B005460C4602A9002301F8013D234601225020FFF749F903468A
:4014800088B99DF8073003F0BF02AB7803F0010342EA831302A901F8013D234601225020FFF7B8F90346184603B030BD30B583B005460C4600238DF804308DF805300B4627
:4014C000022201A96520FFF723F9034678BB9DF8042002F0FC032978C1F301021A4302F0F30201F00C031A4302F00F0201F0F00313438DF804309DF8052002F0C003697822
:40150000C1F305021A4302F0BF02C1F3801342EA831202F07F0201F0800313438DF805302346022201A96520FFF774F90346184603B030BD70B505460C460846FFF74CF831
:40154000C8B9DDB12E1D21463046FFF78BFF0346B0B921462846FFF75DFB034680B921462846FFF787FB034650B921463046FFF79DFF034604E04FF0FF3301E04FF0FF335F
:40158000184670BD30B583B005460C4602A9002301F8013D234601225020FFF7B9F8034688B99DF8073003F07F026B78C3F3C00342EAC31302A901F8013D2346012250203D
:4015C000FFF728F90346184603B030BD30B583B005460C4600238DF804308DF805300B46022201A96720FFF793F8034608BB9DF8043003F0C0022B78C3F3050313438DF855
:4016000004309DF8053003F0CF026B78C3F3410342EA031303F0F8032A88C2F3821213438DF805302346022201A96720FFF7F2F80346184603B030BD70B505460C460846DB
:40164000FEF7CAFFC8B9DDB12E1D21463046FFF799FF0346B0B921462846FFF7DBFA034680B921462846FFF705FB034650B921463046FFF7ABFF034604E04FF0FF3301E0FA
:401680004FF0FF33184670BD30B583B005460C4602A9002301F8013D234601225120FFF737F8034688B99DF8073003F0F702AB78C3F3001342EAC30302A901F8013D2346E7
:4016C00001225120FFF7A6F80346184603B030BD30B583B005460C4602A9002301F8013D234601225820FFF713F8034688B99DF8073003F07F02AB78C3F3C00342EAC31354
:4017000002A901F8013D234601225820FFF782F80346184603B030BD30B583B005460C4600238DF804308DF8053002A901F8023D234601225C20FEF7EBFF0346E0B99DF880
:40174000062002F0FC03A978C1F301021A4302F0FB02C1F3800342EA83038DF806306B788DF805302B7802A901F8043D234603225A20FFF74FF80346184603B030BD00BF1A
:4017800070B505460C460846FEF726FFF8B90DB32E1D21463046FFF777FF0346E0B921462846FFF737FA0346B0B921462846FFF761FA034680B921463046FFF789FF03461E
:4017C00050B921463046FFF7A7FF034604E04FF0FF3301E04FF0FF33184670BD30B583B005460C4602A9002301F8013D234601225120FEF78DFF0346E0B99DF8072002F024
:40180000FE032978C1F300021A4302F0FD02C1F3400342EA430202F0FB02C1F3800342EA830302A901F8013D234601225120FEF7F1FF0346184603B030BD00BF30B583B0E0
:4018400005460C4602A9002301F8013D234601225820FEF75DFF034688B99DF8073003F07F022B78C3F3401342EAC31302A901F8013D234601225820FEF7CCFF03461846AC
:4018800003B030BD30B583B005460C4600238DF804308DF805308DF806300B46012201A95C20FEF735FF0346B8B99DF8043003F03F022B78C3F3C10342EA83138DF8043070
:4018C000AB788DF805306B788DF806302346032201A95C20FEF79EFF0346184603B030BD70B505460C460846FEF776FEF8B90DB32E1D21463046FFF771FF0346E0B921461F
:401900002846FFF787F90346B0B921462846FFF7B1F9034680B921463046FFF78FFF034650B921463046FFF7ADFF034604E04FF0FF3301E04FF0FF33184670BD10B582B076
:40194000044602A9002301F8013D034601225120FEF7DEFE034670B99DF8073003F0EF0343F0100302A901F8013D234601225120FEF750FF0346184602B010BD30B583B0A0
:4019800005460C4602A9002301F8013D234601225620FEF7BDFE024670BB6B781849C85C9DF8073023EA00035BB20101C9B223EA0103DBB22D78032D13D8DFE805F0020571
:4019C000090D8DF807300EE00B438DF807300AE003438DF8073006E003430B438DF8073001E06FF003023AB9234601220DF107015620FEF70FFF0246104603B030BD00BFBB
:401A00001C5E081038B505460C460846FEF7E4FD88B99DB12046FFF791FF034680B921462846FFF7F7F8034650B921462846FFF7A5FF034604E04FF0FF3301E04FF0FF33FE
:401A4000184638BD30B583B005460C4602A9002301F8013D234601225120FEF759FE034688B92B7A03F001029DF8073023F0200343EA421302A901F8013D23460122512088
:401A8000FEF7C8FE0346184603B030BD38B599B14A6AA2B10C460546FFF7D4FF034680B921462846FFF7B6F8034650B921462846FFF764FF034604E04FF0FF3301E04FF047
:401AC000FF33184638BD00BF30B583B005460C4602A9002301F8013D234601225120FEF717FE034688B92B7AC3F340029DF8073023F0400343EA821302A901F8013D23468B
:401B000001225120FEF786FE0346184603B030BD38B599B14A6AA2B10C460546FFF7D4FF034680B921462846FFF774F8034650B921462846FFF722FF034604E04FF0FF3318
:401B400001E04FF0FF33184638BD00BF30B583B0B6238DF80730F0B10446436AF3B1034601220DF107017E20FEF754FE0546636A0F20984755B9A378012B07D123460122E2
:401B80000DF107017F20FEF7C3FD054645B92046FEF738FD04E04FF0FF3501E04FF0FF35284603B030BD00BF10B582B00446FEF713FD034648B9A278012A06D123460DF167
:401BC00007017F20FEF7A4FD0346C3B9234601220DF106010020FEF79BFD58B99DF80630D12B0AD12370FF23E3702046FFF7AEFF034604E06FF0020301E06FF002031846AD
:401C000002B010BD60B1426A6AB110B50446FEF7CFFE034658B92046FEF7F8FE034606E04FF0FF3301E04FF0FF3318467047184610BD00BFB0B1426ABAB110B50446FEF764
:401C40002BFE0346A8B92046FEF750FE034680B92046FFF7D7FF034658B92046FEF7B4FD034606E04FF0FF3301E04FF0FF3318467047184610BD00BF08B543780C2B2CD82A
:401C8000DFE803F0070A13101016191F1C0D22252800FFF7A9F808BDFFF770F908BDFFF751FA08BDFFF722FB08BDFFF7B3FB08BDFFF740FC08BDFFF7BFFC08BDFFF760FDB9
:401CC00008BDFFF70DFE08BDFFF79CFE08BDFFF7DDFE08BDFFF71CFF08BD002008BD00BFF0B585B0064617461C460F4D284600F8011B1A46394604F037F88DF800600195B4
:401D00000134029400238DF80C30084A6946084801F072FD04464FF0FF31064B186802F01DFD204605B0F0BDD0690208A894020800006440D0930208F0B587B005461746C7
:401D40001E468DF807108DF808000DF107030393012304938DF81430124A02A9124801F04BFD124CE0604FF0FF31114B186802F0F5FCE3688BB98DF80850039704968DF829
:401D80001430084A02A9084801F07EFCE0604FF0FF31074B186802F0E1FC044BD86807B0F0BD00BFA894020800006440D0690208D093020800B583B010F4002F04D0A521D6
:401DC0000C4802F0A5F811E010F4C02F0ED001A9094B186802F0B8FB019B3BB14FF08052064B1A60BFF34F8FBFF36F8F03B05DF804FB00BF2C5E0810D093020804ED00E0D1
:401E000070B584B00646144C144D0095642300225721204601F094FD2B4664223146204601F0FCFE0095642301225721204601F0FFFD002104AA02F8011D0095642320466C
:401E400001F092FE2A466421204601F05BFE9DF80F0004B070BD00BF000063405C940208F0B583B007460E460E4C0F4D0095642300225721204601F063FD2B466422394649
:401E8000204601F0CBFE2B4664223146204601F0C5FE2A466421204601F034FE012003B0F0BD00BF000063405C94020808B5C0210220FFF7D5FF0346D0B300210320FFF78F
:401EC000CFFF0346A0B300210420FFF7C9FF034670B300210520FFF7C3FF034640B300210620FFF7BDFF034610B30F210820FFF7B7FF0346E0B103210920FFF7B1FF0346B0
:401F0000B0B16B210A20FFF7ABFF034680B124210C20FFF7A5FF034650B124210D20FFF79FFF034620B17F211020FFF799FF0346184608BD08B540210920FFF791FF08BD9F
:401F40002DE9F04182B080460D4616461A4C1B4F0097642300225721204601F0F1FC3B4664224146204601F059FE0097642301225721204601F05CFD002409E00F4B009308
:401F800064232A1900210C4801F0EEFD0134E4B2731E9C42F2DB084E084F009764232A190121304601F0E0FD3A466421304601F0A9FD02B0BDE8F081000063405C94020814
:401FC00008B5184C062221460720FFF7B9FF16490B68A278607802EB0022207802EB0042124840F823206279207902EB0022E07802EB00420E4840F8232001330B600D4A1C
:4020000082FB0321DA17C2EBA1124FF47A7101FB1232002AD5D1044B01221A7100221A60CFE700BFD4930208E0690208B442020854520208D34D621008B503F059FE134AF8
:40204000134B5A6413486823437000238370124BC361124B0362124B4362FFF7A5FDC0B290B90C4807234371052383710223C371112202710D22427300228273C373152347
:402080000373FFF7D7FDC0B240B208BDB51D0810A8940208DC930208391D0810E11C08100150081030B585B002218DF8041005238DF805309DF8063043F0010303F0FD0375
:4020C00043F00C036FF304138DF80630BDF80630042262F34813ADF806309DF809309DF8082002F0F30261F307126FF301028DF8082063F07F039DF80A2042F001028DF88F
:402100000A2003F0C00343F040038DF809300D4901A8FFF7B1FD05460B4C0C49204601F099FEB4F90030002B08DB590903F01F03012202FA03F3064A42F82130284605B08E
:4021400030BD00BFDC9302083C5E08105521081000E100E008B5124B5A6901225A615B69104BB3F90030002B09DB5A0903F01F03012101FA03F360320B4941F82230012255
:402180000A4B1A700A4B186802F0A4FD38B14FF08052084B1A60BFF34F8FBFF36F8F08BD800632403C5E081000E100E0EC6902080494020804ED00E008B5032200210120AB
:4021C00002F062F8054B1860FFF736FF0028FDD1FFF768FF0028FDD108BD00BFD09302081F4B98422DD00CD840282ED003D8E8B1102828D02FE0802829D0B0F5807F28D0EB
:4022000029E0184B984228D006D8B0F1204F0DD0154B984212D01EE0144B98420AD00133984209D0023B984215D101E0002070470F4870470F4870470F4870474FF4A000BF
:402240007047074870470D4870470D4870470D487047034870470C4870474FF4A400704706005200010000F0090000A0040000F0010052000200520003005200010050009F
:402280000200500005005200FF00520038B5124B1B6893F83130012B04D840F2C3110F4801F036FE0C4B1D682A6AB5F8B03013442C46D5F8B420D358002B0BDB084B18686B
:4022C000FFF78EFF6B6801229A6063689B68002BFBD138BD034838BD08940208645E0810F0690208020050001A4B186128B102230370FF23437000234380174B1B6893F8C2
:4023000050202AB300B583B0B3F93830ADF80030002301931149684601F09CFDBDF90030002B08DB590903F01F03012202FA03F30B4A42F82130084B1B6893F8513023B120
:4023400002220849012000F077FA03B05DF804FB704700BFF0690208089402087162020800E100E02963020808B50248FFF7BCFF08BD00BF046A020838B50B4B1B68D3F867
:40238000B4301B58002B0DDA0D4604460B0C1B0423B140F2D521054801F0BAFDA9B26160002038BD024838BD08940208A45E081001008A0038B50368002B01DA002300E0D4
:4023C000094B73B90D460446C2600B0C1B0423B140F2BB21054801F09BFDA9B2A160002038BD014838BD00BF01008A00A45E081038B504460D4619B99921084801F088FDC1
:40240000074B1B68D3F8B4301B59002B03DAE3682B60002038BD034838BD00BFE45E08100894020801008A00254B1B6893F8313083423AD900293AD00B6813F01F0F38D190
:4024400070B50D4604461E4B1B6893F83130984204D340F2C3111B4801F05AFD184B1B68186AB3F8B03004FB0304174E34602A68D2080021686803F082FC00212046FFF723
:402480007BFF346825B940F293310E4801F040FD2A4600212046FFF78DFF60B900210A4B1868FFF769FF40B970BD084870470748704706487047064870BD054870BD00BFDC
:4024C00008940208A45E0810086A020803018A0001018A0010B504461346B2B9A9B9124B1B6893F83130984204D340F2C3110F4801F00EFD0C4B1B681A6AB3F8B03004FB93
:4025000003240B4B1C60002010BD43B149B1084A51609360111D2046FFF786FF10BD054810BD044810BD00BF08940208A45E0810086A020803018A002DE9F0411B4B1B6809
:40254000DC68236883422CD90D464609A0EB4610012303FA00F819B901F047FD074600E00027124B18680368002B01DA002300E00F4B83B9626852F8263018EA030F05D091
:4025800023EA080342F82630002400E0094C0021FFF7F2FE00E0084C25B9384601F029FD00E0064C2046BDE8F08100BF086A020801008A00020188000301880004018A0052
:4025C0000B4B1B68DB681A6882420CD94109A0EB4110012202FA00F05B6853F82130184203D004487047044870470448704700BF086A02080101880004018A0000018800ED
:40260000024B1B680BB9014B18607047146A02082DE9F8430446884691461D46089F2C4B1B681BB9B5212B4801F072FC284B1B682C2000FB04F01C18EEB21E50C5F30723EE
:4026400063602D0CA560244B1B6893F831309E4204D340F2C311214801F05AFC1E4B1B68196AB3F8B02006FB02162661666893F832309E4204D340F2DF11184801F048FC5B
:40268000154B1B681D6A803605EB46156561A668330C1B0423B14FF4FF71104801F038FC330C1B0423B140F2FF110C4801F030FCB3B243EA0646AE60C4F81C90C4F82080E4
:4026C0000023A36117B1B7F90030A381BDE8F883146A0208245F081008940208A45E0810F0B58FB0044618B95221274801F010FCA369072B03D95621234801F009FCE36AC7
:402700001BB95821204801F003FC236B1BB959211D4801F0FDFB07AD04F114060FCE0FC537682F6002AD26460FCE0FC533682B60164B1B68B3F93620079B1344ADF8303052
:40274000089B0D93A26AE16A0CAD00953B460A98FFF75EFF00210091069B0A460598FFF757FF216B284601F075FBBDF93030002B08DB590903F01F03012202FA03F3044A16
:4027800042F821300FB0F0BD245F08100894020800E100E0F8B506460F461D4614461AB9FD211F4801F0B4FB1E4B1B681BB9FE211B4801F0ADFB1B4B1B682C2101FB0630DA
:4027C00001FB07314B68012202FA03F31B04466802FA06F60269EAB18F69EFB91268002A01DA002200E0104AC2B92288134323600369DC6001238B614D620469330C1B0467
:4028000023B140F2BB21094801F082FBB2B2A2600020F8BD0648F8BD0648F8BD0548F8BD245F0810146A020801008A00A45E081004028A0007028A00F8B505460F46164620
:402840000E4B1B6823B94FF4AF710D4801F060FB0A4B1B682C2404FB0534236A23B94FF4B171074801F054FBE369B34204D9236A43F826700020F8BD0248F8BD146A020807
:40288000245F08100A028A0070B582B000230193044620B940F2D111284801F039FB236923B94FF4E971254801F032FB636923B940F2D311214801F02BFB236A23B94FF493
:4028C000EA711E4801F024FB6369DD682A0C20D012041A601B682069194B1B68D3F8B430C358002B15DA01A9FFF782FD60B9019803681E0CDBB2E269934206D2226A52F8A8
:40290000233013B1984700E0002631462069FFF733FDADB275B16369ADB21D601B68636A1BB198470023636202E0A36A03B198470023A36163691B6802B070BD245F0810F3
:402940000894020810B50446074B1B6823B940F2B111064801F0DCFA034B1B682C2000FB0430FFF791FF10BD146A0208245F081010B4D0F8003303F00F03072B06D900232E
:402980000DE0D0F84043CC54013300E000239342F7D306E0D0F8404321F8134001339342F8D35DF8044B704710B51446D0F80833C3F308039A4200D31C462246FFF7D8FFF4
:4029C000204610BD10B4D0F8003203F00F03072B06D900230DE0CC5CC0F84042013300E000239342F7D306E031F81340C0F8404201339342F8D35DF8044B704710B514469E
:402A0000036813F4006F01D0802200E04022D0F80832C3F30803D31AA34200D81C462246FFF7D0FF204610BD02E0C0F84012013A002AFAD1704700BF10B51446036813F4AE
:402A4000006F01D0802200E04022D0F80832C3F30803D31AA34200D81C462246FFF7E4FF204610BD10B54A6841F201039A4231D1D0F80833C3F30803B3B10B6A43F0400350
:402A80000B620B7873B1D0F8043343F48033C0F80433D0F8043323F48033C0F80433D0F8043301E0D0F840330B6A43F020030B620B6A23F010030B62036E23F420430366C3
:402AC0000023C0F8C83F0123C0F8C03FD0F8C03F202221E0D0F80832C3F30802D0F80832C3F3C03313440A6BD21A4A630A6A12F0080F05D1CA6A1A44CA628A6AD31A8B624E
:402B00000B6A43F004030B620B6A23F001030B620023C0F8883F1022D0F84C4F40F201131C420DD0036823F00043036000238366C366036843F000430360036842F040024C
:402B40004FF080534B604B6C0BB11046984710BDD0F80C3F13F0020F1DD00222C0F8002FD0F8002FD0F8002F12F0040F02D04FF4001001E04FF480108A6802438A604A6855
:402B8000B2F5B81F07D00A7B12B14FF4C01201E04FF4B0124A6013F4807F03D08A6842F400028A6013F0010F03D08A6842F480028A6040F21112134202D04FF4C0134B602F
:402BC000704700BF0023C0F8C83FC0F8883F836E23B140F21713C0F8083F704740F21313C0F8083F182383664FF4B8134B60704738B5D0F80C4F036E23F480730366002325
:402C0000C0F8C83FC0F8883FC0F8083F40F21713C0F8003FD0F8003F8B6823F480338B604B7B13B18B69CB610BE08D69D0F80822C2F30802D0F80832C3F3C0331344EB1A12
:402C4000CB6140F201131C421BD0036E9B0F032B05D114F4827F14BF0123002300E001235BB1036823F00043036000238366C366036843F00043036003684FF080534B6082
:402C80001BE00B7893B1D0F8043343F48033C0F80433D0F8043323F48033C0F80433D0F804330123C0F8C03FD0F8C03F0B7B0BB10B4B01E04FF080534B604A6C72B14B7B4C
:402CC00013B14FF4802001E04FF400308B6813F0F87301D04FF400231843904738BD00BF000010100346002940DB11F0C00F06D0002181664FF0805050602F4844E011F4A1
:402D0000807F36D111F0010F0ED050682B49884232D1196E11F0804F0CBF012100214FF08050506026482FE011F0020F06D050682249884223D10021224825E011F0100F8B
:402D400005D04FF080515160002108461CE050681A49884216D1517B11B14FF4881101E04FF4A0115160002108460DE0012116480AE00121154807E00121114804E00021EA
:402D8000134801E00021084679B1196821F00041196000219966D966196841F0004119601B684FF080535360704740F21712C3F8002FD3F8003F70470820AA00000013102D
:402DC0000620AA000420AA000320AA000720AA000520AA00036853B110B50446012001F08BF82368013B23601BB1002010BD002070474FF0004010BD70B505460C4691F844
:402E0000243013F0FF0F0ED1CB6A63B94B6C0BB108209847E36AB3FA83F35B0984F824300123C5F8883F94F8243013F0FF0F16D063783BB12B6813F4006F01D0802202E03B
:402E4000402200E00122FF212846FFF7F5FD236B18442063236A43F00803236270BDE26A012A11D963780BB1013A00E00122A16A2846FFF7C3FD236B03442363E36A1B1A4B
:402E8000E362A36A1844A062D5F80832C3F30803802B23D0E36A012B20D101F0A6F8A36A1B78C5F840324026C5F8806FD5F8803F01F09FF8236B013323630023E362A36A51
:402EC0000133A362C5F8886F63783BB1236A43F002032362636C0BB10420984770BD00BF38B54B68B3F5A81F03D14FF4C0134B6038BD4B68B3F5A01F4DD10C4605464A6939
:402F0000012A11D94B780BB1013A00E0012221692846FFF773FDA3690344A36163691B1A6361236903442361D5F80832C3F30803802B14D06369012B11D101F056F82369F2
:402F40001B78C5F840324023C5F8803FD5F8803F01F04FF8A3690133A361002363616369CBB9237B33B14023C5F8883F4FF4A813636005E00023C5F8883F4FF4B0136360F2
:402F8000637843B1A36843F40033A360636C13B14FF48030984738BD70B504460D468A6C82B3036813F4803F06D0D0F84C3F13F0400F03D0022002E0002000E00020236E4F
:402FC00013F4006F06D1D4F84C3F13F0800300D001231843C0B190470123C4F8C03FD4F8C03F024648B91023C4F8403FD4F8403F40F2D113C4F8483F07E040F2C113C4F862
:40300000483F02E0002200E00022D4F8043243F48033C4F80432D4F8043223F48033C4F80432D4F804320AB9012300E00223E366002A59D1666E06F010066B6C23B10EB192
:40304000012000E0022098477EB141F202036B602B6A43F001032B626B6B2B63002385F824300123C4F8883F70BD41F201036B602B6A43F010032B620123C4F8C83F2B78A3
:40308000BBB1EB6BBBB1236E43F400532366ED6B802D05D9A5F18003802B0ED8813D0DE0013D236E43F4004323660023C4F8C83F04E0002502E0002500E03F25236813F468
:4030C000006F01D0802300E040239D4204D34FF42071064800F01CFFD4F8043323F0FF03EDB21D43C4F8045370BD00BF645F081038B54B68B3F5881F03D0B3F5901F1AD0D3
:4031000038BD0B69D0F840231A708B6901338B614B69013B4B612BB10B6901330B610423836638BD0B7B13B14FF4C01301E04FF4B0134B6038BD0C4605464A690969FFF72D
:4031400033FCA3690344A36163691B1A6361226910442061012B24D82B6E23F480732B666369012B16D12B6813F4006F01D0802300E0402323B94FF42071184800F0C8FEE3
:40318000D5F8043323F0FF03C5F804334FF48813636038BD0023C5F8C83F4FF4B013636038BD402B01D89C1E00E03F242B6813F4006F01D0802300E040239C4204D34FF4CE
:4031C0002071064800F0A4FED5F8043323F0FF02E3B21343C5F8043338BD00BF645F081038B5CB6B002B50D00B78002B3FD00C460546D0F80423D2B20132896BFFF7D4FBB1
:40320000236C03442364E36B1B1AE363A26B1044A063802B06D9A3F18002802A0FD8A3F181040DE02B6E43F400432B66E36B0BB15C1E00E000240023C5F8C83F00E03F2477
:403240002B6813F4006F01D0802300E040239C4204D34FF42071104800F05AFED5F8043323F0FF02E3B21343C5F8043338BD0123C3668A6B0B6CD0F84003D0540B6C0133E6
:403280000B64CB6B013BCB6338BD0223C3660023C0F8C83F38BD00BF645F0810F8B50B78012B03D00C7A1CB9002702E0002700E00127002800F0A780002900F0A680002AE1
:4032C00000F0A58016460C460546013BDBB2022B03D94F214F4800F01BFE637803B163791BB150214B4800F013FE94F90330002B03DA5121474800F00BFE237913F0010F31
:4033000003D05221434800F003FE2369102B03D95321404800F0FCFDE368102B03D954213C4800F0F5FD637913B14FF4803100E00021E27912B14FF4807300E000230B43CC
:4033400043F400632B60A37913B94FF4006300E000232269013A02F00F021A43E368013B1B01DBB21343227843EA82732B6617B140F2073301E040F20713C5F800330FB18D
:40338000254B00E0254B2B6763780BB17F2300E00023C5F80433E3785B00DBB2227943EA0243C5F810331E4BC5F80032A3780BB1402300E00123C5F804320023C5F8C83ECC
:4033C000C5F8883EC5F8C83FC5F8883FC5F8083F2378022B02D040F2D11300E00023C5F8483F63783370A37873704FF0805373600020B060B06130623064F0633063F06207
:403400007064B064F8BD0748F8BD0648F8BD0548F8BD00BFA85F081003002A0013102A00070101000120AA0038B505460C4621B940F2C321194800F06BFD2B6E9B0F012B18
:4034400017D1174B2344174A93421ED9A4F5BD13A3F5D66302F5611202F56162934216D9A4F57104A4F533440F4B9C4211D80F4838BD84B1286EC0F303102B6E03F00F0392
:4034800018440230B4FBF0F038BD094838BD094838BD002038BD002038BD00BFA85F081020AD88FF405B730040555C0440420F00801A0600A08601002DE9F843074688464B
:4034C000914622B940F21221624800F021FD08F1FF34614B9C4204D940F213215D4800F017FD3B6E9B0F012B0DD149463846FFF79BFF0546D7F8003323F40073C7F8003398
:40350000564B3B67A2E0544B9C421FD8544B984509D8A9F5BD13A3F5D663524A934218D90021012328E0504B984507D84F4B4B444F4A934213D9002101231DE04D4B4B44C4
:403540004D4A934212D90021012315E00021012312E0002141F288352E460B460CE000214FF461754FF4C8660B4605E001214FF4BE754FF41B760023002B66D13F4BB3FBB7
:40358000F9F3B6FBF3F404FB03F2964200D90134102C00D910240F2C8CBF00220122B5FBF3F606FB03F39D4200D90136102E00D91026A519B9FBF5F50FE022B10F2C09D893
:4035C0000134002206E00F2E04D801360F2C8CBF00220122A519B9FBF5F5454502D9A3191F2BEAD941B1D7F8003343F40073C7F80033234B3B6707E0D7F8003323F40073D6
:40360000C7F80033154B3B67E31F092B04D940F283511C4800F07CFC3B6E23F0F003013C2401E4B223433B66731F0B2B04D94FF4B461144800F06CFC3B6E23F00F03013E45
:4036400006F00F061E433E6600E000252846BDE8F88300BFA85F08103F420F0013102A00A0860100502D1900801A060020AD88FFA0432100807E25FFC02BAF0000CA9A3BDC
:4036800003002A00E85F081070B5044615460E4621B940F2D341554800F03AFC73680BB1B36823B940F2D441504800F031FC96F90030002B04DA40F2D5414C4800F028FC3B
:4036C0000023C4F8483F6B6813F0805F00F0888033785B00DBB243F001034FF48032AA6072682A61B2686A610022AA61EA61327B2A7301226A7340F21712C4F8002FD4F8D0
:40370000002FD4F8042242F48032C4F80422D4F8042222F48032C4F80422D4F804226A68B2F1805F04D1C4F840320223A36609E0626E12F0200F01D0092200E00122A2669A
:40374000C4F840322B7843B32B7B33BB6B69012B23D9236E43F4807323666E69802E01D8023E00E03F26236813F4006F01D0802300E040239E4204D34FF420711C4800F034
:40378000C7FBD4F8043323F0FF03F6B21E43C4F804634FF490136B6015E0236813F4006F01D0802300E0402323B94FF42071104800F0AEFBD4F8043323F0FF03C4F80433F9
:4037C0004FF488136B6000F010FC0123C4F8C83F40F21313C4F8083F00F00BFC002000E0044840F2D113C4F8483F70BDA85F0810645F08100220AA00F8B5044615460E46AD
